:20000000A03A012059170100414F0100414F0100414F0100414F0100414F0100414F01000E
:1C002000414F0100414F0100414F0100414F0100414F0100414F01009F5001006E
:04003C0030BF70471A
:200040000000000000000000000000000000000000000000000000000000000000000000A0
:2000600000000000000000000000000000000000000000000500000000000000000000007B
:20008000000000000100000000000000E0000000010000000000000000000000E803000093
:2000A00000000000000000000000000000000000000000000000000000000000010000003F
:2000C00000000000000200000000000000000000010000004E4D493A2025732028433A2F53
:2000E00074692F73696D706C656C696E6B5F6363313378785F6363323678785F73646B5FC6
:20010000355F34305F30305F34302F6B65726E656C2F746972746F73372F7061636B616714
:2001200065732F74692F73797362696F732F66616D696C792F61726D2F6D332F4877692E2C
:20014000633A313238362900486172642D6661756C743A2025732028433A2F74692F736972
:200160006D706C656C696E6B5F6363313378785F6363323678785F73646B5F355F34305FD6
:2001800030305F34302F6B65726E656C2F746972746F73372F7061636B616765732F746907
:2001A0002F73797362696F732F66616D696C792F61726D2F6D332F4877692E633A3133305F
:2001C000312900486172642D6661756C743A2025732028433A2F74692F73696D706C656C15
:2001E000696E6B5F6363313378785F6363323678785F73646B5F355F34305F30305F34304D
:200200002F6B65726E656C2F746972746F73372F7061636B616765732F74692F73797362B9
:20022000696F732F66616D696C792F61726D2F6D332F4877692E633A3133303829004861C4
:2002400072642D6661756C743A2025732028433A2F74692F73696D706C656C696E6B5F6393
:2002600063313378785F6363323678785F73646B5F355F34305F30305F34302F6B65726EF1
:20028000656C2F746972746F73372F7061636B616765732F74692F73797362696F732F6638
:2002A000616D696C792F61726D2F6D332F4877692E633A31333138290072657365727665D0
:2002C000642025732025642028433A2F74692F73696D706C656C696E6B5F636331337878A8
:2002E0005F6363323678785F73646B5F355F34305F30305F34302F6B65726E656C2F74694B
:2003000072746F73372F7061636B616765732F74692F73797362696F732F66616D696C7978
:200320002F61726D2F6D332F4877692E633A3134383729007461736B203078257820737441
:2003400061636B206F766572666C6F772028433A2F74692F73696D706C656C696E6B5F63E0
:2003600063313378785F6363323678785F73646B5F355F34305F30305F34302F6B65726EF0
:20038000656C2F746972746F73372F7061636B616765732F74692F73797362696F732F6B32
:2003A0006E6C2F5461736B2E633A34373629007461736B203078257820737461636B206F2F
:2003C000766572666C6F772028433A2F74692F73696D706C656C696E6B5F63633133787867
:2003E0005F6363323678785F73646B5F355F34305F30305F34302F6B65726E656C2F74694A
:2004000072746F73372F7061636B616765732F74692F73797362696F732F6B6E6C2F5461D0
:20042000736B2E633A343831290055736167652D6661756C743A2025732028433A2F74694C
:200440002F73696D706C656C696E6B5F6363313378785F6363323678785F73646B5F355FAB
:2004600034305F30305F34302F6B65726E656C2F746972746F73372F7061636B616765736D
:200480002F74692F73797362696F732F66616D696C792F61726D2F6D332F4877692E633A04
:2004A00031343232290044656275672D6D6F6E69746F723A2025732028433A2F74692F73C9
:2004C000696D706C656C696E6B5F6363313378785F6363323678785F73646B5F355F343069
:2004E0005F30305F34302F6B65726E656C2F746972746F73372F7061636B616765732F74AE
:20050000692F73797362696F732F66616D696C792F61726D2F6D332F4877692E633A3134C1
:2005200037332900537643616C6C3A2073764E756D203D2025642028433A2F74692F73698E
:200540006D706C656C696E6B5F6363313378785F6363323678785F73646B5F355F34305FF2
:2005600030305F34302F6B65726E656C2F746972746F73372F7061636B616765732F746923
:200580002F73797362696F732F66616D696C792F61726D2F6D332F4877692E633A31343476
:2005A00030290049535220737461636B206F766572666C6F772028433A2F74692F73696DE1
:2005C000706C656C696E6B5F6363313378785F6363323678785F73646B5F355F34305F30AF
:2005E000305F34302F6B65726E656C2F746972746F73372F7061636B616765732F74692FA4
:2006000073797362696F732F66616D696C792F61726D2F6D332F4877692E633A31383133F0
:2006200029007461736B203078257820737461636B206572726F722C205350203D203078E5
:2006400025782028433A2F74692F73696D706C656C696E6B5F6363313378785F63633236BF
:2006600078785F73646B5F355F34305F30305F34302F6B65726E656C2F746972746F733755
:200680002F7061636B616765732F74692F73797362696F732F6B6E6C2F5461736B2E633AA4
:2006A00034383829007461736B203078257820737461636B206572726F722C205350203D89
:2006C00020307825782028433A2F74692F73696D706C656C696E6B5F6363313378785F6342
:2006E00063323678785F73646B5F355F34305F30305F34302F6B65726E656C2F7469727423
:200700006F73372F7061636B616765732F74692F73797362696F732F6B6E6C2F5461736BD5
:200720002E633A3439342900696E746E756D3A202564206973206F7574206F662072616EDC
:2007400067652028433A2F74692F73696D706C656C696E6B5F6363313378785F636332368F
:2007600078785F73646B5F355F34305F30305F34302F6B65726E656C2F746972746F733754
:200780002F7061636B616765732F74692F73797362696F732F66616D696C792F61726D2F55
:2007A0006D332F4877692E633A333835290048776920616C726561647920646566696E65F9
:2007C000643A20696E7472232025642028433A2F74692F73696D706C656C696E6B5F636375
:2007E000313378785F6363323678785F73646B5F355F34305F30305F34302F6B65726E656A
:200800006C2F746972746F73372F7061636B616765732F74692F73797362696F732F6661B6
:200820006D696C792F61726D2F6D332F4877692E633A33393329006E6F204953522C206935
:2008400064203D2025642C207063203D203078253038782028433A2F74692F73696D706CC0
:20086000656C696E6B5F6363313378785F6363323678785F73646B5F355F34305F30305F59
:2008800034302F6B65726E656C2F746972746F73372F7061636B616765732F74692F7379A4
:2008A0007362696F732F66616D696C792F61726D2F6D332F4877692E633A31313033290019
:2008C0006E6F204953522C206964203D2025642C207063203D203078253038782028433A00
:2008E0002F74692F73696D706C656C696E6B5F6363313378785F6363323678785F73646BEE
:200900005F355F34305F30305F34302F6B65726E656C2F746972746F73372F7061636B6114
:200920006765732F74692F73797362696F732F66616D696C792F61726D2F6D332F487769EB
:200940002E633A3135303029006F7574206F66206D656D6F72793A20686561703D307825D5
:20096000782C2073697A653D25752028433A2F74692F73696D706C656C696E6B5F63633193
:200980003378785F6363323678785F73646B5F355F34305F30305F34302F6B65726E656C8D
:2009A0002F746972746F73372F7061636B616765732F74692F73797362696F732F72756EF3
:2009C00074696D652F4D656D6F72792E633A373829004275732D6661756C743A2025732CCC
:2009E00020616464726573733A203078253038782028433A2F74692F73696D706C656C698B
:200A00006E6B5F6363313378785F6363323678785F73646B5F355F34305F30305F34302F5E
:200A20006B65726E656C2F746972746F73372F7061636B616765732F74692F737973626957
:200A40006F732F66616D696C792F61726D2F6D332F4877692E633A3133383229004D656D8D
:200A60002D6661756C743A2025732C2061646472657373733A203078253038782028433ACA
:200A80002F74692F73696D706C656C696E6B5F6363313378785F6363323678785F73646B4C
:200AA0005F355F34305F30305F34302F6B65726E656C2F746972746F73372F7061636B6173
:200AC0006765732F74692F73797362696F732F66616D696C792F61726D2F6D332F4877694A
:200AE0002E633A313334382900686172647761726520657863657074696F6E206964203DAB
:200B00002025642C207063203D203078253038782028433A2F74692F73696D706C656C6984
:200B20006E6B5F6363313378785F6363323678785F73646B5F355F34305F30305F34302F3D
:200B40006B65726E656C2F746972746F73372F7061636B616765732F74692F737973626936
:200B60006F732F66616D696C792F61726D2F6D332F4877692E633A31313030290000000097
:200B800048530020044F0020E8520020784F00205843002048510020505300201452002029
:200BA000F85200206C5000204820000084220000EC220000A02200009222000008530020E2
:200BC00074420020784200207C4200208042002084420020884200208C42002090420020F5
:200BE0009442002018530020404F0020C052002098500020221C0000B01B0000941C0000D2
:200C0000061D0000781D0000A4210000C8220000BC220000855300203453002090430020FD
:200C200030520020144300207D5300207E530020AC4F0020D4520020A43F0020984200205C
:200C4000A819000029170000000000000000000074220000BC4B002074530020705300200C
:200C60009C420020A04200206453002008200000805200203C4D0020C44E0020C41E0000C6
:200C8000B4430020585300205C530020102300005B2300004042002030490020184400203B
:200CA000014A031049480310D54903101547031075C400005D49031081470310A1460310CB
:200CC0009548031045450310254A031021440310ED47031099490310E14803102149031098
:200CE0005553031089520310CD520310655003108D4E031075C600002DF300000100010006
:200D0000895F000059510310ED50031005BC0000CD4B03102952031011530310A9550310DC
:200D20007555031069530310DD55031035550310CDC5000021540310855C03100D560310A1
:200D40004D5D0310A9640310B55B03106D570310E5610310095E0310C558031085600310C1
:200D600071610310B16203109963031055630310FD600310B15E031001B60000D55A031003
:200D8000D559031009630310D963031019640310555F0310C56403104D6203107164031007
:200DA0008D64031055640310E16403102975031079720310A16B0310F57203109D7403109F
:200DC000797403102D74031061730310FD7303105574031015750310D96C0310FD740310A0
:200DE00065880000E17403103D7503100DC10000F9640310CD6803102D710310C17403105A
:200E0000F56E0310B973031029670310056E0310C56F031035D70000A1770310797D03106D
:200E20003D7E031049750310157E0310357D031099760310997C0310257B031071780310AF
:200E4000B57D0310ED7C0310857E03102D790310B97A0310917B0310B1790310ED7B0310E5
:200E6000E97D0310617E0310357A0310D57E0310457C0310A57E0310BD7E0310EDA80000F2
:200E8000D9800310E97E031049830310898403108D8103107D820310E58403102B840310FC
:200EA000C5830310918703106188031045880310F1850310B18803107D880310C98803107F
:200EC0001D870310A186031001850310E188031099880310F987031035BE0000359C03106E
:200EE000819D0310E99A0310359B0310C19B0310419A0310F18803101D8C0310618F0310A0
:200F0000F1940310919E0310C19E03103D9E0310699E0310259E0310619D03100D9E0310D8
:200F2000819B0310ED93031055990310C9970310D9980310BD950310959C0310C19D0310DD
:200F4000A59E03107D9E0310C991031049DB0000699C0310DD9D031095900310FD9B0310F4
:200F6000CD990310158E0310019D0310E19C0310219D0310419D0310BD9C0310F59D03102E
:200F8000A19D031055980310E1920310999A0310B99E0310559E03103D3F0100EB5D0100FE
:200FA00039A20310A158010069A1031075A20310C59E0310B9A10310F9A1031015A10310A9
:200FC0009DA20310716B01000BF5000089B70000B13401008D6A0100853F000031A9031013
:200FE000ADA20310D9770000B9A8031099A5031071A5000039A803106DA9031001AE000098
:201000006DAC031099B1031009AF031059B1031001B103109DA903108DE400008DD900006A
:201020007D29010079CD0000D9620000051C01000DC9000035690000199C00008DA400000C
:20104000A1AA0000F1B9031075BA031081BB0310993A0100C9E900005D0E0100E5B200006E
:2010600091360100F10A010041460100550B0100613A01009D520100355C0100FD0D01009A
:2010800019280100414001002D20010095FF000041610100B5F20000952A010071610100CD
:2010A0003D7A05000D6600003561000075760000E9C60310B9540000C19300008D6401006B
:2010C000913C0100D15D0100DD0F0100436D0100055E0100796401002B6E010073FD000029
:2010E00031DF0000F9DC00003C202020202020434F4E4649475552452020202020203E006F
:201100003C2020202020205345542050414E49442020202020203E003C20202020534554B5
:20112000204348414E204D41534B202020203E003C2020202020534554204E574B204B45E3
:201140005920202020203E003C2020202020204241434B2020202020203E00C03C202020F1
:201160004E4554574F524B20414354494F4E532020203E003C20202020202020464F524D26
:20118000204E574B2020202020203E003C202020202020204F50454E204E574B2020202063
:2011A00020203E003C20202020202020434C4F5345204E574B20202020203E003C20202095
:2011C0002020202020204150502020202020202020203E003C202020202053454C45435474
:2011E0002053454E534F522020203E003C20534554205245504F525420494E5445525641DA
:201200004C203E003C202020202053454E4420544F47474C4520202020203E003C2053456A
:201220004E44204449534153534F43494154494F4E203E003C202053454E44205459504579
:20124000205245515545535420203E0020544920436F6C6C6563746F722000C03C202020C7
:2012600020202048454C502020202020203E00C05D40002189400021954000213B410021EC
:20128000074C657900F009F861796940490703D50121044A8903116070BD70B50249084728
:2012A00080030021081104402D59000000F00AF800480047577F000000F00AF800480047CF
:2012C0001B880000806B0C490007000F48717047094A0A4918235079CB56497EC018814278
:2012E00001DD084602E00F2800DD0F20D189090909010143D1817047E0020021880000212E
:201300000122274B02212548184710B5254880472548406A00280DD124490A200856002816
:2013200009DA401C07D008462038406A2049884200D1804710BDFFF7E3FF10BD00211E4B80
:201340001C4A0846184701201C49400208601C48FB220178114001701248EC38004710B504
:201360001849884711492039012807D0020404D50020088514484862012010BD4A6A094B02
:20138000EC3B9A4201D1114A05E007494A6A104B9A42F2D10F4A4A6210BD0000060800005A
:2013A0009F060000A1920200080100215401002163920200E7400021B5B4020080E100E0C8
:2013C00080030021F7960200DD4000212341002169950200194100212A201B1424201B14B0
:2013E00024201B1400000000E4FEFFFFFFFFFFFF48FFFFFFFFFFFFFF180200000000000043
:20140000A266FEFFFFFFFFFF7DFBFFFFFFFFFFFF62AC0000000000008E21FBFFFFFFFFFFA6
:2014200015F2FFFFFFFFFFFFAEF2FFFFFFFFFFFF5FFE0300000000003E82FFFFFFFFFFFFF7
:201440006D38FEFFFFFFFFFF2A201B1424201B1424201B1400000000E4FEFFFFFFFFFFFFB3
:2014600048FFFFFFFFFFFFFF1802000000000000A266FEFFFFFFFFFF7DFBFFFFFFFFFFFF9E
:2014800062AC0000000000008E21FBFFFFFFFFFF15F2FFFFFFFFFFFFAEF2FFFFFFFFFFFFFE
:2014A0005FFE0300000000003E82FFFFFFFFFFFF6D38FEFFFFFFFFFF2C2C1B1400000000ED
:2014C0000000000000000000F71F0000000000000EF6FFFFFFFFFFFF2EFFFFFFFFFFFFFFD1
:2014E0005E66FEFFFFFFFFFF0000000000000000000000000000000000000000000000002F
:201500000000000000000000000000000000000000000000000000000000000000000000CB
:201520000000000000000000002020202020202020202828282828202020202020202020A3
:20154000202020202020202020881010101010101010101010101010104444444444444417
:20156000444444101010101010104141414141410101010101010101010101010101010199
:2015800001010101101010101010424242424242020202020202020202020202020202023B
:2015A0000202020210101010200000000000000000000000000000000000000000000000C3
:2015C00000000000000000000000000000000000000000000000000000000000000000000B
:2015E0000000000000000000000000000000000000000000000000000000000000000000EB
:201600000000000000000000000000000000000000000000000000000000000000000000CA
:201620000000000000000000000097B92EE5725CCB5DCAE473B82F0196BA2D03945FC8E627
:2016400071E7705EC90295BB2CE3745ACD0691BF28BE2907905BCCE27559CEE077BC2B05BB
:20166000920493BD2AE17658CF51C6E87FB4230D9A0C9BB522E97E50C7EB7C52C50E99B708
:2016800020B6210F9853C4EA7DB2250B9C57C0EE79EF7856C10A9DB324089FB126ED7A54FD
:2016A000C355C2EC7BB027099EA2351B8C47D0FE69FF6846D11A8DA334188FA136FD6A444A
:2016C000D345D2FC6BA037198E41D6F86FA4331D8A1C8BA532F96E40D7FB6C42D51E89A777
:2016E00030A6311F8843D4FA6DF3644ADD1681AF38AE3917804BDCF26549DEF067AC3B154C
:20170000821483AD3AF16648DF1087A93EF5624CDB4DDAF463A83F1186AA3D13844FD8F6B8
:2017200061F7604ED91285AB3C0001363601010001020100010301000104010606080400B6
:20174000000C0100340D01000F10040101140100FF1608000020020000220100FF2301007B
:2017600001240100FE250100082602000028010001290100012A0200002C01000F2E020002
:20178000003001000131010008320200FF34010007350102FF36010000370100013801008E
:2017A00001390100FF3A01000F3C0200FF3E01010F3F0100014001041F41010001420100EE
:2017C000FF43010080440800004E0100084F01000F50010001510100FF52010000530100FA
:2017E0000054010001580400005C0400006004000064040000680400006C040000700400BB
:201800000074040000780400007C040000800100FF810100018201000183010202840100C0
:20182000010008FF1C44002087530020885300201D4400207F5300201E4400201F440020B3
:201840007D6B0100C952000099600100BD4A0100914A010065120100C1120100DD1F01005D
:201860002D2C0100794E0100B1450100814501008B6C0100A1640100E9540100713F01009B
:20188000315201006960010081600100C9560100E14501009DE500003DB50000EF4B010022
:2018A000011701009D0D0100596B0100656B010000000000A956010037F8000045E9000071
:2018C0005536010000000000A53F0100896B0100D13A0100F960010049FB0000CD360100F4
:2018E000556F0000895601005DE1000065240100032C00000000000000000000000000004D
:20190000000000000208000000000000000000000001010000005328C4430020030800000E
:201920000000000000000000000165090000000000000000012C000000000000000000000B
:201940000001001E0000000000000000022C0000000000000000000000000000000000003A
:2019600000000000000000000000000001280000000000000000000000010030000000000D
:20198000000000000003FF186400000000000000000000007856341200000000BAAB000050
:2019A0000000000100000000360001000600000000000000000F00000000000000000000DA
:2019C0000000000000000300FFFF00000403FFFF0000FFFF0F00E8030005401F0310000191
:2019E00001000000FF3F0F000800050B00000000000000000300010F00000000000000006E
:201A00000000000000000000000000000000000000000000000000000000000000000000C6
:201A20000000000000000000AD0000020000000000000000000000000000000000000000F7
:201A4000000000000000000000000000000000000000000000000000000000000000000086
:201A6000000000000000000000000000000000000000000000000000000000000000000066
:201A8000000000000000000000000000000000000000000000000000000000000000000046
:201AA00000000000000000000000000000000000000000000101010100000000C836002004
:201AC000010101C020000000360000000000000000000000000000000D6D0100414F0100E1
:201AE00000000000080000000400000001C046C00A000000000000C0000000000000000049
:201B00000600000000000000914F0100AF59010000C046C021670100E93B010000C046C09B
:201B20000600000000020000010000C001000000C32901000B2A010000010400003333331A
:201B4000333333333300000000000000000000000000000001000000000000000200000083
:201B600000000000033333333333333333030100000000000000000000000000000000F8CE
:201B8000FF0700000000000000000000000000464854657374000000000000000000000011
:201BA000000000000000000000000000000000000101710101010101110101013101010165
:201BC000010180010001100161013B001400630173017201620143010001130106013D0173
:201BE000350004011201000100010001000104010401330133013C01440132013600000136
:201C00000001650100013500810100010501820183010001660100010001080109010A010F
:201C20000B010300710030016000110070003102200350048000070010006100000014005C
:201C4000630073007200620043000000130006000000000004001200000000000000000068
:201C600004000400370037003C02440000000000000000006500000035008100000005004C
:201C8000000083000000660000000000080009000A000B00030271023001600211027002A5
:201CA00001020202020280020002100261023A004100630273027202620243020002130297
:201CC00038000002000204021202000200020002000204020402370037003C0244020002A6
:201CE0003900000200026502000235028102000205028202830200026602000200020802FA
:201D000009020A020B020103710301030103010301030103220302030103000310030003CC
:201D20000003000300030003000300034203000324030603000300030403120325032303A9
:201D4000250323030403040300030003000344030003000323030003650321003503810363
:201D600000030503000300030003000325032303080309030A030B030304710402046004E6
:201D8000110470040204020401040204000410046104000414046304730472046204430409
:201DA000000413040604000400040404120400040004000400045104640000040004000403
:201DC000440400040004000400046504000435048104640005040004830400046604000416
:201DE0000004080409040A040B040104835D01006363010019DE0000452E01002955010012
:201E00009DD30000C9F1000025540100495501001F4801004D480100413301004942010080
:201E2000195F0100991001009D22010061090100F51001006D660100C152010049620100BA
:201E4000D5EC0000D56A0100154B01004566010059660100895C010001380000318E0000D6
:201E6000000000000000000000000000795F01002D650100DDF60000F16401002B6D010034
:201E8000256D01004165010000000000AD6C010069F6000089F90000555B010069DC000017
:201EA0006F67010055A60000BD4A0000F5E20000095601000000000051160100015B01004D
:201EC00039CC000000000200000002000200020000003200040001000000020000000000BC
:201EE000000000000500010000000700060001000000030007000800000000000F000100AC
:201F00000100FF0010000800000000001800080000000000220002000000000000B0004075
:201F200034000000FF0000000851002020000000285100202000000000000000020000001A
:201F400003000000FF000000FF0000006018002050180020400000002000000014000000EC
:201F600014000000130000001500000016000000000200008F0000008F0001008F0002005D
:201F80008F000300900000018F00010190000002900000038F0001048F0000058F000804A5
:201FA0008F0000048A000006510000007F0001003F0004003F0002003F0001007F000200E8
:201FC0008F0002048F00010215640100ED670100516A0100DD670100956C0100FB6C0100A0
:201FE000F56C0100000000000000000000000000000000000000000000000000000000007F
:20200000C5690100B7690100C003000080070000000F0000001E0000003C00000078000045
:2020200000F0000000E0010000C003000080070000000F0000001E0000003C0000007800A4
:202040000000F0000000F0000000000002000000020000000A00000002000000020001008D
:20206000000000000000000000000000000000000000000000000000000000000E00000052
:20208000A56C0100196D0100D1430100C95A0100091B0100E55A010055EC00001D2B01007F
:2020A000BD6A0100BD8400000303001B5B324A1B5B32301B5B3F32356C001B5B324A1B5BF7
:2020C00032301B5B3F32356C00000000000000000000000000000000000000000000000016
:2020E0000000000000000000000000000000000000000000000000000000000000000000E0
:20210000000000000100000000C2010003000000000000004572726F722072616973656456
:202120003A2000C0417373657274206661696C65643A2000FFFFFFFF000000000000000038
:20214000000000003A013A0100000000000000000000000000000000000000000000000009
:2021600000000000000000000000000000000000000000004E42434E0000F8FF0700000040
:202180000000000000000000000000000100000040420F00010000000000000000000000AC
:2021A0000000000000000500BD00B700B100BC001C00300038000800380102000100010070
:2021C0001E030206070D0E00010001000102000102FF000005000000D0070000C800000009
:2021E000FF0000000000000000000000A5BF00009D5D01000101010000000000020000007C
:202200000000000000000000FFFFFFFF00000000001610160E18151C02120324185803027F
:20222000100258000200000000000000FFFFFFFF000000000D010000010000000E01000018
:20224000010000007C4E002034220000A04E00203C220000B03E0020444C0020C04C0020E7
:20226000FFFFFFFF044B00205F230000604B00206123000088B22400881300001000000019
:202280000000000100A6AAACA4A9A9A399B19ABCB6A8313118191A22311C1E203131343189
:2022A000313117191A21241B1D1F313133310000FF00000000000000000100000C0E020BE9
:2022C000040B0A070800110F000120181A18182C34041E00802000006853002038230000DB
:2022E000FF000100000000000000000002040201010101090200000000BE040A00BE020833
:202300000102000302000103FFFFFFFFFFFFFFFF000408100004081068520020D1210000B5
:20232000E803000000006400384600201C1F0000685100204023000000E0040000800000D5
:20234000000002400A29FF00000602868200081018200001020304002040600001050906CA
:0C2360000107010000000000615F0100A7
:20236C002DE9F04FBE4C2189A06BADF1240DA1464A0825D3D9F8481081420ED199F80000E1
:20238C00012806D10EF04AFBADF800000FF088FC01E010F0F3F9D9F83800D9F84410814208
:2023AC0005D199F8020080F0010013F0A7F90020C9F83800012109F1080013F0E2FF2189C9
:2023CC008808C0F0748109F10800022113F0D9FFAC4C2078012840F06A81206A94F8408012
:2023EC00A769850004F1400BB8F11B0F05EBC0053D4405F1100520D15846BAA1042212F0D6
:20240C0059FF00282DD05846BFA1042212F052FF20B35846C1A1042212F04CFFD8B158464F
:20242C00BFA1042212F046FF90B15846C2A1052212F040FF002840F02F81B8F1400F12DD2A
:20244C00B8F15B0FBCBF08F120005FFA80F80AE04FF0FD0807E04FF0FC0804E04FF0FB087A
:20246C0001E04FF0FA08287995F805A0022864D0032840F0C28004F5F070002140F2A512FD
:20248C000CF09CFE04F2822704F54176049704F5007005962B7903900027032B46D16E7922
:2024AC006EB9B8F10D0F36D101206871A86803681BB1C08803A93A46984701272CE0B8F1AC
:2024CC001B0F32D0B8F17F0F2FD0B8F1FC0F08D0B8F1FD0F0FD1A9688888CB881B185B1E4D
:2024EC0004E0A9688888CB881B185B1C93FBF0F242439B1ACB80A86803683BB1C0883A46AA
:20250C00B8F10D0F08BF012203A99847B8F10D0F18BF01276F714FB105982968802211F000
:20252C00D7FD012005F026FF00E06F7168793E46504518BF4FF01B085DE004F5F0700021D6
:20254C0040F2A5120CF03AFE04F50070069004F5417608964FF0FF33ADF8003004F2822720
:20256C00ADF80230287907970026022843D16F7937B9B8F10D0F20D101206871FE201FE030
:20258C00B8F10D0F0BD0B8F11B0F16D16E71AB681BB1F92006A96A469847374608E03746DE
:2025AC0038466871AB681BB1FF2006A96A4698476770384605F0DEFE01266F79DFB1404631
:2025CC00AB6813B106A96A469847012005F0D2FEBDF902000126B0F1FF3F0AD0BDF9001096
:2025EC00B1F1FF3F05D06085667021850FF0B8FD01E000206070012E4ED0A269216A4046CB
:20260C000D382FD00E3820D0643816D07D38012842D8137A012B3FD0B8F1FD0F05D05818F8
:20262C00401CB0FBF3F1594305E0127A5018401EB0FBF2F15143401A2AE0D768606A002F12
:20264C0008BF107A09D0A76122E0BAF1000F01D06879F0B1E069A061007A401E18E0C0460D
:20266C0048380020880000EBC10080181430077857B1012F0DD147685FB1084639468847AE
:20268C0007E0C046F02700204068A061616200202062002005F06EFE5846002105220CF099
:2026AC008DFDA06859460522002312F0C7FFB9F80A00B9F808100246C9083AD3ADF800007C
:2026CC0002218DF8081099F80300D9F85C1009F1080438B3401E1DD0401E05D0401E15D0AB
:2026EC0023E0C0461B5B4100BDF800000DF074FBD8B1D9F84C00D9F85410BDF8003010A27B
:20270C0006F070FA11E0C0461B5B4200684611F0A5F80AE0684608F007F806E01B5B430024
:20272C001B5B440010460FF0BBFA2046042113F028FE09B0BDE8F08F1B0000000000C04617
:20274C004469736173736F63696174652053656E736F72204572726F72202D2041646472E5
:20276C003D307825303478206E6F7420666F756E640070472DE9F04FBF4D2861BF49296385
:20278C00BFA10978ADF16C0D4FF0000809A840220170BCA109A88DF8648011F099FCDC4C35
:2027AC004FF0030B20788DF864B0012834D160684FF0FF3113F0E7FFA06B01282CD80DF00C
:2027CC0015F938BB062610F0B7FB071C01D1761EF9D1D4F838909DF8643004EB8906B76465
:2027EC008BB1A06B342212FB03FA04EB80000365504612F0ADF86036306058B130684146C4
:20280C0052460CF0DBFC09F10100A063606814F0F0FA02E0012700E04746EF6404A813F014
:20282C0007FE404604A908F08BFCDFF8D092A864494614F05FFA012004A908F081FC686495
:20284C004068007813F0E6F800283BD1286B002838D00269B2B307278DF808700120ADF8B3
:20286C000A0002AEADF80C8096E80300904704202E6B8DF8087002ABADF80A003269ADF8B3
:20288C000C8093E80300904746468DF808700520ADF80A00286B0269ADF80C6002AB93E8B7
:2028AC0003009047761C642EF4DB8DF808702F6B062002AEADF80A003A69ADF80C8096E8D1
:2028CC0003009047686C494614F014FA684613F03FFF0120694606F091FFE86369464046D8
:2028EC0006F08CFF4FF4FA715A4628640EF0DDFFE86C814612F006FA002840F0A380804E31
:20290C003068002800F09E80E06A4FF0FF3113F03AFF4FF0FF3004F1800C4246D4F82CE099
:20292C001A90614640464F683FB90F682FB91A9BB3F1FF3F08BF1A9003E00B68B3427ED005
:20294C00521C401C08310428EDDB1A98B0F1FF3F75D0C00000EB0C01C1F80490002A4CF82B
:20296C00006062DDDFF89CC1DFF89CA1012A4FF0010E0FF2201924D1614681F8148081F88F
:20298C001580E7698F6143460B613868F960E7690860397A0C2011FB007181F808E0397A40
:2029AC0011FB007181F80980E1690F7A4B4617FB00114B60E1690746087A534610FB071185
:2029CC00CB60900061460C23474600EBC200F16040189C460761377A866117FB036787F89A
:2029EC0008E0377A80F8148017FB0C6787F80980377A80F815804B4617FB0C677B60337A3D
:202A0C0080F82180574613FB0C630226DF6026A7C7613E4F80F820600E46012A476202D09C
:202A2C00307A401C834686F808B0E661A661307A401E2062404605F09DFCE06A00E07046B9
:202A4C0014F0D7F905F150021CA0414606F0E0FF05F154021BA0012106F0DAFF05F15802EE
:202A6C001CA0414606F0D4FFE86C296D20A206F0B9F81BB0BDE8F08F483800209C2100207F
:202A8C0000C046C031353420436F6C6C6563746F7200C0463C2020202020204241434B20D0
:202AAC0020202020203E00C03C20202020202048454C502020202020203E00C053746174ED
:202ACC00757300C04465766963652053746174757300C0464E756D626572206F66204A6F11
:202AEC00696E6564204465766963657300C046C057616974696E672E2E2E00C069570100A3
:202B0C0090410020304E002051640100F9960000F0270020F0B50446BC480768ADF1440D4D
:202B2C00002F00F0B1812078401E122800F2AC81DFE810F06E0157013D01280120010901C9
:202B4C00F600E800C800B700920067005D004C00AA01340026001C0013007B6C002B00F034
:202B6C0093810020A21C014698478DE1F86B002800F08A81684621460BF08EF9F96B81E1E0
:202B8C00386C002800F080816846002101220CF015FB60788DF80000396C73E1F86A00288E
:202BAC0000F07281684600210E220CF007FBA11C684613F03BFAA67BA1890022ADF80A105A
:202BCC0006B101228DF80C20F96A5CE1B86B002800F05A816846002102220CF0EFFAA678B2
:202BEC008DF8016060788DF80000B96B4AE1786B002800F04981684621460BF04DF9796B38
:202C0C0040E1386B08B36846002114220CF0D6FAA6788DF80160A5680195A389ADF80830A8
:202C2C0060788DF80000A27B8DF80A20E17B8DF80B10267C8DF80C6094F911508DF80D5000
:202C4C0063690493396B684688476068002800F01B8112F073FC17E1B86A002800F0148130
:202C6C006846002124220CF0A9FA6078A11C8DF800000DF1020013F0D9F904F10C0103A8F8
:202C8C0013F0D4F9267EE08A04F119018DF818600B22ADF816000DF119000AF079FBB96AAE
:202CAC00F0E0786A002800F0EF806846002102220CF084FAA6788DF8016060788DF8000001
:202CCC00796ADFE0386A002800F0DE806846002112220CF073FA6688607825796379ADF8DD
:202CEC000260E11D8DF800000B228DF80450A6798DF805300DF107008DF806600AF048FBD7
:202D0C00396ABFE0F869002800F0BE806846002101220CF053FA60788DF80000F969B1E023
:202D2C00B86910B120460EF091FFA07820B9A069002800F0A98003E0A069002800F0A4804E
:202D4C0010F07AF8A0E07869002800F09D806846002113220CF032FA6D46A01C01684068B3
:202D6C0029600B22686004F10A0102A80AF010FB796987E03869002800F08680204609F0B3
:202D8C00C9FB81E0F86800287ED0684600210E220CF014FA6078A11C8DF800000DF1020009
:202DAC0013F044F9A089ADF80C00F9686AE0B868002869D06846002114220CF0FFF9A01C0C
:202DCC0001686D46296040686860A07A0B2204F10B018DF808000DF109000AF0D9FAB96808
:202DEC0050E0786800284FD06846002110220CF0E5F960786688211D8DF800000B22ADF83A
:202E0C00026001A80AF0C4FA79683BE0184200203868C8B36846002119220CF0CFF9A01CC8
:202E2C0001686D46296040686860A67A0622002102A80CF0C3F9700824BF01208DF808009D
:202E4C00B00824BF01208DF80900F00824BF01208DF80A00300924BF01208DF80B00F009CB
:202E6C0024BF01208DF80C0036F07F001CBF01208DF80D0004F10B010B220DF10E000AF04A
:202E8C0087FA39686846884711B0F0BD70B50546EC6B00217022ADF1980D09A80CF08EF928
:202EAC0014F8010B8DF8240021680DF1250001606168083441602078617813F001FFA41C5E
:202ECC00ADF82E0041080FD32078617813F0F8FEA41CADF830002078617813F0F1FEADF8E1
:202EEC003200BDF82E00A41C810808D32078617813F0E6FEADF83400BDF82E00A41CC108F0
:202F0C000FD32078617813F0DBFEA41CADF836002078617813F0D4FEADF83800BDF82E00D5
:202F2C00A41C0109C0F0AA802078617813F0C8FEA41CADF83A002078617813F0C1FEA61C13
:202F4C00ADF83C003078717813F0BAFEB31CADF83E001878597813F0B3FE9A1CADF84000D6
:202F6C001078517813F0ACFE961CADF842003078717813F0A5FEB41CADF84400207861784D
:202F8C0013F09EFEA41CADF846006178207813F097FEA61CADF848003078717813F090FE01
:202FAC00B31CADF84A001878597813F089FE9A1CADF84C001078517813F082FE961CADF88A
:202FCC004E003078717813F07BFEB31CADF850001878597813F074FE9A1CADF852001078BB
:202FEC00517813F06DFE961CADF854003078717813F066FEB41CADF856002078617813F0AC
:20300C005FFEA41CADF858006178207813F058FEA61CADF85A003078717813F051FEB31C4D
:20302C00ADF85C001878597813F04AFE9A1CADF85E001078517813F043FE961CADF86000D2
:20304C003078717813F03CFEB31CADF862001878597813F035FE9A1CADF864001078517819
:20306C0013F02EFE961CADF866003078717813F027FEADF86800BDF82E00B41C410910D3B2
:20308C0020786178A278E37813F0B9FC241D1B906178A2782078E37813F0B1FC1C90BDF8A3
:2030AC002E00000A28D3241D1DA9062014F8012B401E01F8012BF9D12078617813F000FEAD
:2030CC00A41CADF87A002078617813F0F9FDA41CADF87C0014F8010B8DF87E00002007E098
:2030EC0014F8012B0DEB0001401CC0B281F87F209DF87E108142F3DC4049886D404C401C92
:20310C00886595F92060E06B12F028FEBDF82E20E06C616D120A06D2BDF9302000920196F5
:20312C002B8818A21DE09DF878209DF8776000929DF8763001969DF8756002939DF87430E4
:20314C000396BDF87C600493BDF87A3005969DF87E6006939DF8793007969DF87F6013A298
:20316C00089605F03FFDE66C11F06CFEA16D034621A2304605F036FD28460DF0C9FE26B0F7
:20318C0070BDC04653656E736F72202D20416464723D3078253034782C2054656D703D2564
:2031AC00642C20525353493D256400C0414444523A2532782532782532782532782532782C
:2031CC002532782C20555549443A3078253034782C204D616E4661633A3078253034782C2D
:2031EC00204C656E6774683A25642C20446174613A30782530327800257800C0EC3D002031
:20320C00483800202DE9F04F09AFADF13C0D08900A92387809911E468DF81800101C08BF9C
:20322C00002000F07A81017800274FF0010B401C4FF0FF39B846DA460A9066E1252940F03C
:20324C005B810178401C0A902D2918BF8DF8058004D101788DF805B0401C0A9030291CBF2E
:20326C00C446424604D10178DC46401C62460A902A29CDF800804D4618D13068CDF8089099
:20328C000A9BCDF810C0C01C20F00300001D306050F8044C1978002C009403F101000A90D4
:2032AC0019D58DF805A06442009414E044460AE00A9B600000EBC4004018A0F130041978E6
:2032CC000094581C0A90302901DB3A29F0DBCDF80890CDF810C02E2929D10178401C2A2972
:2032EC000A9011D13168CDF80880C91C21F00301091D316051F8045C002D48BF45460178CE
:20330C002B46401C0A9011E0434645460AE0680000EBC5004018A0F130050A9801782B4689
:20332C00401C0A90302901DB3A29F0DB02930AB1224604926C2904D04C2918BF8DF804801C
:20334C0004D101788DF804A0401C0A900BA8CDF80C800FAB07906429059300F084806929F4
:20336C0000F081809DF81830752966D0782964D06F2962D070294BD063293BD0732920D029
:20338C000A98401E0A900998012818D9B5F1FF3F03D0A84288BF6D1C05D86FF0004181421B
:2033AC0094BF0D1C099D02950AA932466B4612F064FD09993F18091A0398099168E04546E5
:2033CC0016E03068C01C20F00300001D306050F8040C012B014608B951A00146079113F058
:2033EC003FF90390B5F1FF3F53D0A84251D9039528464EE03068C01C20F00300001D306073
:20340C0010F8040C8DF82C005D460395584640E0082035680490E81C20F00300001D3060C1
:20342C0050F8041C082210230FA80CF09DFC401E079040210170079827E03068C01C20F07E
:20344C000300001D306050F8044C752908BF0A2303D078290CBF10230823AA42BCBF2A1C3C
:20346C00049221460DE03068C01C20F00300001D306050F8041CAA42BCBF2A1C04926FF018
:20348C0009030FA80CF070FC07900599081A0390009C9DF80550211A241A00915DB906E07F
:2034AC0008A8202109AA11F071FB7F1C009C641E0094F5D50398401EB0F1FF3F03900FD18D
:2034CC009DF8050001281CD10098401E009018D408A8202109AA11F059FB00987F1CF4E7B7
:2034EC000798017809AA08A811F050FB0798401C079003987F1CDEE708A809AA11F046FBC7
:20350C007F1C0A980178401C0A9000297FF496AE089808B14146017038460FB0BDE8F08F61
:20352C00286E756C6C2900002DE9F04FB04E4FF0000A8146ADF1140D57467069CDF808A06E
:20354C00CDF80CA010B1804700B90B27F078002F40F09B8096F8314096F832700146B9F179
:20356C00000FA1F101011FFA81F818BF012155464FF0F80B86F83F1022E0AF421ED0F0682E
:20358C0069036A46042313F05CFB009911F4403F1CBF0AF101005FFA80FA01F0FF017C2925
:2035AC0018BF782909D1284606215A4612F078FA0C2015FB006080F848B0F0786D1CEDB268
:2035CC00A842DADC401E504503D196F8350000285BD0B8F1000F06F1300500F0CF800398A4
:2035EC004FF4005B019096F83F30F06813B9012186F83F106A466103042313F022FBB9F17B
:20360C00000F05D00099F07811F4403F40F09B80009800F0FF00702803D02046702110F001
:20362C00B9FEF06879036A46042313F00AFB009800F0FF00FE2803D03846FE2110F0AAFE4F
:20364C0038460621FE2212F02BFAB800FE2300EBC700FF2186F83C70A200A6F840B0401914
:20366C0086F83D4000F1180A8AF80030019B86F83E1002EBC4004019A6F84430808BA6F851
:20368C00420000F03FFB102801D10020ADE0B9F1000F0CBF10214946B9F1000F07D0B6F879
:2036AC004000C0F50050814207DC01200390B6F84000C0F50050814201DD782100E07C21B5
:2036CC00384610F067FE06F009FD96F83F300446A8EB04000621FC221FFA80F8181B86F89A
:2036EC003F00384612F0DCF9FC208AF80000029A96F83210F078091996F83E400C278918B6
:20370C0091FBF0F24243891AC9B286F83210491C91FBF0F24243891A86F8311014FB0751AB
:20372C00898B102905D1611C91FBF0F24243891ACCB20198B9F1000F96F83270029019D0CC
:20374C000398B8B11AE096F83F30641C94FBF0F1A8F101024143A6F840B01FFA82F8581EBB
:20376C00641A029986F83F00E4B286F83D40481C80B20290B8F1000F7FF435AF7C2010F003
:20378C00C1F800240746FF2F1CD17E2010F0BAF80746FF2F16D196F831700C2017FB005069
:2037AC00807DFF280AD0F27896F832008018401E90FBF2F15143401AC7B203E038467E210A
:2037CC0010F0E8FD0C2086F8337017FB0050808BF08696F83200FE2110F0DCFDB6F8400022
:2037EC0086F83540C0F5005000B205B0BDE8F08F2C3F00202DE9F04FDFF84C9204460D4608
:20380C000020ADF1440D01461F460D9016460E9183460F91D9F808A0CDF840B00BF0D4F9EA
:20382C00262803D00BF0D0F9252825D1308843F6070181420ED040F60201814206D0B0F543
:20384C00C15F19D1F07B022816DD43E0F07B022812DD3FE096F8240002280DDD307C0F285B
:20386C0038D13169C1F31421B1F5803F04D00F2830D1B1F5A02F2DD1002D2BD056B32878FB
:20388C004FF0010808FA00F01AEA000F22D03046594613F0A8FA65606C4DA660A86980B15D
:2038AC0010A800900DA90EAA0FAB304606F02CFA0E980B214FF6FF72502311F04BFAFF2892
:2038CC0008D013F0D7F882462878022804DB504613F046FA5C46B3E000286DD103F0A6FCB8
:2038EC005B495C4E086840F00200086009A8C9F8006012F0CDFF584E5849707809AA0B9047
:20390C0005F1E0000FF011F8554905F58E7009AA0FF00BF809A812F09BFF192109AB30788F
:20392C00504A0A9005F160000FF0D0FF4E4A05F17C001A2109AB0FF0C9FF4C495A4605F534
:20394C00AC70134610F00AFA49495A4605F5CE70134610F003FA47480068C0F3814030B1D6
:20396C00454A05F1340004215B4611F02FFAB078012802D10E2008F0FBF905F1A00012F0BC
:20398C006BFD05F1980012F067FD594685F8241085F83010072085F84002A960E962374BF6
:2039AC001970E960052685F83110354A2E610420AA6211F0DDFB287805EB8001401CC1F803
:2039CC00B840C0B22870504613F0CAF91FB901A812F088FD01AF38684FF4FA76E6602060AC
:2039EC00B8694146A062388A61766083F8692063786800280CBF40F6C410594620616061F3
:203A0C00204E266266622176E661F86800B12062786900B16062B86800B1E061C82204F126
:203A2C00380059460BF0CAFB04F15000594611F0F5FD15495A4604F1B800134610F08EF981
:203A4C00204611B0BDE8F08FCC210840782D002000200940110000E0E0220000915F0100C8
:203A6C0019B200005111010091040100895501001D5B0100B44F0050E922010079530020D3
:203A8C00F99F0000A3BF00001F6D01002DE9F04F0668ADF11C0D0F46141C04904068DDF873
:203AAC0040A00590184608BF6FF0090800F02681002814BF99460DF1040912F0DBFF8346CF
:203ACC003079400838BF6FF00E0804D396F8280118B16FF0080858460EE1C6F82C71F07966
:203AEC00C6F830410123C6F8384100F0EF00F071002586F82831F079C6F8405100F0BF008D
:203B0C00F0710598756313F009F8584613F028F912F00BFC88BBF06B400906D3B06B84464F
:203B2C00336C049810212A46E047D6F8402105982146D2190FF03AFFD6F84011241A01447E
:203B4C00C6F84011F1D1059812F0CAFE0028FAD0059812F0D7FFF06B800906D3B06B044698
:203B6C00336C049820212A46A047D6F8400186F82851A846C9F80000C0E0B479A84674B9C9
:203B8C00BAF1FF3F0BD0BAF1000F08D006F5CA745146204613F019F9204613F018F912F0FC
:203BAC0069FF04460FE0D6F83801002800F09680204613F0D5F850464FF0FF3112F0E3FD06
:203BCC0012F058FF0446D6F83801002800F08680F07941097CD2C00977D206F5A27A414660
:203BEC00504612F0D0FD204613F0BAF806F5887B584602A910F082F9044612F03BFF03905E
:203C0C00D6F83801A04238BF041CD6F8401102982246C91909F0BCFB584621460FF0A9FB3D
:203C2C00D6F84001D6F838110019091BC6F840010398C6F8381113F093F8002C03DDD6F80C
:203C4C0038010028D4D112F015FF0446D6F8400128B1059812F062FF049808F0AFFBB079A3
:203C6C0002282CD001289ED1D6F83801002835D186F82851204613F073F8307A40F0080098
:203C8C003072C10817D2444613E0307A00F0F700307240F0040030720094D6F8D8C1D6F875
:203CAC004021336C04983946E047307A00F0FB0030720009E9D212F0DDFE04460EE0D6F8D8
:203CCC00400108B96FF00F0808E06FF00C0805E0F0796FF00D0800F0EF00F071B0790128B1
:203CEC0005D086F8285106F5CA7013F072F8D6F84001C9F80000204613F032F8404607B0AA
:203D0C00BDE8F08F2DE9F04F994E96F83D0096F83F10F37896F83C800027ADF12C0D0918BB
:203D2C00491E91FBF3F296F83D4077705A43891AC9B20891810001EBC0018919B1F84C0094
:203D4C0096F83C10ADF81C00880000EBC1008019B0F84C50CDF8248006A80FF0C1FB7078F1
:203D6C000A97A04500F0A180B946CB46BBF1010F00F09080BDF81C10162966DD002840F019
:203D8C009580BDF81C0001AAC01F81B2ADF81C10204609F029F9BDF81210BDF81C3088467C
:203DAC0008F1070008F1100287B29A4246D89DF80E00962842D19DF80F00420839D28008C4
:203DCC0037D3BDF81C0000230093A0EB08001FFA80FA9DF80D20BDF81C002346401A80B298
:203DEC0010F024F8F8B9E819B0F5005F15DCF068C5F188520AEB443A3B46D21B514602F59D
:203E0C00005212F01EFFED1909F10109ADB2B5F5005F08BF4FF0010B0BE0BDF81C004FF0A6
:203E2C00010BC01D2EE0BDF81C00401EADF81C0004E0BDF81C00A0EB080023E0204607A92E
:203E4C000CF024FD01281FD030E0F278B9F1000F07D0484BBDF81C70A10001EBC401C91810
:203E6C008F830899A14220D04249641C94FBF2F05043241AE4B2A00000EBC4004018808B1B
:203E8C004FF00009ADF81C0009997078A1427FF46DAF0AE0B9F1000F07D0364ABDF81C70D6
:203EAC00A10001EBC40189188F8320B1069812F021F8102059E0DDF824804FF6F0704FF49D
:203ECC000051C5EA0040C5EA0141E1FA40F01FFAA0F283B2102102F1885240460EF076FBC7
:203EEC00717808437070069812F004F8A0450FD1F278204F1019401E90FBF2F15143401A85
:203F0C00C4B2A00000EBC400C019808BADF81C00184FBDF81C00A6F840504FEA8801A6F865
:203F2C00440001EBC80186F83E40C9198D83B6F9422096F83D100123404610F033FF96F838
:203F4C003E10B6F944200223404610F02BFFBDF81C001628DCBF01200A90B5F5005F03DBD3
:203F6C000A9840F002000A900A980BB0BDE8F08F2C3F00205C3F00202DE9F04F0546ADF1C2
:203F8C00140D029112F076FD8A4C012D039000F0D280A346DBF80000D0F838038047002865
:203FAC0000F0C5800DF0A6FB002800F0C080DBF80410864C896960680F783C30002F40F005
:203FCC00B6807D4E0068357880477168F268AB00401AB0FBF3F7B0684FF00008C2469146ED
:203FEC00534611464F4573EB0A0301DA884206D84146524687428A4143DA024600E04146C4
:20400C001046EB172A46C01B71EB080112F0CEF807466F4800688846418B00694018643069
:20402C0081464FF00001B7EB090778EB0A08784271EB080125DA12F0C2FE024653464146FE
:20404C0038460BF059FE884607464FF00001784271EB080115DA11F08EFE0546306912F0A8
:20406C00B2FE10B1306912F0B4FE284612F073F93069394612F0A9FE306912F0A8FE002078
:20408C0000E001204D490870884698F8000000284DD1DBF80000D0F8940000780027394614
:2040AC000CF058FC00B101274FF0000A381C3CD1DBF8040080690078002836D16068404D65
:2040CC00436C286902216A4698479DF8000060B302984FF0010901281ED03A4F626828695C
:2040EC0097F9001011F1020F05D0926B97F90010904762682869344E96F9001011F1020F29
:20410C0005D0926B96F900109047626828696FF001013170397001E062682869DBF8041022
:20412C00896981F80090D169884788F800A0039812F016FE3AE02068D0F894000078012106
:20414C000CF008FC039812F00BFE606880690078012811D111F092FA60B1606880690178B1
:20416C00012909D10021029F0170012F04D011F0C9FF01E008F04AFE11F080FAB0B9606862
:20418C000C30C1680978022909D101680F7837B12068D0F84C058047241D20680C3001687A
:2041AC000F781FB9C16808780228FCD005B0BDE8F08FC04614010020A442002084530020E4
:2041CC00D0410020E0430020E1430020C8400020E04100202DE9F84F884C00906068C06801
:2041EC008B4601210170864800210170854801702068403001680D681E46174615B9D0F884
:20420C000C058047804ADFF80482DFF80492906E00214FF0E2453940354008BF002940F093
:20422C0085801546B5F89E10082200233A4013EA060708BF002A0BD118B14246508B401C91
:20424C0050834A4692F90010491E11701D20BBE04A4692F90030DFF8BCA142F201468E42CA
:20426C00A3F10103137002D0321D8A4216D118B14246508B401C508350460068826C009864
:20428C005946904750B1424602F116010088B5F89E30098842F60147874234D15E49481C1C
:2042AC000278B5F86600B0F5105F13D0AF6E42F60601814206D0002FC8D04246508B401CF3
:2042CC005083C3E7002F00F081804246508B401C50837BE0AB6F50460C3003604889062AF8
:2042EC000CD14A7A022802F101024A7206DB401E80B24881062002F0A3FC67E00EF0B2FC51
:20430C0008F0F8FF62E0491C361D88B29E42D08214BFE1201C2008F0FBF999F90000002886
:20432C0060D099F90000002862DC56E04A4692F900102768491E117007F1400118B14346E6
:20434C00588B401C58830868006843681878800939D23248304D06786A78832E36D1032A54
:20436C0080462DD104206E79D1F8947088F80000701CC0B2687197F8246086421EDBA8784A
:20438C0097F83170461CB742C4BF401CC7B2AF701888000905D3886F077817B10FF090F9C8
:2043AC006A78032A04D0052A10D006F0B7FC0DE0832088F8000011F095FF07E0E12003E0E6
:2043CC008521024641E7E92008F0A2F999F9000040B199F9000000280ADC2068D0F84C055B
:2043EC00804705E02068D0F858240020014690476068C06800210170BDE8F88F1401002018
:20440C00E4430020E3430020F43C0020E8500020E6430020CC400020CC42002086530020BF
:20442C00FEB5071C00F0AF80F96B002900F0AB80B7F84000002800F0A6800E78002017F1F8
:20444C00300103D097F83810052902D0002800F09A80387A03280AD1384610F0C3F94FF60C
:20446C00FF71814200F08F803880022139727B4C7B4DA06DB61E56D0B61E38D0761E7FD023
:20448C00F61E7AD0361F74D0701F7CD1B7F84000032878D1F86B42788178481E0A2807D84D
:2044AC00DFE800F01C1A18161412100E0C0A08C035A314E036A312E038A310E03AA30EE086
:2044CC003CA30CE03EA30AE040A308E042A306E044A304E046A302E048A300E049A30092C5
:2044EC000191E86C696D49A204F07CFBFEBDB7F84000012847D138460FF090FA78B14289B8
:20450C00510B0CD34EF6FF711140418141F40051418141F288300FF03BFC10F0DDFEA06C3D
:20452C00401CA064FEBDB7F840000D282BD138460FF074FA38B142894FF6FF6111404181DD
:20454C0041F400714181E86C696D3B883DA204F049FB10F077FC0346A96DE86C3EA204F0E9
:20456C0041FBA01D042111F017FF606D401C6065FEBD38460BF0AAFDFEBD401CA065FEBD5A
:20458C003846FEF783FCFEBD67656E6572696300636332363532726200C046C06363323628
:2045AC003532723100C046C0636332363432723100C046C0636331333532703400C046C027
:2045CC00636331333532703200C046C0636331333532703100C046C06363313335327231AA
:2045EC0000C046C0636331333132723100C046C0636332363430723200C046C063633133CD
:20460C00353000C063633133313000C053656E736F72202D204465766963653D25732C20C6
:20462C0044657669636546616D696C7949443D25692C204465766963655479706549443D5C
:20464C00256900C0436F6E666967527370202D203078253034782000257800C0EC3D002099
:20466C00483800202DE9FE4F8A46934680460021022268460AF0A2FD844F78798DF8008067
:20468C0028B107F1A00012F0E9F900207871B7F96A405FEA080007F1A0054FF0000600F033
:2046AC00A2800D3800F0A28072386AD07B38012840F29C80801E00F09480401E00F08A806D
:2046CC00401E00F08380401E79D0B8F1300FC0F28D80B8F13A0F07DBB8F1600F40F386800A
:2046EC00B8F1670F80F282800321601E90FBF1F094FBF1F3201A401EC0B24FEA600903FBF0
:20470C0001F0241A012C10D0022C1ED115F8094068463146102224F00F0405F8094053F0D7
:20472C00A3FB044305F809400FE015F809003146102200F00F00044605F80900684653F054
:20474C0093FB44EA001005F809004C4650482A5D396D005D02EA0009F86C4A4503D138A231
:20476C0004F040FA04E037A204F03CFA05F8049097F86A00012132220B4611F0A9F80446DB
:20478C0021E00321601E002C90FBF1F0A4EB0000A0F10100C0B24FEA600227DD94FBF1F030
:2047AC004843201A022805D0012813D1A85C40F0F00002E0A85C40F00F00A8540AE028467F
:2047CC0011F01AF90124A7F86A400FE00124A7F86A4008E00121E0B232220B4611F069F84B
:2047EC00CDE7E0B2C6E7284612F038F9112715F8010B01A902220EF051F8DAF800001EA122
:20480C00098880190180DAF80000731CD9B2401801A910F02BFCF31C7F1EDEB2E7D1B8F12F
:20482C00000F0BD0DAF8080014A10F2208F0B0FD641CABF802400120ABF80000BDE8FE8FC2
:20484C0000C046C0496E76616C696420696E7075742E204F6E6C7920757064617465642058
:20486C007769746820737570706F72746564206368616E6E656C73002000C0462020202058
:20488C00204348414E204D41534B00C048380020792100002DE9F04F7A4D6868416EADF153
:2048AC002C0D02A88847DFF8E0A1DFF8E0B19AF9000038B1594691F90000002818BF0020B6
:2048CC0040F0DD8012F0D6F8DFF8C4910A9099F80000800806D27D20002107F0EBF90026F9
:2048EC00079001E00026079602968DF80C60059603208DF81800674CC4F8C460A4F8BE6040
:20490C0094F8D73094F8C810674A0127B84666F3030167F3000384F8C81094F8C81084F8CF
:20492C00D73068F3C71184F8C81094F8D71067F3410184F8D71094F8D71066F3820184F8A0
:20494C00D71094F8D71066F3C30184F8D71094F8D71066F3041184F8D71094F8D71060F367
:20496C00461184F8D7101068D0F8282404F1D801F420904748480378A3B9494668680978E5
:20498C008446890910D3C06B8047C4F8C40094F8C81021F00F0141F0020184F8C8108DF8C8
:2049AC000C700290D5F804C03D4A3C484FF080738DE80C00DCF850703A4B006804F1BC015B
:2049CC00894602AAB8470028688006D5022041F288310CF055F8B0464DE0594691F90000C3
:2049EC00324F401C087097F90000401C38709AF90000C5F808903146401C8AF80000022063
:204A0C000CF03EF8284F24483968067001F1AC021068077807B18026288F17684FF67F73FC
:204A2C0003401E433043288794F8D420387860F3C71284F8D420D1F8D400C28CA5F84620EA
:204A4C00428D00F14403A5F844201A6805F13B06326058687060D1F8D400C18CA4F8EE10E3
:204A6C00418D00F14407A4F8EC10396804F1E4052960786868600A9812F072F940460BB088
:204A8C00BDE8F08FC8400020E8430020E743002082530020F43C0020E5430020E04100205B
:204AAC00200043000160050014010020E64300202DE9FE4F9B4615468946824611F0DAFF93
:204ACC007B49019008680CAF504508BF48687B4C6FF0010828B1B83012F075F9002840F086
:204AEC00D68010F033FB061C00F0DB8004F5CE7012F06FF90023B4F9B400C6F80C90401CDE
:204B0C0086F832306FF31F30A4F8B400C6F808B0B4F8B40030866748C6F810A097E80C0074
:204B2C0020210027B8461940104006F1180383E80300424686F8332006F1200383E880017B
:204B4C00E8683064287C86F8440028687063287986F83800A868F0636869B064A869F06498
:204B6C00287F86F85000687F86F851002F7C27B9EF6817B1012086F844002F795FB999F820
:204B8C000C0000F00F00022805D1012086F83800D9F808007063484608274568002D18BF0D
:204BAC00002F70D100886FF30900B0F5305F18BF022506D196F83300082540F0100086F8D1
:204BCC00330006F1180090E80C00414606F1180745EA0200194387E80300D4F8D8008245FC
:204BEC0007D194F8DC00410824BF00F0FE0084F8DC0031480768002F39D004F1A0000090B2
:204C0C00D4F8A810D4F8AC2004F198052B463046B84710F1030F10D0B6F93010B4F9B42091
:204C2C00914207D0B4F9B41001F6FF716FF31F31A4F8B41010F1020F1BD010F1030F18D0DC
:204C4C0096F83300B6F9308040F0800086F8330000278AF8FC702868864205D0F068007BB2
:204C6C0000F00F0002281CD10BF022F919E06FF00200B4F9B410804601F6FF716FF31F3152
:204C8C00A4F8B41005E07F1E2846FFB285E76FF0020894F8DC0040F0040084F8DC00C4F882
:204CAC00D8A0019812F05CF84046BDE8FE8FC046302E0020FFEFFF9FFC430020782D002095
:204CCC002DE9F0470646F08917468946ADF1280DC01D80B2054608F009FE7A4CFF280BD195
:204CEC002846FEF721FC854204DD641C207800B90520E3E0012000E000206178D9B917B173
:204D0C00022F18D1B8B1307A8DF80C00F788ADF80A70B588ADF8085000230093E18E94F840
:204D2C00330001AA032302F0ABFE9DF814003074BDF81070B78194F83310E58EE06806AAD4
:204D4C0004238846490311F07CFF069800F0FF0100F0FF007E2806D140467C210FF01AFB59
:204D6C00069901F0FF017C2940F0A580F08942F20102C11D8FB2E9198A4240F39A80F1883A
:204D8C00327AC1F301238DF81D10B18843EA82038DF81C308A1006468DF81E200423C0F392
:204DAC00851201F0030142EA81128DF81F2010FB03F1F21D01F0FC01731990B28DF8201059
:204DCC001FFA83FA0D282BDB48463146002211F069FE0246052107A811F064FE9DF8201022
:204DEC00334600F03F064A4641EAA011B0008DF8201040F0020096268DF8210029468DF8A0
:204E0C00226040460DF0E2FB0646514607AA0723404666700DF0DAFB304360704DD135E042
:204E2C0004F124004946324608F0B2FA07A90A68301900F12409484609790260731D0171A5
:204E4C00002204F1240099B211F02CFE9DF82010962300F03F068DF8223041EAA011B0007F
:204E6C008DF820103B4640F0020007AE49468DF821003268B0790A60B288887140468A80E4
:204E8C0004F1240229460DF0A1FB6070E18EED194FEA8806AAB2C919E18606EBC801091956
:204EAC00A1F84C2048B1404651460DF0CBF9607803E0052000E001206070C0B20AB0BDE888
:204ECC00F087C0462C3F00202DE9F04F14460E46ADF1140D0568DDF838A00490181C14BF47
:204EEC001F1C01AF4FF00008C7F8008011F0C2FD2979490838BF6FF00E0904D395F85C3025
:204F0C001BB16FF008098246D7E02E666C66EC66C5F874800122C5F83080E97985F85C2076
:204F2C0001F0F701E97101F0DF01E97111F018FF04980EF057FD6C79C14674B9BAF1FF3FEF
:204F4C000BD0BAF1000F08D005F1C8045146204611F03BFF204611F03AFF11F08BFD8246ED
:204F6C0050E06C6F002C3BD0049805F0A1F9687901282FD1E879400803D2E86E002840F082
:204F8C009180C5F86C80287A85F85C8040F002002872504611F0E4FE287A410826D28008A0
:204FAC0024D311F067FD297A01F0FD01297241F00101297211F0D4FECDF80090D5F80C414C
:204FCC00296E6A6F2B6C0498A047287A00F0FE002872E4E7E879400864D2EC6E002C61D0B0
:204FEC00504611F0BDFE6879012803D111F042FD824657E058464FF0FF3111F0C4FB11F068
:20500C0039FD8246EC6E002C4CD0E879010943D280093ED204980CF08BFF05F178044146B0
:20502C00204611F0B0FB504611F09AFEA34605F1440A504602A90FF0FEFD044611F01AFD59
:20504C000390E86EA04238BF041C686F02992246801908F09DF9504621460EF035FF686F5B
:20506C00E96E0019091B68670398E96611F078FE002C02DDE86E0028DBD111F0FBFC82466B
:20508C00687902287FF46DAF686F08B96FF00F0908E06FF00C0905E0E8796FF00D0900F054
:2050AC00F700E8716879012805D085F85C8005F1C80011F08EFE686F3860504611F050FEBD
:2050CC00484605B0BDE8F08F2DE9FF478246DAF804603068DAF80050076C17F4F06F4764C1
:2050EC004DD0A86B00284AD0E879002400F07F00E871F80A2C6028D3E86CAC6CDAF800908E
:20510C00DAF80480241A06E00068C1B209F144000DF0E8FB641ED8F800008169490901D2AF
:20512C00002CF1D1306804E001688DF808109DF8081081694909F7D32868401C2860E9796A
:20514C00C81104BF41F08001E9713068EB6B446804F00F0404EA0301B1FA81F24FF0004368
:20516C0023FA02F0014006D0A86B20B12A682B6C84465046E047204611F0AAFB2863D5F805
:20518C00E00140680068F16BD0F804250A4201D1F90915D350460BF00FFC504605F088F816
:2051AC006879012804D1E86E10B150460AF06CF905F1780011F01DFED5F8E00140680068B0
:2051CC00D0F80415B06B014255D0D5F83C01002851D050460AF0A2FE504607F0EFF8A87947
:2051EC0001283CD1D5F83801002838D005F5887801A940460EF082FE0446D5F83801A0425D
:20520C0038BF041CD5F84021D5F82C1101988918224608F0BDF8404621460EF0AAF8D5F88A
:20522C003801D5F84011001BC5F838010919C5F84011504607F0C2F8D5F8380178B995F8BF
:20524C00280160B1002085F828010090D5F8D841D5F82C11D5F840212B6C5046A047D5F8B3
:20526C003C0120B93168886B40F40060886305F5A27011F0BEFD380B1DD33168086B20F4E6
:20528C0080700863E879820811D300F0FD00E96BE871880907D3A86B28B12B6C07462021C2
:2052AC0000225046B84702200FF0A4F83168886B20F4006088630090BDE8FF872DE9F84F6B
:2052CC000746714D714C28684030D0F89410267891F883B026B1D0F80C05804728684030BD
:2052EC0001680E6816B9D0F80C058047A0466949674C0120012F88F80000D1F80090677008
:20530C002AD9DFF894A1654EBF1E59D07F1E52D07F1E3DD07F1E73D07F1E34D12968096CC8
:20532C00096891F86D20628191F86E70002F06BFE070071CE770686840683178007811FB2D
:20534C0000F0784381005046C16690F8701021F00F0141F0030151E000202E686071306CA6
:20536C000068D6F8D410C08AC00934BF91F8250091F84E00A070B7B9CF78A7B10228C4BFB0
:20538C000220A0700FE02868D0F84C05804737E02868006C006890F86910617190F86A0030
:2053AC00A0700027A77105F0B9FC2868006C006830BBBDE8F88F002060710EF09FF91FE0E7
:2053CC0030788700D9F83C00804771683C22401AB0FBF7F0B0FBF2F15143401AC0F17800F6
:2053EC0086B2D9F83C00804707FB06015046C16690F8701021F00F0141F0020180F870107A
:20540C002748007898B92868403001680F682FB9D0F80C0580472868006C07687A686178BA
:20542C00107800F0200020719078E07100E06178032903D0022918BF062923D111F01AFBEB
:20544C0005466078022815D01648077817B916490F787FB10221BBF1010F88F8001004D107
:20546C000078832801D10BF053FF284611F078FCBDE8F88F832088F80000284611F070FCD1
:20548C000FF096FFBDE8F88F1401002086530020CC420020CC400020F43C0020A442002062
:2054AC007853002081530020835300202DE9F04F754C0646A068D0F80001807AADF15C0DD7
:2054CC00C00008F0A3FC00280C9008BF1A2400F0D6804FF0010AF07D8DF848A006F1180126
:2054EC008DF849000A680DF14A073A604A687A60097A397211F0BEFA1590A068D0F88824E3
:20550C000DF1460181209047B07D00283DD004208DF803A04FF000088DF80400B78A8DF87E
:20552C000280A568ADF80070D5F894246946D22090474FF6FF79C34645461DE0C00043F875
:20554C0000B0B18AC0188180DCF80020D42008A9904702E04846ADF804008DF80780B08AAC
:20556C008DF806803B68ADF80000D3F894246946D12090476D1CADB204F108073A6802F54D
:20558C0080721068C088A84236DCB08A00279DF84920ADF838000DF14A018DF83A700DF19F
:2055AC003B0007F0F5FEA068D0F894248DF844A00EA9D0209047071C18D1B08A314610225C
:2055CC00ADF808000DF10A0007F0E2FE3069A7680790D7F8942402A9D3209047071C02D102
:2055EC000C9838B104E00C9820B101E00C9808B10DF022FCFCB23FE0ADF80250B08AADF8BD
:20560C000000D2F888236946D12090470028A1D1BDF8040081459DD0ADF82000A068D0F877
:20562C00882408A9D420904704F1080718B10C9808B303461CE0386804F108073B6800F28C
:20564C00944CD3F8000190F80AE00C9B404601E0401CC0B2864507DD03EBC0018988894507
:20566C0002D0B28A8A42F3D186457FF467AF13B118460DF0E1FB1924159811F071FB204674
:20568C0017B0BDE8F08FC0460C0100202DE9F04F724C002704F19800ADF1140DB946B8465D
:2056AC00056802978246CDF80C903DB3D4F8AC00B84203D1D4F8A800B8421DD0D4F8A8604A
:2056CC000EB3D4F8A8102869096988421BD195F83300400917D3D4F8AC60A6B90127D4F8A2
:2056EC00A800C06840880028F9D0D4F8A800C06840880128F3D006E0012704E004F1E000FE
:20570C00022111F07EFB002D43D087F0010B03A802AA594607F03AFA5FEA000809D0012FA2
:20572C0007D0039929B104F5AC7010F01FFE4D462FE0002D2DD04A48066856B3B8F1000F51
:20574C0027D0039828BBCDF800B002980190D4F8A800D4F8AC100AF108035246B047401E39
:20576C0002D0401E08D014E0029800B9284601214B460091014605E001230093D4F8A800C5
:20578C00D4F8A8100069B1F930104A4602F02CFF60E0002F5ED0002D5CD06068296988425F
:2057AC0052D1B8F1000F0BD0039848B1D4F8A80030B9D4F8AC0018B908200EF051FB49E052
:2057CC00082010F0CFF995F8330004F1E006C0F3001028B950460FF00EFEC4F8A80004E0A5
:2057EC0050460FF008FEC4F8AC00A8691D49C0430860A8694A6810434860E869C04341F86D
:20580C00080CE86951F8042C104341F8040CEC68082029460FF0ACFC20460FF085FC2088E2
:20582C00A0F6020040B141F21E01401A04D041F6E671401A012803D8012021460FF098FC4C
:20584C004FF08041304603E004F1E0004FF4806111F0D7FA05B0BDE8F08FC046782D002074
:20586C0000440020101004406E4A2DE9F04112780F46ADF1180D824215DD6B4C3B7804EBA4
:20588C00C00466682568012B01D1786858B17878012801D1B86830B111F0ECF82979490832
:2058AC0003D311F05DFA0020B8E0297941F00101297111F055FAE87900F0FB0000F0FD01FD
:2058CC00E87101F0F702E971104600F0EF01E8710846E87100F07F00E871287A00F0FE0091
:2058EC00287200F0FB002872387868717878A871397DE87901F0010100F0FE000143E97155
:20590C007868C5F80C01B868C5F8D801F868A8633869E863B869A862787F85F82D00387F41
:20592C0085F82C00B87F4FF0000885F82E003A6AC5F82C8143462B661846C5F83801E866BF
:20594C00C5F830016866C5F83401A866286368632867C5F83C0185F85C0085F82801A96B0D
:20596C00C5F8E0312A6411B9E8633048A86396F8400006F0FDF9F168326905F1440010F03F
:20598C00F9FE7169B26905F5887010F0F3FE28480068C06801463068884720460DF01EF904
:2059AC000CF0E8FCC5F8E001204602F0F1FF214A05F5F270234604210FF008FA684610F011
:2059CC0047FF327A05F10C00716801921A4A00946B460DF07BFF05F1780041460FF01EFE2B
:2059EC0005F5A27041460FF019FE03A811F01AF905F1C80011490594424603AB0EF0AEF9A7
:205A0C000F4905F5CA70424603AB0EF0A7F93068716B0860326B31682046516006B0BDE896
:205A2C00F081C046CA2100002823000063D80000D0010010BD680100D5500000CD68010010
:205A4C00A56701002DE9FE4F89469346804600210222684609F0B2FB6B4FB8798DF80080D3
:205A6C0028B107F1900010F0DBFE0020B871654901F12200B7F96E40037807F19005002649
:205A8C004046FB280BDCFA2880F2838000286CD00D387ED00E387CD0643848D007E0FC387B
:205AAC006ED0401E65D0401E5FD0401E32D0B8F1300F6EDBB8F13A0F05DBB8F1600F68DDBC
:205ACC00B8F1670F65DA0321601E90FBF1F0241A641EE0B2441040080CD2285D3146102254
:205AEC0000F00F0082462855684652F0BDF94AEA00100BE0285D3146102220F00F0082466C
:205B0C002855684652F0B0F94AEA0000285597F86E0036E04BB9084610222946813007F004
:205B2C0037FC3046294608F0FFFD01242FE00321601E002C90FBF1F0A4EB0000A0F10100BE
:205B4C00C0B24FEA600224DD94FBF1F04843201A022805D001280CD1A85C40F0F00002E0EB
:205B6C00A85C40F00F00A85403E0284610F058FE0FE00121E0B22F220B460FF09AFE05E072
:205B8C00E0B201212F220B460FF0A2FE0446A7F86E40102715F8010B01A902220CF07EFED7
:205BAC00D9F8000010A1098880190180D9F80000731CD9B2401801A90FF058FAF31C7F1EC2
:205BCC00DEB2E7D1B8F1000F0BD0D9F8080007A1152207F0DDFB641CABF802400120ABF82E
:205BEC000000BDE8FE8FC0462000C046202020202044454641554C54204E574B204B45597D
:205C0C0000C046C0803200204838002069482DE9F0471CC8ADF1280D69461CC11CC81CC13E
:205C2C000DC881E80D00644B0093654F7B6003F11006BE60614C019604F11402029204F13C
:205C4C002C00039004F14401049104F17C08CDF8148004F15C0506955A4E0794B2E80056B4
:205C6C0006F17C03A3E8005692E8045283E804520346B3E8005206F13402A2E8005293E876
:205C8C00085082E80850B0E8085006F14C02A2E8085090E8091006F1640982E80910182215
:205CAC00484607F075FB96F870003C22414640F0800086F8700006F1BC0007F069FB96F8C6
:205CCC00CB10012060F3000186F8CB1096F8CB1060F3820186F8CB1096F8CB1021F02001DC
:205CEC0086F8CB1096F8CB1060F3C71186F8CB10B5E80C5006F19C01A1E80C5095E82C1027
:205D0C0081E82C10C6F8A09096F8A81060F3C71186F8A81096F8A91021F00F0141F00201A1
:205D2C0086F8A910042286F8AD20052186F8AC1096F8AE1060F3040186F8AE10032186F8CD
:205D4C00B01096F8B31060F3030186F8B310B4E8281006F12001A1E8281018CC81E818007C
:205D6C0096F82C1060F3C71186F82C1096F82F1062F3030186F82F1096F82F1060F3C7118D
:205D8C0086F82F1096F82D1060F3030186F82D104FF4586030630898F8600B48001D0068FF
:205DAC004069007808B108F0D3F906F0FBFD0AB0BDE8F087CC20000010400020F018000011
:205DCC00D0410020F43C002014010020FEB56A4C60692589A689E169806D2A468919083170
:205DEC0007F0D6FA6269916D49199165E2697619B0B212180832127801A90A705B4EE1696E
:205E0C00401C80B20918097A721C401C117081B2E269A18152180832126868460260091DE5
:205E2C00A18104210FF0FAFC63690090054610F0EFFBD86328460FF0CDFEA3F84000EA2031
:205E4C000EF090F802204A494A4D087068684069007830B1307810B97078FF2801D00420A5
:205E6C00E0706769E078397C084338749DF9040010F0D7FF87F8460007F17406BE65398966
:205E8C009DF904007B6887F84800B7F85C000026401AC01801467860B88987F84760820A3D
:205EAC0018D2020926D310F0070F07D000F00700032812BF081C7868401C17E07968C87890
:205ECC0000F00702401000F0380000EB42004018001D0BE02868D0F8081338468847676928
:205EEC00786E10B1B7F8680090B178687861B889000917D297F8600018B32868D0F80C137A
:205F0C00384688476769F86CD8B1B7F85000C0B92868D0F8541204F11400884766610AF09C
:205F2C0081FBFEBD2868D0F8B4143846884778706769B8697B7878651BB1F2200EF012F822
:205F4C0067692968B8310A68107838B1936C2BB119463846884767692968B831D1F8A011BD
:205F6C003846884766610FF07BFEFEBD144400208153002014010020C4500020F8B5694C97
:205F8C002168054614310868407F002800F0C880D1F8C000B5F84220C08C904240F0C08027
:205FAC00D1F8581305F128008847002800F0B880206840690026467721687031486E90F8E8
:205FCC00290028B16068816A0220884721687031086890F82B0018B16068816A0120884756
:205FEC00287C400908D36068816A102088472068D0F82813802088476068C16B202088471E
:20600C002168C868D1F8FC14103088476868226841785269007800EB0120C0F303215176E3
:20602C0022685269C0F3003797762268526900F00F03C0F3031793772068D0F8D40080F85E
:20604C002C7022680C32D2F8C81091F84F000F2806D093689B7F984202DD6B68DF780FB191
:20606C009068807F4873106880F83060D2F8C800417B0F290BD19068C07E022850D1D2F835
:20608C00580180472068D0F86C018047F8BDD2F800252846904723680C339868C07E022835
:2060AC0015D1D3F8F014186888472268D2F8D4001169467BD06831F81630D2F8F0244FF4A5
:2060CC00707707FA06F1C91A904723680C33D3F8C8002A89D3F8A83190F82C1002209847A2
:2060EC00206800F11401D1F8C020D0F8D400527B90F82C0082420FD00868D1F8E814884799
:20610C002268D2F87C015169886050694169D2F8F024904721681431D1F81413102088472B
:20612C00F8BDC046140100202DE9F04FDFF898910646A9F1080000F108078068D0F800016F
:20614C00807AADF12C0DC00007F060FE0028089008BF1A2500F0B48010F08CFC00244FF078
:20616C00FF0B25460A9027E0ADF800608DF80240D2F88823D02069469047D8B99DF80C0014
:20618C00012802D19DF80B1019B998B99DF8071081B1002814BF082304230DF103005B1E7F
:2061AC0000F801BBFBD105703868D0F894246946D0209047641CE4B23A6802F5807210682F
:2061CC00C07AA042D0DC4C462068D0F80001C0884FF6FF78AA461DE0089901EBC0018A88B7
:2061EC0096421CBF401CC0B261D1C1F800A0A1F804803A68D42004A9904702E07F1CBFB262
:20620C0025E020682268D0F800016D1CEDB202F58072C088A842D8BF55464BDDADF80060F0
:20622C00ADF80250D2F88823D120694690470028E7D1BDF804008045E3D0ADF81000206821
:20624C00D0F8882404A9D420904790BB5746226802F580721068C088B84210DDADF800603F
:20626C00ADF80270D2F88823D120694690470028C4D1BDF81000BDF804108842BED12068E3
:20628C00D0F80001C088B842BBD1ADF81480ADF8168006A85946082208F090FF2068D9F890
:2062AC00003000F29447D3F80001837A5046834292DC19250A9810F053FD08980CF0BCFDBE
:2062CC0028460BB0BDE8F08F140100202DE9F047644E04469246306894F83080D0F88824C7
:2062EC000F469946ADF1300D0DF10E018B2090473068D0F8882401A98A20904794F825000C
:20630C00002840D1B8F1000F1AD1BDF80E104FF6FE70884206DCBDF80E10884240F09C807A
:20632C0001A916E0B4F844009DF80E508DF8100000128DF81100BDF80E008DF812501CE0EB
:20634C00B8F1020F0AD0B8F1030F40F0858004F1280104A810F07AF9092512E0207CC009EB
:20636C0034BFB4F84200B4F844008DF8100000128DF81100208D8DF81200001205258DF8FE
:20638C001300002015E002280CBF05250925012818BF04F11C0106D13068D0F8882407A9D7
:2063AC008920904707A904A86A1E06F0F1FF94F826000DEB0501C8733068D0F898343A46F0
:2063CC00294604A89847002846D1B8F1000F19D1BDF80E104FF6FE70884205DCBDF80E10D2
:2063EC00884239D101A915E0B4F844009DF80E508DF8240000128DF82500BDF80E008DF88E
:20640C0026501BE0B8F1020F09D0B8F1030F23D104F1280109A810F019F9082212E0207C24
:20642C00C00934BFB4F84200B4F844008DF8240000128DF82500208D8DF8260000120422C1
:20644C008DF827003068D0F8A444CDF80090386809A95346A04708B1F32000E000200CB08D
:20646C00BDE8F0871401002001282DE9F84F40F0B080DFF88491D9F83401012840F0A68068
:20648C000220C9F834010FF04DFD01200DF036FB5FEA000805D00120C9F834010FF04EFDB9
:2064AC0099E0112010F01CFB00280CBF00250125102010F015FB08B145F002050F2010F06D
:2064CC000FFB08B145F00405444CA06A0068014601208847012805D099F83801012818BFAE
:2064EC00002703D1002002F02DFD012710F0F2FADFF8ECA040080AD20026206A80680146DF
:20650C00504688478346BBF1040FF6D000E00126304600214FF0FF3201F006FA012E0ED0B0
:20652C00BBF1010F05D1206A4068012102465046904732496C39086840F003000860206801
:20654C0040690146284688470B2010F0C9FA254E30B12068C06A3146091D024608889047C2
:20656C000A2010F0BDFA28B12068C06A31460246088890471C4903200124C9F834011B4E71
:20658C000C600023336028460BF036FE0128FAD1174D286804200DF0B1FA0646154804606F
:2065AC002868012F02D1204602F0CCFC10F074FA08200DF0A3FA0746C9F834410FF0BEFCB0
:2065CC0057EA060018BF4FF0FF3804E06FF0040801E06FF001084046BDE8F88FB801001008
:2065EC00004003409E1F0000282008600C2008402C2009400C400940843B00209022084028
:20660C002DE9F04F634C8346A4F10805A868D0F80001807AADF12C0DC00007F0F7FB089014
:20662C0010F028FA0A90A86800F59162D0F8000100894FF6FF790026C846CA4636E006AF7C
:20664C005946082238460EF069FF78B92068D0F81C153846884700283AD02068ADF804908F
:20666C00D0F894246946D120904731E0ADF81480ADF8168006A8FF21082208F09FFD20687E
:20668C00D0F8942404A9D42090472068ADF804A0D0F894246946D120904720682268D0F854
:2066AC000001761CB6B202F591620089B04208DC0A9810F055FB089808B10CF0BDFB00206B
:2066CC0064E02068D0F80001C07A0127002531E02068D0F800012268C0886D1CEDB202F53F
:2066EC00916230E0ADF800608DF802501268D02069469047A8B99DF80C00012810D19DF81E
:20670C000B0068B90DF102020820002112F8013FFF2B03D1401E01F10101F7D10829BCD0D7
:20672C00002720682268D0F800016D1CEDB202F59162C07AA842D5DC002FAED12068D0F866
:20674C000001C0880025A842A7DDADF80060ADF802501268D120694690470028B8D1BDF8FE
:20676C0004008045B4D0ADF810002068D0F8882404A9D420904700283FF461AF0A9810F08A
:20678C00EFFA089808B10CF057FB19200BB0BDE8F08FC04614010020F8B5074661485F4CBC
:2067AC00001DC26A0168B7F5C067C2F30722C4F81071C1F38441C4F81421C069C4F81811B5
:2067CC00C0F38120C4F8280100F0A38094F830616EB9C4F82C71D4F81801C4F82001D4F836
:2067EC001461C4F81C61D4F82851C4F82451D4F82C01D4F81451002854BF02236FF001037C
:20680C0004F59072116800EB4000C018431000EB937001EBA0011160D4F82011C4F81C5190
:20682C0000291CDD1E293DDDD4F8240130B93429B4BF15391E21C4F8201125E02A29BABFD4
:20684C00D4F820010B381E20C4F82001D4F81C013E28D4BF401C3F20C4F81C011FE0D4F8A0
:20686C002401032812D011F10A0FA6BFD4F820010B300120C4F82001D4F81C010028CCBF98
:20688C00401E0020C4F81C01032009E011F1140FA6BFD4F8200115300120C4F820010020AF
:2068AC00C4F824014FF08057D7F8A401B4F81C111B4D40684FF47F420823064600912846FE
:2068CC003021B047D7F8A40101214FF40032112340680091064604212846B047D7F8A401A2
:2068EC00B4F8201140684FF4F80212230646009104212846B047D7F8A401B4F82411406831
:20690C004FF440620A230446009120212846A047F8BD002084F83001F8BDC046843B0020CC
