:20000000003C01205144010039FB021039FB021039FB021039FB021039FB021039FB021049
:1C00200039FB021039FB021039FB021039FB021039FB021039FB021011FB021002
:20003C002DE9F04F9C4CA1A04FF0070920600025C4F80890ADF14C0DE5604FF0FF30606074
:20005C00382019F087FB206128B32146056026469AA728314160914C876030690028C46029
:20007C0019D09BA101618E4F476114D03146856101F11401C1610ED09AA10162894F4762F1
:20009C0009D03146856201F15001C16203D03146056378314163804997A04FF0020A4FF01E
:2000BC00FF3688620F46C7F830A03C46CE621020646319F04FFB0FF25C28503439468863B2
:2000DC0092A7119730B139460160D84F476042468260C760704991A003264FF0FF32886791
:2000FC000F46C7F880603B46DA671820C1F8847019F030FB3946C1F8880058B18BA10160BF
:20011C00CB498CA2416007468260F96017B18BA03861796160498BA008264FF0FF324861D7
:20013C000F46FE613B469A6140200F6219F012FB3946C04B4862294618B1CA0085508218E7
:20015C005360491C0829F7DB394681A008653B46BE654FF0FF325A654020CF6519F0FAFAF7
:20017C003946B54B0866294618B1CA00855082185360491C0829F7DB3846456639464FF003
:20019C00FF36C7F86C903B468E6638201C6719F0E1FA39460028486721D070A10160A74F70
:2001BC0047603D4E856006F18C01C16017D06EA10161A349416112D070A28261C1610ED0AA
:2001DC0073A101629F4F476209D03146856201F13C01C16203D073A101639B4F47632E4817
:2001FC0073A1042607464FF0FF32C0F88C103B46C7F894603946C3F8902001F16400089088
:20021C00C1F89800202019F0A5FA07462248002FC0F89C700FD069A038608C4878606AA1A8
:20023C00B960F86007D06BA139616DA2786107F118063260F86118496CA005270E464FF09F
:20025C00FF32C8633346776428201A6437468F6419F080FA39460028C86414D01199016057
:20027C007B4A426067A78760C2600CD067A101614346426100F118073B6000F12006C2618D
:20029C0065A13160426219F04FFF14F051FE071C00F0ED8008E0C046D82C00207D6F0100DE
:2002BC006D8A0100558A0100D4E0C04653696D706C652043656E7472616C00C044697363FA
:2002DC006F766572204465766963657300C046C053746F7020446973636F766572696E675A
:2002FC0000C046C043616E63656C20436F6E6E656374696E6700C046536574205363616ED7
:20031C006E696E672050485900C046C031204D62707300C0436F64656400C046536574206A
:20033C004175746F436F6E6E6563740044697361626C650047726F757020410047726F757F
:20035C0070204200436F6E6E65637420746F00C0576F726B207769746800C046474154546D
:20037C00205265616400C046537461727420525353492052656164696E6700C053746F7010
:20039C0020525353492052656164696E6700C046436F6E6E656374696F6E205570646174D2
:2003BC006500C046446973636F6E6E65637400C04741545420577269746500C0577269742B
:2003DC0065203078303000C05772697465203078353500C05772697465203078414100C0A2
:2003FC005772697465203078464600C053657420436F6E6E205048592050726566657265EE
:20041C006E63650032204D62707300C03120262032204D62707300C03120262032204D6213
:20043C0070732C202620436F64656400792C010085A2000055200100A9100100D156010027
:20045C00211001007DCE0000D18301006D0D01003532010018F0EEF9C74C2E468346062066
:20047C0034F80C3F2BB1401E06F10106F8D119F0C7F94FF6F878A4F800806760A560D64C60
:20049C0026707868A061584618F0E7FB04F14C062946304619F044FED44B0827D448E66119
:2004BC0014300E90A3F110004FF6FF7120F8101F7F1EC560F8D1CC4E06F1180006F10C01E6
:2004DC000EF0D8FCD349B06019F012F8D24FB0684FF4E0213A46521E16F084FAB0684FF4A3
:2004FC00E0213A4616F07EFAD14FB0684FF0C0513A46521E16F076FAB0684FF0C0513A460B
:20051C0016F070FACB49AB4606F12400C8222B46CDF800B014F0AEFECF48D04DD04915232A
:20053C005A46706005F114000090102007F0CAFF44F26827FB201B224FF4A473C94900908C
:20055C001020019707F0BEFFC2A21020C649129207F0B8FF2178502017F0C2FAC3490246EE
:20057C00102007F0AFFFC2491020012207F0AAFFC04910204FF0FF3207F0A4FF2178502040
:20059C0017F0AEFACB490246102007F09BFF4FF4806001212A4605F041FA6A1C40F2024094
:2005BC00012105F03BFAAA1C40F20340012105F035FAEA1C40F20640012105F02FFA2A1D4D
:2005DC0040F21140012105F029FA6A1D40F21B40012105F023FAAA1D40F20D40012105F09D
:2005FC001DFAEA1D40F21240012105F017FA05F1080240F20C40012105F010FA05F1090275
:20061C004FF48360012105F009FA05F10A0240F20F40012105F002FA05F10B0240F207406C
:20063C00012105F0FBF905F10C0240F21440012105F0F4F905F10D0240F21640012105F061
:20065C00EDF905F10E0240F21540012105F0E6F9BF4904F14402102007F034FFBD495A46D2
:20067C001020134607F02EFF2178502017F038FAC2490246102007F025FF2178502017F0C1
:20069C002FFA1035BE49CDF800A0034608221020019507F017FF4FF0FF30594613F0BCFA58
:2006BC006061534859464FF0FF3217F031FB6069B44D58B14E498F6847B128614846287078
:2006DC00B14FEF60084616F06DFA606929785A46A4A317F088F904F1200704F13C060A9727
:2006FC00A8460B9604F17C050C9504F13500099004F128030D93A06900214FF040424FF08B
:20071C00FF3319F009FD071CF5D0002002900DF1120102AA03A813F021FA002840F03D8146
:20073C009DF80C000DF10E0116F064FD002840F03181BDF80E00ADF80C0017F055FFBDF8FA
:20075C000C00102840F0248120789DF81210884240F01E81029801884FF6FF728A4200F0E7
:20077C0017810178913900F087801F3906D0203900F00C810CE1C046D81A00204288BD49B2
:20079C0005460123102007F09DFE00285BD0029998F8002060694B78162B02F101024BD090
:2007BC000B790B2B3AD0012B02D1097A0A2935D0297913291ED0012902D12B7A122B19D00B
:2007DC007E290ED07F2909D02679002E3BD028460AF08EFE37E0C046E81400202989BDA3E0
:2007FC002CE0297ABFA329E0781D0020EC150020D82C0020012919BF6179BEA3297BC2A383
:20081C000091D1B2002217F0EEF8089816F0CAF919E0C046096801000E0005802979012960
:20083C0003D0E9680978BCA308E0297BBFA305E00E000010E18D01002979C0A30091D1B21F
:20085C00002217F0D0F8297905F1080019F060FC9EE0C04600C046C0579601008C1F002083
:20087C00013501000D3D0210397F0110F16C0210817E0100D563010041780E394BD0491ED6
:20089C002DD0491E68D02E3940F0828081780C297ED1C678D6B9C17901290DD0022908BF8A
:2008BC00DFF8AC920AD003290CBF0FF2E4290FF2E82903E02D6D0210DDF8449098F80060EE
:2008DC006569808817F086FDB9A336E098F800606569808817F07EFDBBA3009030E08188DB
:2008FC00656998F80060A1F20643002B50D041F62C415B1A08D180781A2803D00090B8A30D
:20091C00761C1EE0BDA3FBE7818800918078C7A3F61C019015E0818841F205428A4237D1FE
:20093C00816898F8006065698A78487891F9039000EB022017F04EFDC5A30090CDF8049065
:20095C00B61CF1B22846002217F04DF820E0C046597F0100A95C01000820002109F012FFF2
:20097C0016E0C0463D3D3D3D3D3D3D3D3D3D3D3D3D3D3D3D3D3D3D3D00C046C0D96C02107E
:20099C005DA60000C420002091B9000002F010F8029810B1029818F09DFEF80FFFF4ABAE05
:2009BC00E569284619F0B0FB854208BF002502D0856816F0B7F9002D0F953FF49CAE2B46C4
:2009DC00109398F80010E27960691B8808315B1E092B00F2C482DFE813F04B02B302C9013D
:2009FC004F009D023C0097022A000A009002002019F086FB666998F8005009998146062268
:200A1C0017F008FB002800F0AA82484613F0E2FFAD1D00900022CAA3E9B2304616F0E3FF18
:200A3C00494609980A6802608988818097E2109A55686F7A3FB1CB4AC91FC4A30092C9B25A
:200A5C00002216F0D0FFC7480090C549EA88002372E2C5491098807800010D5A4FF6FF771C
:200A7C00AF4200F07C824018C06818F0C7FEBB492A4661E1D54D021010984568002A7DD078
:200A9C00207A082800F05681A8690A99042217F099FE002872D00B9818F09EFE061C0FD07F
:200ABC00AF1C06F108003946062217F08BFE28B9304618F093FE061CF3D101E0002E5DD106
:200ADC00142018F047FE071C44D198F80010D2A308313FE24D54552053697A653A2025643E
:200AFC0000C046C046432056696F6C617465643A2025640057726974652073656E743A2011
:200B1C0030782530327800C05772697465204572726F7220256400C05265616420727370C3
:200B3C003A2030782530327800C046C052656164204572726F7220256400C0464154542074
:200B5C005273702064726F7070656420256400C02004000007F10800A91C062218F0BEF9FD
:200B7C00687800264FF6FF73B8733946BE740B983B8218F0B4F8207A401C2072EF8AAE6994
:200B9C00002F324600F09280D119491E8CE0C046434F44454400C046556E6578706563741C
:200BBC006564205048592056616C756500C046C025733A2050485920757064617465642052
:200BDC00746F20257300C04625733A20504859206368616E6765206661696C75726500C027
:200BFC0050485920557064617465205374617475733A2030782530327800C04650485920A9
:200C1C004368616E6765206661696C7572652C207065657220646F6573206E6F742073752E
:200C3C0070706F7274207468697300C0556E6B6E6F776E20436D64205374617475733A20A9
:200C5C003078253034783A3A30782530327800C025733A20525353492025642064426D00E5
:200C7C0012F8017B07B31078022803D0032818BF3A4419D17F1E521CFFB2022F11DB7810C8
:200C9C0091420ED91378F02B02D15378FF2B06D0BF1E401E02F10202FFB2F1D101E0012390
:200CBC0005E0012F08BF521C9142D9D800236778002B38D0666998F80030A81C082F0590F6
:200CDC0095F801A0079605F1020906931EDA77B1DDF830B03E460BF1010B484659460622DD
:200CFC0017F098F990B1761E0BF1070BF5D10C9E49460B68C7EBC7029019401C03608988F7
:200D1C0081807F1C06F802A0FBB26370059813F061FE00900698C01CC1B20798002294A387
:200D3C0016F061FEAE69002E00F01981304615F0F9FF14E1BE49129A102007F0C3FB0EE174
:200D5C00525020416464723A2025730050617373636F64653A20256400C046C00D2B021023
:200D7C001970010040E20100EC150020237A002A62D16678491F002281A30096C9B216F0EC
:200D9C0032FE002E14BF0B210321A7780FB141F02001A848042216F0BBFFA76A1FB10D9829
:200DBC00006815F0BFFFC6EB061018F0D3FCA06200B900269F490028CE6100F0D0800746A1
:200DDC00002E08BF00251BD0DDF83090002509F10109484613F0FEFD01460F2238460FF0B3
:200DFC0039F89448406A761E09F1070940F8357005F1010507F10F07EBD1082D80F2AF8009
:200E1C000E9801220021AA4016F082FF6F1CFDB2082DF5DBA3E0C0464175746F436F6E6E6C
:200E3C006563743A20416C6C6F636174696F6E206661696C65642100082B4FF043050BDBB4
:200E5C000093C9B2002254A316F0CDFD0EF068F8A77807B1632505E00093C9B200225AA3B0
:200E7C0016F0C1FD73482946042216F051FF51E010988078010923D2400970D30E2017F05B
:200E9C00DDFF00286BD1D8F80420D8F808009168814213D0B0F1FF3F61D0116951F8307018
:200EBC002FB901EBC001486815F07CFE57E0116901EBC0014968C0B2884750E0D068F3E7C0
:200EDC000D2017F0BBFF002849D1D8F80410D8F808008968814208D0B0F1FF3F0AD0401C69
:200EFC0015F044FEB0F1FF3F02D1002015F03EFEC8F808000BF0F0FC31E0891F002242A30D
:200F1C00C9B216F070FD15E710998878496806F097FF24E000200126258AE08107462671A6
:200F3C002178A781281FADF81000502016F0D8FD00903E49628904AB102007F0C3FA0EE00A
:200F5C003C4804216FF0040216F0E2FE98F8001032A3C91C6069C9B2002216F044FD1098D2
:200F7C00406808B115F0DEFE0F9815F0DBFE17E5446973636F76657265643A20257300C0D8
:200F9C002564206465766963657320646973636F766572656400C0464175746F436F6E6E34
:200FBC006563743A204E756D626572206F66206D656D6265727320696E20746865206772C5
:200FDC006F757020256400C04175746F436F6E6E6563743A204E6F7420616C6C206D656D92
:200FFC006265727320666F756E642C206F6E6C79202564206D656D62657273207765726558
:20101C0020666F756E6400C0496E73756666696369656E74204D656D6F72790044697363B5
:20103C006F766572696E672E2E2E00C0ED070210D1720100D82C002038B586B004468DF8F0
:20105C0005104FF6FF720120ADF80220090ADFF85C5AADF8000002238DF806108DF8043003
:20107C0069462A78204619F047F8162803D12978204619F03DF807B030BD3EB504000D4610
:20109C001ED0DFF82C0A0068224619F02DF8FF2815D000200090002301AA294620460DF0DF
:2010BC00C1FA60B99DF8040000F075F9C00606D59DF8040000F06FF910F0040000D00120C2
:2010DC003EBDFEB5164615244FF6FF7290420D4615D100208DF80400DFF8D0799DF804008E
:2010FC00F97988421AD23246294600F03AF800B100249DF80400401C8DF80400EEE718F073
:20111C00EFFF50B100F0A6FB40B99DF804003246294600F026F8002400E014242046FEBD4F
:20113C007CB50D46044606214C43164600F080F8A8B900F078F890B99DF80700002E14BFA4
:20115C00054320EA0505E9B2814206D08DF807506A460821A0B216F09FFD012076BD0020C6
:20117C0076BD2DE9FC410646344606235C438846154600F05DF8002852D100F054F8002822
:20119C004ED1DFF82879387A800018F085F8040002D100F02FFA43E0397AE0368906224612
:2011BC00090EB0B216F050FD002835D1204600F058F85FEA08000ED13A7A9206120E0021B6
:2011DC00204617F0D5F938BB3A7A92000021204617F08EFE16E0214600F030F858B92800B7
:2011FC0004D02146002000F029F810B900F0E1FB16E0A0F800808178A9420DD085700DB948
:20121C0000210180204600F02CF8397A89062246090EB0B216F040FD00F0CBFB012000E079
:20123C000020BDE8F6810622FF21684617F0A0B920346A460821A0B216F006BD70B5DFF8BC
:20125C006C381D7A002200E0521CD4B2AC4206D231F824608642F7D101EB840070BD002081
:20127C0070BD10B50021DFF844280AE030F82130DB4320F8213000EB8103491C9C78E44303
:20129C009C70137A9942F1DB10BD2DE9FE4FDFF81C480646207A0F4691469B46800017F00D
:2012BC00FBFF5FEA000803D100F0A4F90A206CE00C9D0297B246062717FB0AF7029A07F1E2
:2012DC002000082100F064F88DF80400304600F09FF8227A9200FF21404617F009FE9DF860
:2012FC0004000090E036217A89064246090EB0B216F0D2FC009E02990643206A082200EB08
:20131C00CA0017F0EBFDBDB10299887900232A4600F0010018F0E0FE00281CBF9DF93C00AF
:20133C00002803D0DFF88C170120087007F123002A4600F02CF806435FEA090205D007F17A
:20135C0021001C2100F024F806435FEA0B0205D007F122001C2100F01BF806430D9A62B136
:20137C0007F1240000F013F8054625370EAA0421B8B216F091FC05432E43207D08B100F0BA
:20139C009EFA404617F090FFF0B2BDE8FE8F102180B216F081BCE0B50623584320306A46AA
:2013BC00082180B216F050FC10B99DF807000EBD00200EBDDFF8F406007808210CF066BABB
:2013DC0038B50025DFF8E44619E0206A062313FB05F300EBC5022033082198B216F034FC7E
:2013FC0058B1206A0622FF2100EBC50017F080FD206A00EBC5010022CA716D1CEDB2E179A8
:20141C008D42E2DB207D10B1BDE8314057E231BDF8B5DFF89816DFF8A036C9791E680C4690
:20143C000A4600E02A46D5B23DB1551ED2B2324412F8017C8742F5D12C46E4B220464D1E1F
:20145C0007E01718165C7F7817541A680244401C5670A8421A68F4DBAC4204DABDE8F840B8
:20147C00052016F019BCF1BD70B50024DFF83C5600E0641CE879E3B283420BD22B6AE6B2CB
:20149C000622FF2103EBC60017F072F80028F0D0E0B270BDDFF82426117839B1DFF8180693
:2014BC0001680C78204600F013F8204670BD38B500200024DFF8F45503E0E0B200F008F879
:2014DC00641CEA79E1B2914201D20100F5D032BD2DE9F84F83465D46062313FB05F58EB0E7
:2014FC0005F1200701AA0821B8B216F0ADFB002873D10622FF2101A817F03AF800286CD1CC
:20151C00DFF8A865307A800017F0C6FE5FEA000903D100F06FF80A2061E01C22FF2103A8E5
:20153C0017F0E6FC327A9200FF21484617F0E0FC05F123040AAA1021A0B216F085FB60B9E4
:20155C001022FF210AA817F013F830B99DF80A0001A900F0010018F0BBFD082200F042F822
:20157C0001AA0821B8B216F097FB8DF8000003AA05F1210000F03AF8074605F1220003AAFC
:20159C0000F034F8804603AA1021A0B216F084FB044605F1240003AA102100F028F882467E
:2015BC00253503AA0421A8B248EA070716F074FB2743317A9DF800504AEA070707438906BF
:2015DC000BF1E0034A46090E98B216F065FB0743484617F069FE3D4300E0002528460FB0C1
:2015FC00BDE8F08FFF2101A817F082BC1C2180B216F052BB042016F047B92DE9F84187B06B
:20161C00FF208DF80000DFF8A454E87917F044FE040003D1FFF7EEFF0A2030E01022FF214A
:20163C0003A817F065FCEA79FF21204617F060FC0622FFF7D7FF03AA1021022016F02CFB0E
:20165C00064603AA1021032016F026FB06436A460121042016F020FB0746E979224605205E
:20167C0016F01AFB054601AA0621062016F014FB804600F09EF93E432E4348EA060008B0AC
:20169C00BDE8F081DFF824144088097816F064BAF0B5A9B006460D46144618F021FD08B9BE
:2016BC001420ACE0A4220021684617F021FCADF800600DF12607DFF8F463F078B17B8DF81E
:2016DC000400F07B8DF8A000279861F30000B17B27908A074CBF0222002220F0020010431D
:2016FC002790CA064CBF4FF48072002220F48070104327908A064CBF4FF40072002220F451
:20171C000070104327904A064CBF4FF48062002220F480601043279049074CBF04210021F2
:20173C0020F0040008432790307C02280CBF01200020787418F0C8FC412807DB307C00B135
:20175C0008209DF8991008438DF89900B07CB8B10121B974202206F18C010DF1390017F0B6
:20177C00BDFB202206F1AC010DF1590017F0B6FB202206F1CC010DF1790017F0AFFB00E092
:20179C00B874707B8DF8050090B1DFF83473102207F110010DF1060017F0A0FB9DF89900BE
:2017BC00082805D1102239460DF1160017F096FB307B8DF8260030B11022DFF808130DF151
:2017DC00270017F08BFB307948B1022D18BF032D03D1279840F002002790012100E00021C2
:2017FC009DF899000143B0788DF8991000B1042001438DF899106846214618F061FC29B06B
:20181C00F0BD2DE9FC41154615244FF6FF72904288460DD10027A54EF179F8B2884216D204
:20183C002A464146FFF77CFC00B100247F1CF3E718F056FC50B100F00DF840B99DF80400FB
:20185C002A464146FFF76CFC002400E014242046BDE8F681002100910023417901AA01F02E
:20187C000101801D0CF0DEBE70B504460D4606204543082B88B0164603D1300758BF223565
:20189C0000D521351C220021FFF7ADFE01AA1C21A8B216F0D9F980B99DF81E00C01F0A28EA
:2018BC000BD29DF830000090F20801AB02F0010206F00101204618F0FFFB08B070BD38B50D
:2018DC0018F0F6FB0024794D0FE0286A0622FF2100EBC40016F04CFE28B9286A00EBC4011E
:2018FC00002018F0E1FB641CE4B2E8798442ECDB31BD3EB50C46002501460095002301AAC2
:20191C0020460CF08FFE38B99DF80400FFF743FDC00601D401203EBD00203EBD2DE9F041E3
:20193C00694F3C6806468846154603E02089B04224D02468002CF9D10C2017F0ADFC0400E6
:20195C0019D0268184F80A8000202060E07245B10821284616F044FF606018B900F029F86B
:20197C000AE06060396811B93C6004E0014608680028FBD10C600CB9152018E018F090FB1A
:20199C0008B1002013E00120E0722A4641463046FFF77EFE04464548C06900281CBF43685F
:2019BC00002B03D000220021304698472046BDE8F081204617F078BC38B50546424804682A
:2019DC0003E02089A84204D02468002CF9D1012032BDE07A012807D100F05CF820B1334824
:2019FC00007804210BF052FFE17A491CE1722846C9B200F002F8002032BD38B5022904468B
:201A1C002A4D02D003290DD01EE042F6C921FFF713FB02001CBFE869002818D04368B3B1E7
:201A3C0005210CE042F6A621FFF706FB01001CBFE96900290BD04B684BB1024604212046CE
:201A5C0001B0BDE830401847BDE8324000E031BD10B51D4A1468002101E0214624686CB1A6
:201A7C0023898342F9D1206800290CBF10600860606808B117F018FCFFF79BFF002010BDA2
:201A9C00024604201049096819B10B899342FAD1C87A70470C48006828B1006818B1C17AFC
:201ABC000029FAD17047002070470000E8180020680F002001370020943600200037002038
:201ADC001834002048340020983600202DE9F04385B0064600208946009090461C46B17949
:201AFC00002304AA30460CF09DFD20B1FFF7BCFC8DF810001BE0D4B19DF8103006204343D8
:201B1C0023336A46102198B216F09EF878B91022FF21684616F02CFD48B9B079314600F09B
:201B3C00010018F0D5FA10B1194901200870194F9DF81000F979884227D20120039000946B
:201B5C0043460C980D990E9D019002914A469DF810003146FFF799FB044655B1397A9DF8F9
:201B7C0010008906E0302A46090E80B216F094F80443200005D09DF81000FFF7A9FCFFF7DD
:201B9C001FFC204605B0BDE8F0831520FAE700BF01370020E81800202DE9F84FDFF894576F
:201BBC00696884B0019121B905B0BDE8F04F18F073BA0978DFF88067DFF88077012918BFBC
:201BDC00022946F2A81A40F6C41941F64C580AD004291CBF0829102905D0402918BF8029CC
:201BFC0000F0C0819CE317F06BFC0028FAD0012014F0C0FE20B1012015F064F914F04AFE36
:201C1C00082014F0B7FE20B1082015F05BF914F041FE102014F0AEFE20B1102015F052F901
:201C3C0014F038FE0198007802F054FA0090002460B1007801281CBF0828102802D10098E9
:201C5C00446803E0009814F025FE0446DFF8F0164878002800F0F08007F00EFF17F0E4F8C4
:201C7C008246DFF8DC16DAF800000190002CD0F804B09AF80600C87004D00199009817F0CF
:201C9C00C3FD022800F0AB8000990A78012A0AD0022A11D0042A56D0082A00F00A81102ABB
:201CBC0000F034813CE318B918F0F2F94044A0600120A87011212CE105223A70C8B918F02A
:201CDC00E7F94044A060DFF87C266069A1681368DE69DFF874361B78B21D03EB8303D25AF4
:201CFC0009FB0219C0F82090A068DFF858160A6810615246DFF84C060168CB69DFF848167E
:201D1C000E78981D06EB8606815B00980EF0E2FB61696269D27F02F0EF02CA7700286169A4
:201D3C006269D27F42F08002CA770CBF0121022162696369DB7F03F0F0031943D177616921
:201D5C004862022049E006213970C8B918F0A0F94044A060DFF8F4256069A16813685E69F8
:201D7C00DFF8EC351B7806F10C021B01D25A09FB0219C0F82090A068DFF8D0150A68D06082
:201D9C00DFF8C8653068007C0EF0EEFD30684169DFF8BC05067801F10C0336010098995B0A
:201DBC0052460EF097FB61696269D27F02F0EF02CA77002861696269D27F42F08002CA77D2
:201DDC000CBF0121022162696369DB7F03F0F0031943D177616948620420A870D7E101985B
:201DFC00017880290CD10820DFF8681538700A78DBF81400012A1ABF716A0978012113E0C6
:201E1C00072038709AF8060017F0E6F90446207BC10700F1CE80DFF83C050178DBF81400F5
:201E3C0001291CBF716A4978C1729AF80600DFF81015887001986EE20098002823D00199F0
:201E5C00009A0078DFF80465914212D1012809D002280DD0042800F08080082802D01028FF
:201E7C0006D002E0002C03D160E2002015F00CFD8DE1012808D002281FD004284BD008281F
:201E9C0015D0102840D04BE2002CEDD018F000F90146A068514416F0EDF918B918F0F8F849
:201EBC004044A060112038700121A9706FE1002CDAD00820A87012212BE0052038700222D9
:201EDC00AA7018F0E5F80146A068514416F0D2F908B100F05CB918F0DBF84044A060DFF83E
:201EFC0064246069A1681368DD69DFF85C341B78AE1D03EB8303F55A09FB0519C0F8209099
:201F1C00A0681168086142E1002CADD01020A870132139703BE1062038700422AA7018F098
:201F3C00B7F80146A068514416F0A4F9A8B918F0AFF84044A0606069A16832685369DFF8BC
:201F5C001024127803F10C051201AB5A09FB0319C0F82090A0683168C8603068007C0EF027
:201F7C0003FD14E1DFF8D8134878002800F0388107F082FD16F058FF8246DAF800000290FE
:201F9C00D0F804B0DFF8B803807816F04DFF0390DFF8AC139AF80600C87001980178402959
:201FBC0013D19AF8060017F017F90446207BC1070BD59AF8060016F037FF052115F0E0FD09
:201FDC00207B00F0FE002073B0E117F073FA10F01F0F32D0012014F0CDFC20B1012014F0B0
:201FFC0071FF14F057FC082014F0C4FC20B1082014F068FF14F04EFC102014F0BBFC20B1A4
:20201C00102014F05FFF14F045FCA87802F062F80090007801281CBF0828102802D1009882
:20203C00446803E0009814F035FC0446002C04D00299009817F0E8FB022800F0AD800099E1
:20205C000A78012A08D0022A16D0042A5AD0082A0DD0102A51D09CE018B918F019F8404421
:20207C00A0601120387001210098A97053E10820A870122139708AE005213970B24EB14F0F
:20209C00A8B918F005F84044A0606069A1683A68D369327803F1060C02EB82023CF8023003
:2020BC0009FB0319C0F82090A0683968086152463868C16930788B1D00EB8000195A009842
:2020DC000EF008FA61696269D27F02F0EF02CA77002861696269D27F42F08002CA770CBF0C
:2020FC000121022162696369DB7F03F0F0031943D17761694862022048E01020A8701321CA
:20211C00397044E006213970914EA8B917F0C0FF4044A0608D4A6069A16813685B6903F1A0
:20213C000C0233781B01D25A09FB0219C0F82090A06886490A68D060844F3868007C0EF095
:20215C0013FC38684169307801F10C0300015246195A00980EF0BEF961696269D27F02F030
:20217C00EF02CA77002861696269D27F42F08002CA770CBF0121022162696369DB7F03F01A
:20219C00F0031943D177616948620420A8700098C1E0002015F078FB039850451ED0029952
:2021BC006C480A78802A0AD10821397000780128DBF814001ABF716A0978012109E0072285
:2021DC003A7000780128DBF814000EBF0121716A4978C1729AF806005949887002989AE0AD
:2021FC0017F068F910F01F0F35D0012014F0C2FB20B1012014F066FE14F04CFB082014F075
:20221C00B9FB20B1082014F05DFE14F043FB102014F0B0FB20B1102014F054FE14F03AFBE5
:20223C00A87801F057FF0646307801281CBF0828102801D1746803E0304614F02BFB044640
:20225C003078012808D0022816D004283BD008280DD0102832D069E0002C67D017F018FF61
:20227C004044A060012111203870A97052E0002C5CD0A870122124E00520387017F008FFF6
:20229C000146A068514415F0F5FFA8B917F000FF4044A0602B4A6069A1681368DB699F1D98
:2022BC00294B1B7803EB8303FB5A09FB0319C0F82090A0681168086102202AE0B4B3A87015
:2022DC001321397026E00620387017F0E1FE0146A0681E4F514415F0CDFFA8B917F0D8FEEB
:2022FC004044A0606069A1683A685369184A127803F10C0C12013CF8023009FB0319C0F8C5
:20231C002090A0683968C8603868007C0EF02CFB0420A870304605B0BDE8F04F0AF062BA7E
:20233C0005B0BDE8F04F002015F0AEBA05B0BDE8F08F00BF243600204CC20100C80F002043
:20235C00780E0020500F0020D80F0020540F0020D90F0020CC0F00202DE9F84F054688B0CF
:20237C00A978DFF84466002710294FF0060A3CD8DFE811F0110015031503150315033C0067
:20239C00CF0015031503780215010001CA0215034E0290020D036878002826D117F074FE43
:2023BC00044617F06DFE054617F066FE8DF8000022461021022015F06FFC2A46102103201B
:2023DC0015F06AFC6A460121042015F065FC9DF80000012818BF032807D1012017F090FECC
:2023FC0002460621062015F057FCD8E268780028FBD195F80CB06C8900900023E97801AA49
:20241C0001F00101281D0CF00DF900284FF0010875D19DF80400FEF7BEFF8146BBF1080FDB
:20243C00307A08BFB846800016F036FF050003D1042015F029FAB2E270789DF804100228E2
:20245C000CBF0120002000905B464A462046FFF70BFA1422002102A816F04AFD9DF804004B
:20247C001AFB00F0243002AA102180B215F0ECFBB0B91022FF2102A816F07AF880B99DF841
:20249C0004001AFB00FA0AF1250306AA042198B215F0DAFB02AA09F00101204617F0E8FDF8
:2024BC00317A9DF804008906E0302A46090E80B215F0CAFB98B92846FEF7D3FEBA4609E02C
:2024DC0005EB8000018819B18278204615F092FE0AF1010A317A5FFA8AF08842F0D3B07AED
:2024FC0030B95FEA897003D53178204615F034FB9DF80400FEF78CFF284616F0D5FE707832
:20251C00022805D1B8F1000F02D0204611F0C6FA45E2A888FFF79CFA17F0A6FD0028F7D171
:20253C00707D012808D1FEF7C2FFF279706A7775002116F0DDFC17E0B07D012803D1FFF792
:20255C005CF8B77510E000240AE0706AE5B2415D012904D1E0B2FEF7BBFF716A4F55641C93
:20257C00E0B2F1798842F0D3502015F063FFFEF727FF14E217F094FD00280CD0F0690028B1
:20259C001CBF0468002C07D0286900906B7B2A7B6989E81CA04701E268890121F4E16878A1
:2025BC000024002840F01D81A879C10740F119810822002105A816F09BFCA88817F090FDD8
:2025DC00040076D06F694FB30622002107F1110015F0CEFF68B306220021384615F0C8FFE9
:2025FC00D0B9387C00F001084FF0000909F1010987F811900020009000230022414607F1A9
:20261C0011000CF00FF800285FFA89F002D10028ECD101E000280CD1002068610622607908
:20263C0000F001008DF81A00A11D05A816F056FC1FE06F69EFB1387C00F001008DF81A0070
:20265C00062207F1110105A816F048FC6079012805D10622A11D04F10C0016F03FFC06220D
:20267C0007F11101A01D16F039FC387C40F002006071A879410720794CBF40F0020000F056
:20269C00FD002071A9790A0754BF00F0DF0040F020002071A9799DF81B00890801F0010144
:2026BC0008438DF81B00A9790A074CBF0821002108E0FFF7EFF90028ECD0307804210BF019
:2026DC00E5F8E7E708438DF81B000020009000239DF81A1004AA05A80BF0A4FF20B1FEF7F7
:2026FC00C3FE8DF810001AE06869C0B19DF810001AFB00FA0AF123036A46102198B215F027
:20271C00A3FA60B91022FF21684615F031FF30B99DF81A0005A900F0010017F0D9FC9DF80A
:20273C001000F179884258D2E968686900290CBF00220A69002303930292019100902B6961
:20275C00AA689DF8100005A9FEF79FFD0446AF88B06A4FF6FF7848B906F118010091022349
:20277C00924A4146012017F07BFCB062B16A19B3FF200390022200230292019307A80090E2
:20279C000DF11203328B384604F09CFC68B99DF812009DF8131000EB012290B228B1B06A80
:2027BC00418992B23846FEF78CFC328BB06A0023414617F051FCB062200005D09DF8100073
:2027DC00FEF786FEFEF7FCFD200007D1707A0028A88804D1FFF7F0F803E01524A888FFF747
:2027FC0037F9F06900281CBF4368002B0FD06A78A888012198476878002808D1A879C1079F
:20281C0005D5F369A88822465C680321A047BEE0687806281BD1A88817F062FCB8B1F17CFC
:20283C00012904D013D3032907D00CD30FE04179A8880022FFF772F809E00022002140F2FD
:20285C00094003F0EBF8A888052117F001FCF06900281CBF4368002B03D06A78A8880221A9
:20287C0098479BE000970023E97801AA01F00101281D0BF0D7FE0028F3D19DF804001AFB7A
:20289C0000FA0AF1250305F10C02042198B215F003FA83E0F06900281CBF4368002B03D022
:2028BC00A888002200219847707810B9A88805216AE0A88817F014FC040070D0A87AC107E4
:2028DC0012D5009700236179002201F00101A01D0BF0A8FE00281EBF60790028012803D0EC
:2028FC00E868C0F3402028B1307C022807D1A87A010704D4A888032117F0A6FB4FE06179CB
:20291C00A88805F1080227E02F7BAD88284617F0E7FB040042D017F0C3FB00283ED100908C
:20293C000023617901AA01F00101A01D0BF07AFE28BB9DF80400FEF72EFD07F00C07042FD7
:20295C0011D0082F0BD00C2F0FD100F0090109290BD0617900222846FEF7E0FF1EE010F00A
:20297C00090F02D1F5E7C107F3D501220092A37C9DF8041002462846FEF776FF0EE0707871
:20299C000028E6D10521284617F05EFB06E0FFF781F818B1307804210AF078FF0127384646
:2029BC0009B0BDE8F08F00BFE81800204CC301002DE9F04F0646B04CDFF8C092DFF8C0A230
:2029DC00B178E079ADF12C0D002900F01182491F00F01981491E00F08480491E56D00A39B9
:2029FC0035D0091F40F0A782616AE0B1002908BF207A0CD004F13C0015F043FF606A14F02D
:202A1C0091F90021207A6162401EC0B2207200904F46397860690022C4A30831C9B214F050
:202A3C00E2FF0CF07DFAA07800280CBF4B266B264F46397860690022C8A3C91CC9B214F019
:202A5C00D2FF50463146F24315F062F973E2B77BF5888DF812707289ADF80A50B088ADF805
:202A7C000E203389ADF80800C349B789ADF80C30012502AAADF8107010208DF8135005F072
:202A9C0021FDE079002840F04E8154E2BB49B288102002AB05F016FDF0B94F46F0786569AF
:202ABC003F787F1C58B90DF10A0011F093FF0090BDF81C10BCA3480000EBC10006E00DF154
:202ADC000A0011F087FFB1780091BEA30190F9B20022284614F087FFE079002840F0238183
:202AFC0029E2B7884FF0430BE8B104F13C00804616F076FE061C16D04FF6FF75308A874295
:202B1C000CD14046314615F0BCFE4046314616F0E6F8B07C00F0FE00B0743582304616F0AE
:202B3C0061FE061CEAD1384611F000FCA17804F582754FF6FF7C08220020A5F1100333F8DB
:202B5C00106FB74204D0521E00F10100F7D104E0491EA3F800C0C9B2A1700646E07908B153
:202B7C000CF0DEF9082E01DB16F086FB05EB0610001D11F02FFF00904D4609902978606955
:202B9C00002296A3C91CC9B214F02DFFA0780090297860690022DDA3091DC9B214F023FFB3
:202BBC00564694F80280D6F81C904FF0010A0025A94512D8B8F1000F18BF4FF0630B3046DC
:202BDC006FEA0B02594615F0A3F86089B84240F0B281304613F0E6FFADE1706A099950F83E
:202BFC0035000F2215F016FA50B906F114000AFA05F1002215F08CF894F80280D6F81C90FD
:202C1C006D1CEDB2D4E77589311D361DD8B1676ACFB1626A084608321146062215F0D2FD95
:202C3C0088B1616A04F13C07384615F02AFE616A384616F05FF8616A887C40F001008874EF
:202C5C000D820027676294F802C0B6464FF0000804F5827208234FF6FF768DF82380A2F1BB
:202C7C001000414630F8107FBE420BD05B1E01F10101F7D111E0C046E8140020C4200020C3
:202C9C00D82C002005807646001D3368B78803600CF101058780E8B2A070082901DB16F092
:202CBC00EBFA02EB0110A0F80280001D11F092FE4F468346CDF800B03978606942469FA336
:202CDC00C91CC9B214F08FFEA07800903978606942468EA3091DC9B214F085FEA07808289C
:202CFC00B4BF4FF01C094FF01F095646F76945464FF0010AAF4243D86FEA090130464A4634
:202D1C0015F006F89B4910204FF480620DF1230305F0D8FBE079002800F00D819DF82300B8
:202D3C00022800F008810CF0FBF804E14175746F436F6E6E6563743A204E756D62657220BA
:202D5C006F66206D656D6265727320696E207468652067726F757020256400C0436F6E6EDB
:202D7C006574696E6720617474656D70742063616E63656C6C656400D9570110F9DC01101F
:202D9C00706A50F8350059460F2215F043F938B906F114000AFA05F2414614F0B9FFF76915
:202DBC006D1CEDB2A6E7C046557064617465643A2025732C20636F6E6E54696D656F7574A2
:202DDC003A256400557064617465204661696C656420307825683A20257300C02573206924
:202DFC007320646973636F6E6E656374656400C06149624A1020002305F064FB604910209B
:202E1C004FF4860205F05EFB4FF4487001225D49009013460190102005F054FBDFF868B1DB
:202E3C0006271020002208ABADF82070594605F049FB012510200DF122038DF822502A4657
:202E5C00594605F03FFBA84610200DF122038DF822803A46594605F035FB40F6020003227F
:202E7C0008ABADF820005946102005F02BFB502710200223454D00974246294605F022FBD6
:202E9C001020032300974246294605F01BFBB088432100222082504614F03AFF4F463978AE
:202EBC006069002229A3C91CC9B214F09CFDA078009039786069002214A3091DC9B214F0A2
:202EDC0092FDD4F814903D78B01D11F083FD6D1D24A10091002220A30190E9B2484614F051
:202EFC0082FD002017F00CF9026804F135010A608088888066693D7804F1350011F06AFDE6
:202F1C00AD1D0090002218A307E0C0464E756D20436F6E6E733A20256400E9B2304614F028
:202F3C0062FD092040F6B83243461949009004F1580012F09FF90BB0BDE8F08F436F6E6EFE
:202F5C00656374656420746F20257300496E697469616C697A656400257320416464723AB2
:202F7C0020257300494400C0525020416464723A20257300B1CC000089610210B16F010067
:202F9C00C5690110F5F9011095390110D5F40110F17301002DE9FC47D44C0F460646F80B9C
:202FBC0080F00C826078B90F80F0AC81B90880F09F81DFF84C83F90A80F00281390B80F019
:202FDC00CC80380907D2F80FC0F02E8227F080470FF00EFE28E216F0B5FB814615F0BAF9E0
:202FFC00002800F0B480082016F094FA002840F0AE80802016F08EFA002840F0A8806846CB
:20301C000DF0A6F8012803D10098002800F09F8094F84102002840F09A8000250126E8B206
:20303C0015F052FF48B1837A3BB1867290F9090006FA00F0C0B213F05FFF6D1C032DEED375
:20305C00032084F8240004F5CE7016F075FB484616F0F6FFC34800252A460168056050F8A5
:20307C00081CD44940F8085C04F1600015F092F840460068006B8047A168401A010BE06A9A
:20309C00C1F1FF3282422CBF08444FF0FF30E06294F8300020B12069E16AB1EBC02F25D99C
:2030BC0015F068F9294600B13146081C1BD0C24840F6090101804580417B06F00F0221F084
:2030DC000F010A434273017B05F00F0321F00F0143EA010202732946416016F0BDF84188E5
:2030FC0011F4406FFBD084F83060E56212F00EF9D14829460560022014F0FCFE022014F0A6
:20311C0039F911200AF040FF207818B96068503016F05AFBC948007810B90E200AF034FF3E
:20313C0094F8310020B184F83150052014F022F9C348A06284F82450B4F9B400B4F9B610D3
:20315C00884214BF022007200EF0F4F802E0484616F076FF27F008073AE720B1042014F058
:20317C0009F900206070656813F074FC38B128462D6A6FF4807100224FF00073A847E068B4
:20319C0058B140460068006B8047E2686168801AC860000BC8600026E660AA4904F160002E
:2031BC00002214F0F7FF0221D4F8A00084F8241018B104F1E00016F01DFB27F4006707E76C
:2031DC0016F0C0FA064615F0C5F8D4F898100028894600F08480002900F081809A49042580
:2031FC0004F16000002284F8245014F0D3FF304616F026FF04F5CE7016F09EFA4046006812
:20321C00006B8047E0604FF0010884F80180284614F0C8F8D9F810006060D9F81000816A3C
:20323C00C90803D3436A294600229847404610F005FC606880F8198060680BF0DDF86568E9
:20325C00D5F808A040F60A02D01F564600F1010C00E01E46736833B119888A4203D0884205
:20327C0018BF8C45F5D100217160727B08F00F0322F00F0213437373D9F80C201288904213
:20329C0024D06046904221D02B8F03B3E96305F13802518095F8440001F00F0320F00F0005
:2032BC00034385F8443095F8450008F00F0320F00F00034385F845307260707B01F00F05C6
:2032DC0020F00F0045EA0001717300E0E160504615F0C2FF5146404614F00CFE02E030469F
:2032FC0016F0AEFE27F480679EE0C046E00F002006F018FDD4F8A00008B927F0020793E0A0
:20331C008C010010514A116841F08001116020B1042014F02FF80020607016F013FA8046D4
:20333C004B480068016804208847216A81421BD1357ECDB1A568BDB1D4F8A8506DB1E96801
:20335C00098840F60300884204D0E9680988401C884202D106F1140001E006F1100012F019
:20337C0075FD06E01410044040F6C411316171612062404616F064FE13F06CFB80B1356A58
:20339C0030466FF4807100224FF00073A847D4F89800002808BF47F0020701D00FF028FCFD
:2033BC00F569002130464FF080630A46A84727F0005739E0153F0100C435002016F0C2F9E5
:2033DC00D4F8B06066B306F1280106C90A234FF0E0450B40154008BF002B21D106F12801B8
:2033FC0091E8000306F1280595E8060006F1280322EA090221EA080183E8060016F020FEAC
:20341C00B16879B1B9F1000F08BFB8F1000F09D03069B6F93010B5684B464246A84701E0AE
:20343C0016F00EFE27F4804727B104F1E000394616F0E0F9BDE8FC87000004601EC1010005
:20345C00D9CA000015C1000051830100CC210840E00100102DE9FE4F0546DFF82404DFF858
:20347C0024640278002A4CD0052A73D0062A00F08080072A18BF082A00F0F7800A2A00F091
:20349C00D381112A02D0132A70D0F1E1DFF8F8331878002116F0D0FD04001EBF606D407874
:2034BC0010F00C0F2DD0216DC0064CBF886CC86E0622016801F10805A91C684615F00EFD3C
:2034DC00287800F00F0105291BD145096946C0F3801016F0ADFD002813D03168684616F0CE
:2034FC00A3FD0746316804F1380016F09DFD87420DD0606D4178C80604D440F2014016F012
:20351C008FFDBBE1607B40F002006073B6E133681E2010FB07F6981906226946C01D15F0A5
:20353C00DDFC606D4178C806F0D5A17B0129EDD1DFF858038178480605D5E90703D4206DD2
:20355C0041F20A4102E0206D41F2044141804183418693E116F024F90028FAD10EF032FFE5
:20357C00012802D0012016F057FD87E10DF005FD84E1DFF81C53286816F04AFD0400F7D0FF
:20359C0020790328F4D1207A00F00F01072937D1C04800684169497A4A1E11425ED0617A13
:2035BC0004F10A035A5C02F03F02252A56DBA17A8A09012A52D111F03F0F4FD0007C15F099
:2035DC0033FCE17ACA074CBF04F1110204F10B028B0748BF921D0B0748BF921CC90648BF7A
:2035FC00D21C1621127852094A43AB498B180A31EB608A5A428699898186DA89C2862DE06E
:20361C0000F00F00082829D1A17A880926D129B3A0480168087C15F007FCE17A07468807D2
:20363C001CD5062201F001015143601800F10C01684615F053FC207AC009FF280ED069463F
:20365C0016F0F6FC50B1306800F10D01684616F0DBFC18B90521384614F092FA207903286A
:20367C0002D0002014F010F9FEE0DFF830B29BF802000024FF281BD015F0D6FB804608F138
:20369C006C09D9F8040016F0C3FC2A460179032901D011000CD08368197801F003008D0628
:2036BC00009003D50124009818B9BAE01000FAD0E4E05D7803F1020A34B31AF8010B784B23
:2036DC0001902C2098F806C01F6810FB0CFC67444FF0010E87F805E0002A1F6898F806E07D
:2036FC0007F11A0C019F10FB0EFE07F01F070CF80E7098F806701B6810FB07F01844019BB7
:20371C00C3F38113C3761AD10098032808F217171AD0ADB199F8000068B108F1F4000278DB
:20373C00012A0DD1564B1A78072A04D0082A04BFC078012804D13D217970012038709DE074
:20375C00584A1378012BFAD098F8940070B32D1FEDB253462A4640460DF074FF00281EBFF4
:20377C0051490878002807D13D21797001203870306816F045FC81E04C48016888470646AB
:20379C0098F80610DBF804204FF4D07041435018002280F8412108F59E7001688079490847
:2037BC000EF074FA42490A68304690470098032819D04048416909788A0708D54169087840
:2037DC00C1074CBFE81C28461AF8000000E0812089F808002A460098C3B29BF802005146C3
:2037FC0005F0D6FD1DE09AF800001CB11B2804BF022D01251C2803D22F490B5C9D4205D082
:20381C00B8700721404616F0F7FB0AE01C48017808295146404602D115F090FF01E000F071
:20383C0075FAD9F8040020E0244C207830B3244D286816F0EDFB08B3017903291ED1017A83
:20385C008A0611D5807AE178C0F38112914202BF217900F01F00814206D1A078002801BF66
:20387C00607800280121A170286816F0C1FB05E0002014F009F8862016F0B6FBBDE8F78F15
:20389C00C80F0020680F0020D50F0020C00C0020BC0A0020540F0020E0070020780E002078
:2038BC0070360020D20F0020FC360020941A0020981A00204CC20100E4C201000C3600201B
:2038DC00AC0C00202DE9F04F0F46380589B018D5DFF8E4532888FF280ED0C0B215F0A4FA0F
:2038FC00040009D0A079162116F07AFB204615F091FA204616F070FBFF20288087F4006095
:20391C00D6E1F80504D50EF0F8FF87F48070CFE1B80604D50BF050F887F02000C8E1F807D5
:20393C000CD515F081FC30B100218160DFF88C03006800B1804787F00100B9E1380704D5B5
:20395C0005F004FB87F00800B2E1F8060FD50021002200230691059204910393029101927E
:20397C000091022016F034FB87F01000A0E1B8070FD5002100230691059104910393029169
:20399C000191009101223C2016F022FB87F002008EE179074FF01E08C94EDFF828A340F18F
:2039BC00CD80C9480022002108920791007816F043FB0446C5488178FF2904BF002013F0FE
:2039DC0063FFA07A15F030FA05469AF8000095F82E91002805F5947B69D0606D807A02289C
:2039FC0018BF032807D130680D3016F0EDFA10B93068C11D07915946484616F019FBA0B39E
:203A1C00606D807C3368002818BF012804D11946584616F009FB04E05A464946184616F0AB
:203A3C0063FBFF2843D018FB00F83068404406225946C01D15F052FA306810F8081040447A
:203A5C0000F1010BC01D41F0020908900622616DC87A00F0010085F82E01606D00F10C01FC
:203A7C0005F5947015F03AFA21E05946484616F0A7FAE0B130685A46494616F035FBFF2869
:203A9C0015D018FB00F8306840440D3016F09CFA58B9306840440D3016F096FA002801BF3D
:203ABC0030684044417F012901D149F0020905F12C004B460178069142891209059201226B
:203ADC00698C0491C0880899029140080390CDF800B0079801900020A97916F079FAD5F8BC
:203AFC009C017B498842A8790CBF0021012116F063FA7848AB7902682C214B43134401224A
:203B1C001A73AB7904684B4323445A73AB7904684B4323449A73AB7904684B432344DA7346
:203B3C00AB79006811FB03F10144002008740720A9790CF0F0FB87F00400B9E038060FD596
:203B5C0000210023069105910491039302910191009101223B2016F03BFA87F08000A7E0C0
:203B7C00F8045DD55C4930680C680D3016F02CFA002844D13068C11D0D3016F019FA3EE0BA
:203B9C00606D4178480704F13E0526D5287802281EBF03286878012830D16978306804F1B7
:203BBC00380216F0A1FA8146B9F1FF0F15D0306818FB09F948440D3016F006FA68B9306875
:203BDC004844C11D0D3016F0F3F930684844C11D062204F1380015F081F92878022818BFB9
:203BFC0003280BD130680D3016F0EEF930B93068C11D062204F1300015F070F92468002C0E
:203C1C00BED13648DAF8042000784FF4805111F037FF10B18E2016F0C7F987F4805047E01B
:203C3C00B80505D515F010FC2D4901200860FEE7780504D514F0C9FC87F4806038E07804CE
:203C5C0005D5812016F0B0F987F4804030E0B9042DD5244C206810B1002013F015FE4FF0E6
:203C7C00FF3020600020204C0DF0D4FF216851F8202F684690471D494A6B086BC96A24682A
:203C9C001B4B019200900293ADF810106B46194A19491A4803921A4A07922568194AA847DC
:203CBC001949086003F00EFD87F4005000E0002009B0BDE8F08F00BF66210020480F00209B
:203CDC00680F0020880E0020D70F0020780E00204DE50110703600204C0F0020C70F002055
:203CFC007C052043380F0020200F0020A81B00202592010035920100EC350020002B00201F
:203D1C001EFB0080EC0A00201C0F00202DE9F043044685B0084611F801CBDFF8A883DFF8C9
:203D3C00A8332C22BCF1030F4FF0000904F5A47704F1660504F1F40600F0C380BCF1070FDE
:203D5C0000F08381BCF10F0F0CD0BCF1110F00F02781BCF11A0F00F03981BCF11B0F00F000
:203D7C00648191E1707A820703D40F2184F8191159E008784A7800EB02233B808878CA7828
:203D9C0000EB02237B8008794A7900EB0223BB808879CA7900EB0223FB80087A38724A7AAE
:203DBC00887A02EB00237B81C87A0A7B00EB0223BB81487B8A7B00EB0223FB81C87B0A7CA9
:203DDC0000EB02233B82487C8A7C00EB02237B82C87C0A7D00EB0223BB82487D897D00EB55
:203DFC000122BA48FA8201788A0658BF4FF01A0913D504F5AA70049079890391387A02901B
:203E1C0021890191F8880090BB887A883988204616F0C6F8C8B14FF01E09707A410706D41F
:203E3C000F2084F81901204616F0B6F8F3E04A460F21204616F0ACF8F8880090BB887A888F
:203E5C00A179484610F0A0FCECE004F1860079888180BA88C2800222F98801810270A0F804
:203E7C000290A18EC91DE983628E8188B1EB520F02BFC188A28E914202BF0089E18EB0EBBC
:203E9C00111F1CD0287C012804BF687C0F2809D0687D00281CBF687C1A2803D00F21A97636
:203EBC00FE2179E0FC21204616F0A6F8F8880090BB887A883988A07916F066F8B2E01021F1
:203EDC006AE0707AC20709D431781A200129707002D1FF220D213BE00D215DE085F800904A
:203EFC0085F8069001233371082204F1B00016F047F80146022204F1B80016F041F804F16B
:203F1C00A80801460822404616F03AF807460821404616F031F804F19C08042239464046B7
:203F3C0016F02EF80421404616F026F804F1A00016F01EF804F1980016F016F864480188E3
:203F5C0041F0800101803078012805D1FF220421204616F005F865E06E7C0F2E18BF142E37
:203F7C0007D00E2E18BF0C2E03D01A2E18BF162E11D12F7C204615F0EFFF0421204616F054
:203F9C003BF8012F05D11A2EAE7614BFFD21FB2102E0314600E00421204616F02DF841E043
:203FBC000E783E761A2E497879766DD11868A679411C564301F806901968A37912FB03F2B2
:203FDC000A4482F80490A179787E56E0A77918680E785743074406F01F0117F8210FB60904
:203FFC0038B17878F040C00703D594F89601042805D120221A21204615F0CAFF12E0F970CC
:20401C00A179186812FB01F28118204681F82360002115F0C7FB28B998F800004FF4804192
:20403C0009F034FC4FF0010932E0A179186851430144C88808B981F80190A179186812FBAB
:20405C0001F2811881F80490ECE709780F2917D01A2919D1A1791868514301441A2081F8E5
:20407C000190A1791B6812FB01F2991881F80490F17A01F0FB01F172A17908F03CF8D1E77F
:20409C00717A01F0FD0171720146204615F060FF687C1A2812D1A87C17281CBF1028FC2893
:2040BC000CD12E7C204615F057FF012E03BF1A20A876FB211A21204615F09EFF484605B0B1
:2040DC00BDE8F083C70F002070360020200E00209C0F00202DE9F041FF2805462AD115F01E
:2040FC00E9F910F01F0F22D0042012F043FC08B1042016E0012012F03DFC08B1012010E044
:20411C00022012F037FC08B102200AE0102012F031FC08B1102004E0082012F02BFC20B119
:20413C000820BDE8F04112F0CDBE13F0ADFB0020BDE8F08112F0C6FE5FEA000814BFD8F83D
:20415C0004400024012D46F2A81740F6C4160BD0022D63D0042D00F0A280082D00F0EF8092
:20417C00102D00F05181E2E7012012F003FC00281EBFDFF81403006800281CBF8788BF000D
:20419C00102012F0F7FBE0B1102012F09BFE05466E6846B9022012F0EDFB20B1022012F062
:2041BC0091FE05466E68012012F0E4FB38B1B068C11BA06814F05EF808B94046B8E728469E
:2041DC00B6E7022012F0D6FB88B1022012F07AFE06460120756812F0CDFB30B1A868C11B7B
:2041FC00A06814F047F80028E7D03046A0E7042012F0C0FB08B10420E8E7082012F0BAFB10
:20421C0030B1082012F05EFE4168002990D1D4E7012012F0AFFB00288AD0CEE7022012F005
:20423C00A9FB58B1994801689948CA69017801EB81015318DF88774307F51667042012F045
:20425C0099FB28B1042012F03DFE06460220C1E7082012F08FFB80B1082012F033FE0546D3
:20427C006E6846B9012012F085FB20B1012012F029FE05466E68022096E7012012F07AFB37
:20429C0028B1012012F01EFE06460220A2E7102012F070FB08B11020B4E70220B9E70420EC
:2042BC0012F068FB50B17B4801687B484A69017802EB01139F89774307F51667082012F0DB
:2042DC0059FB80B1082012F0FDFD05466E6846B9012012F04FFB20B1012012F0F3FD05465D
:2042FC006E68042060E7012012F044FB28B1012012F0E8FD064604206CE7102012F03AFBF4
:20431C0088B1102012F0DEFD05466E68002EE8D1022012F02FFB0028E3D0022012F0D2FD17
:20433C0005466E68DDE7022012F024FB28B1022012F0C8FD064604204CE7042069E715F05B
:20435C0029FA08B1D0F89070042012F013FBA0B1042012F0B7FD06460820756812F00AFBE6
:20437C00002818BF002C16D0A868C11BA06813F081FF00287FF439AF1FE7012012F0FAFAF9
:20439C0060B1012012F09EFD0646082012F0F2FA002818BF002C3FF428AF0EE7102012F074
:2043BC00E9FAF8B1102012F08DFD05466E6846B9022012F0DFFA20B1022012F083FD0546BC
:2043DC006E68082012F0D6FA002818BF002C3FF4F6AEB068C11BA06813F04CFF00287FF40A
:2043FC00EEAEEAE6022012F0C5FA58B1022012F069FD06460820756812F0BCFA002818BFB7
:20441C00002CB0E7082004E7032015F0C5F908B1D0F89870022012F0ADFA50B1022012F04B
:20443C0051FD0646102012F0A5FA002818BF002CB1E7042012F09EFA28B1042012F042FD36
:20445C0006461020C6E6082012F094FA80B1082012F038FD05466E6846B9012012F08AFA09
:20447C0020B1012012F02EFD05466E6810209BE6012012F07FFA28B1012012F023FD06462B
:20449C001020A7E61020C4E684360020500F0020D80F0020540F0020D90F00202DE9F84F21
:2044BC00DFF87C730446386808B90720B5E1C07A012804D0042012F0EBFC012801D10C2047
:2044DC00ABE1DFF860030078092818BF0A2804D00B281CBF0C280D2801D121209DE1002C40
:2044FC0005D0207810B101280BD102E0E01C00F0BC80A078002818BF012804D0022818BF4E
:20451C00032840F0B2806078002818BF012803D0022818BF032874D1607A10F0050F70D080
:20453C000025A84640F67B4243F6FD7340F67746607A0121A940084236D004EB08104189B7
:20455C00A1F1040E9E453EBFB0F80CC0ACF1040E9E4510D2614522BF018BB0F816C061459C
:20457C000BD3C189A1F1060E96453EBFB0F810C0ACF1060E964578D28C4576D3B0F812C097
:20459C00BCF5FA7F71DA808AA0F10A0EB6453FBF0CF1010C490001FB0CF1B1EBC00F64D2F1
:2045BC0008F101005FFA80F86D1CE8B20228BFDD39684C61607A9C4906280CBF01200020E4
:2045DC00087001F0A5FC050008BF09200BD03A68A9791174E01C07D0A278E11C402007F05B
:2045FC0019F808B10B2018E105F16101284615F0ABFC05F12C06B07B012803DC28460AF07C
:20461C008DFD32E039686078DFF82082DFF820B2DFF82092DFF820A288726078002818BF54
:20463C00012807D1C0073B6854BF594641460622181D40E0DAF800000D3015F0C5FC30B97F
:20465C0099F80010002904BF2078002813D16078C10754BF5946414615F0B2FC28B16078D0
:20467C00C10754BF5946414601E01220D5E038680622001D0EE0DAF800003B68C11D062207
:20469C00181D14F02BFC6D4801680868DAF800300622D91D14F022FC6078DAF8001000F024
:2046BC00010008706078C107DAF8000054BF594641460622401C14F011FC207870BBA0784A
:2046DC0085F82E0105F594780622E11C404614F005FCA178DAF80000E21C01F0010115F07B
:2046FC0003FD0146FF291CBF99F80000002815D0A07840F0020085F82E011E22DAF800307E
:20471C0051431944487F48B901F10D0015F05CFC20B906224A49404614F0E0FB15F010FC5E
:20473C00A86214F04DF9686204F11001DFF8F88098F80000000104F114030A5AF280195A04
:20475C0071812044428A328102223868417C3170B2700020B08014F066FF0C2290FBF2F2CE
:20477C000C2101FB1200401DF073042009F0E6FD3968344A344B086042608361334A426176
:20479C000120C872A87913F091FF99F80000002801BF386841690A78012A0ED1807A02287B
:2047BC000BD1DAF8001001F10D0015F00DFC20B92748417941F0040141711A4C2078C8B9A9
:2047DC0099F8001049B12348006815F0B5FB38680068816941F4802181613868007C0CF0D8
:2047FC00C3F806202070012200210BF094FDFDF7D3F911E03A68117ED068526998F80040B7
:20481C0002F10C03240140F6C4121D5B02FB050000F516600AF082FA0020BDE8F28F00BFE9
:20483C00540F0020C80F0020D90F0020480E0020400E0020880E0020680F002090360020C3
:20485C00006E0210040C002002008080A12B0100BC0A00206C0F00202DE9F84F054605F19E
:20487C004C0AE87D9AF80010DAF8047081424FF00008C0F0938105F1280407F1900907F100
:20489C007306C34640F08C80A87F7075E97FB175DAF808205278930710D5EA7FD30604D546
:2048BC00C01E707501F0EF01B175C7F874B086F800800022B17D01F0FE016AE1910608D433
:2048DC00E08B00B1E07E3076E08B00B1206AC9F80000DAF808004178CA070DD5E08B00285C
:2048FC001CBF206A002807D0C9F80000A17EE08B814238BF08463076E87FC1060CD5B86B0D
:20491C00217800EB8100B863B86BA98CA63100EB81007867022002E0C7F874B0002030703A
:20493C00DAF80800417811F0030F22D1007814F035FF5FEA00081CD098F8B000032809D190
:20495C00E87F810615D440F02000E877B07D40F020000DE068B9E87F81060AD500F0DF008E
:20497C00E877707DA0F112017175B07D00F0DF00B075E97F002201F0FC01284608F0A0FCAA
:20499C00B8F1000F36D0E87F810633D598F8B00002282FD141462846BDE8F44F14F004BF39
:2049BC00E87F81060AD500F0DF00E877707DA0F112017175B07D00F0DF00B075DAF808006E
:2049DC004178C80717D5B07D717D00F0F700891E01F03F0182075CBF891D40F002004206A9
:2049FC0044BF491E00F0BF00B0757175C9F800B086F81880D2E09AF80020E87D121AD2B277
:204A1C008907009240F18280012A07F140083FD1B86BA98C00EB8100B863A87F00F03F0075
:204A3C00A8777075E97FB175DAF8082053785A0703D5801F707501F0FD01B1750023707D21
:204A5C00E17E00F03F00421898F80000521CC0F3800192B200F0030015F06AFA00F59B7080
:204A7C00A8841E21A88C90FBF1F18AB2B17D01F0FE01284608F024FC86F800B0E08B00B1E4
:204A9C00E07E3076E08B00B1206AC9F8000085E0B86BA98C022A00EB8100B86326D1E87FC1
:204ABC00C10706D5707D811F7175B07D00F0FE00B0750023707DE17E00F03F00421898F8FC
:204ADC000000521CC0F3800192B200F0030015F02FFA00F59B70A8840022B17D01F0FE0147
:204AFC00284608F0EDFB607FA8F81A00617F0098491C081AC0B201281CDDB96BAA8CA632EE
:204B1C0001EB820179670221317014E0B86BA98C00EB8100B863617F0098081AE97FCA06C1
:204B3C00C0B207D5B96BAA8CA63201EB820179670221317090B395F81F80A97FD9F800203E
:204B5C00E37E1A44C9F8002028F00108DAF808205278530748BF28F00208920748BF28F079
:204B7C000808012807D1207F3076C7F874B028F0100886F800B001F0C004404615F0D4F975
:204B9C0000F03F002043707586F81680002208F0FC012846BDE8F84F08F092BBBDE8F18F93
:204BBC002DE9F043044685B0084611F801CBC24FC24B2C22BCF1070F4FF0000904F5A47664
:204BDC0004F1760504F1FD0800F03181BCF10F0F0CD0BCF1110F00F0D080BCF11A0F00F033
:204BFC00E280BCF11B0F00F0128143E198F800309A0703D40F2188F81C1075E02878012887
:204C1C0004BF68780F280CD0687908B16A7812B12A7B012A07D1580703D40F2188F81C10C9
:204C3C0062E0232265E010B16878012802D0A87E012807D1580703D40F2188F81C1053E084
:204C5C002A2256E008784A7800EB022333808878CA7800EB0223738008794A7900EB022318
:204C7C00B3808879CA7900EB0223F380087A30724A7A887A02EB00237381C87A0A7B00EB7E
:204C9C000223B381487B8A7B00EB0223F381C87B0A7C00EB02233382487C8A7C00EB0223EB
:204CBC007382C87C0A7D00EB0223B382487D897D00EB0122F28204F5AA7004907189039151
:204CDC00307A029021890191F0880090B38872883188204615F064F9C0B198F80000410739
:204CFC0006D40F2088F81C00204615F055F985E01E220F21204615F04BF9F0880090B38873
:204D1C007288A17900200FF03FFD7DE07088A882B188E9820221F08829742883A5F81290C3
:204D3C00A18EA88AC91DE981618EB0EB510F02BFE88AA18E884202BF288BE18EB0EB111FE2
:204D5C0016D0687900281CBF68781A2803D00F21A972FE210DE0FC21204615F04DF9F088DB
:204D7C000090B38872883188A07915F00DF94BE00021204615F040F946E00F7837761A2FE2
:204D9C004978717676D11868A779411C574301F807901968A37912FB03F20A4482F80490E6
:204DBC00A179707E5DE094F806C018680E7812FB0CFC604400F1210C06F01F019CF80000B9
:204DDC00B60940B19CF80100F040C00703D594F89601042805D120221A21204615F0D8F8C6
:204DFC0012E08CF80310A179186812FB01F28118204681F82360002114F0D4FC20B93878FB
:204E1C004FF4804108F042FD4FF0010936E0A179186851430144C88808B981F80190A17934
:204E3C00186812FB01F2811881F80490ECE709780F2919D01A291DD1A17918685143014417
:204E5C001A2081F80190A1791B6812FB01F2991881F8049098F8021001F0FB0188F8021076
:204E7C00A17907F048F9CFE798F8001001F0FD0188F800100146204615F052F868781A28D1
:204E9C0015D1A878182818BF002803D0152818BFFC280CD12E78204615F05EF8012E03BF71
:204EBC001A20A872FD211A21204615F0A5F8484605B0BDE8F08300BFC70F0020703600204B
:204EDC002DE9F043A24CA349A34E20700A22002008600D23A1484FF4097102704380818052
:204EFC0085B09F4A9F48106037789F480770FF2F7178417008BFFF29B2788270F378C370A3
:204F1C00357905717679467114D1FF2A08BFFF2B10D1FF2D08BFFF2E0CD194490A780270FD
:204F3C004B7843708A788270CB78C3700A790271497941718E4902788E4D8F4E8F4F0A70AA
:204F5C0043784B7082788A70C378CB7002790A7140798B4A4871FF2028706870A870E87019
:204F7C0028716871002087490880F06B8649407808708649F06B0078087013888448854982
:204F9C000380F06BC06C08608349F06B90F83C0008708249F06B90F83D0008708049F06B99
:204FBC0090F860000870F06B406901797D484A1E0270F06B7C49C0783870F06B80690860AC
:204FDC0008B912F061FCF06B7849C069086008B912F05AFCF06B416D75480C2213F07EFF5B
:204FFC0014F09AFFF06B7349006A086008B912F04BFCF06BDFF8C081406AC8F8000008B967
:20501C0012F042FCF06B6D49806A086008B912F03BFCF06B6A49C06D002840D001220A75C2
:20503C00F06BC06D02681378C3F3400048B1F06BC06D02681378C3F3C00000280CBF0120E1
:20505C000220487500208860C8600861F06BC06D426890780870F06BC06D4268D0784870D8
:20507C00F06BC06D426813788B70F06BC06D42685078C870F06BC06D426810790871F06B9B
:20509C00C06D426850794871F06BC06D426890798871F06BC06D4268D079C87101E00022B0
:2050BC000A7501F091F907280AD106F043FB20784FF4804108F0EAFB002012F0E5FB43E0FE
:2050DC0040480168884781460DF05CFAD8F8000001688847684613F029FFD8F800200420E5
:2050FC008DF80000694652F8043F00209847364908600FF0B5FDF068344A01883878344BAE
:20511C00014311804846196888470C21314814F051FB284614F0FCFE14F0F6FE2E480021CF
:20513C004FF6FF7201608280F06B90F858102B48006814F049F80121FF2014F021FB2078D6
:20515C004FF4005108F0A2FB05B0BDE8F08300BFC70F0020380F0020D04F0050700E002014
:20517C003C0F0020B63F0050400E0020E8120050500E0020480E00204CC20100C40F0020B5
:20519C000E2200209E0F0020C60F0020D40F0020E636002074360020FA360020FB36002037
:2051BC00F8360020CB0F0020200F0020240F002018360020280F00202C0F0020300F00206A
:2051DC0094350020941A00207C360020A00F0020981A0020FC0D0020800E002090360020CC
:2051FC002DE9F84F0422FF21684613F081FEAA4EB0780024FF2800F04D8113F015FE054636
:20521C00B07813F0E9FF824605F217100178012908BF417800F0C18005F59279B9F80E1051
:20523C0019B199F80C0008F031FB6889288105F1740105F5C978887B984F022804BF05F1BA
:20525C007400847398F80000022805F1740008BF88F80040017F022904BF05F174010C77C0
:20527C00B97AF8793A7B40188218F87A10187A7B05F58D7600EB020BB088401CB0803288C5
:20529C005A443280708808187080D9F80000E0B1834B95F806E01B681C2203F10E0C12FB1B
:2052BC000EFE0E331CF80EC030F81C90D94420F81C9095F806C012FB0CF29A5C00EB42006D
:2052DC00B0F84A30C918A0F84A1012F03BF8F879002804BFF87A002805D1387B002804BF1E
:2052FC00787B00282BD09AF81B000021C009A146AAF80E1010D09AF81C0010F0070F08D1C1
:20531C0000F0F801401C00F0070008438AF81C0002E0A87910F0F6F82989E8892C7441183F
:20533C00A9810122A97908200AF0F5FF5D4948690078810735D5B87B802832D032E0A9795A
:20535C00002208200AF0E7FF9AF81C0010F0070F03D19AF81B00C00903D0A879002110F0E4
:20537C00D1F8B87A10B14FF0010904E0F088401C4FF00209F080A8892989814206D0884254
:20539C00D4D2081A41F2AB029042CFDA287C08B1052901D0082100E03E21284612F0F0FBAF
:2053BC0078E0812005F1740A3F498AF8000091F8200018B12946012014F0EAF928460AF009
:2053DC00E3F902281CD19AF80700022805DB6A46364928460EF0A2FA0446284614F090FD9B
:2053FC00012857D020000DD02246694628460EF0EDFE38B928460AF0C7F9012802D149E098
:20541C00012847D00121284614F076FD01F05CFF01283FD028460FF082FBFCF7BDFB244F9D
:20543C003868B8B3B888AA7990421CBF4FF6FD7188422FD11F48007B13F03EFF040029D099
:20545C0084F80090A8791C4960800A68A879115C217198F8040060719AF90010A171A4F876
:20547C0008B07088608113F0DFFE050005D1FF204FF0FF312073216109E02878207314F001
:20549C0007FE0146A86814F033FD80082061204639688847BDE8F18F780E0020980C0020F2
:2054BC00980E00204CC20100D433002010220020800E002010210020883600202DE9FF4749
:2054DC00AA48017806294FF0010840F04981A84EA84F3068A84C016801F108054FF0FF09AC
:2054FC00297801F00F00072802BFA8788309012B40F09780002800F09480E878C30707D5AE
:20551C000622291D684613F0E9FC2878C0F38019E978880737D5062201F001012B1D51438C
:20553C00194402A813F0DAFC2878C009FF282AD002A914F07DFD002800F08F802068807A13
:20555C00022818BF032804D138680D3014F03CFD002840F00081386800F10D0102A814F0EE
:20557C0053FD002874D02068062202A9001D13F0B5FC707940F0040070710622386802A9B6
:20559C00C01D13F0ABFC4846FF2800F0E480694614F04EFD1E25002800F0A880396868468F
:2055BC0014F042FD2268014650690078FF2900F08280002815FB01F563D1107C13F034FC4F
:2055DC0090F82E11022918BF032901BF3B685A5D01F001018A4253D100F594795819062222
:2055FC004946401C13F0EEF830B906224946634813F0E8F8002843D0206841693868401927
:20561C000622C91C401C13F0DDF8002838D0707940F00800707106226946484613F05EFC39
:20563C0043E011F00F0F1CBF01F00F02012A27D10622A91C684613F051FC287800F00F0181
:20565C000129C0F380199ED1062205F1080168E73068016800220A7184E02168887A02281C
:20567C0018BF032805D138680D3014F0ADFC002889D12068807A002818BF01283FF483AF1B
:20569C0069E0706939684A5D4919491C083814F02BFC3B490A7890425DD070693968491971
:2056BC006A46C91D083814F01BFC3868401906226946C01D4DE000284DD1107C13F0B4FB7F
:2056DC000746206840698278914544D1C11C0622684613F077F800283DD0707969F3C300E9
:2056FC0070710622694607F5947032E021684A69107880BB087C13F097FB82469AF82E0123
:20571C00022818BF032826D138686A46494614F0EBFCFF281FD015FB00F5386841194A7FA2
:20573C00012A04D00D30401914F04EFC98B120684169386840190622C91C401C13F042F850
:20575C0048B1707969F3C3007071062269460AF5947013F0C3FB306801680020087101E035
:20577C004FF00008404604B0BDE8F087C80F0020BC0A0020680F0020540F0020006E0210F9
:20579C00FA3600202DE9F04FDFF84C9204460D460020ADF1440D01461F460D9016460E91A3
:2057BC0083460F91D9F808A0CDF840B00BF0CAFE262803D00BF0C6FE252825D1308843F65F
:2057DC00070181420ED040F60201814206D0B0F5C15F19D1F07B022816DD43E0F07B022843
:2057FC0012DD3FE096F8240002280DDD307C0F2838D13169C1F31421B1F5803F04D00F28DA
:20581C0030D1B1F5A02F2DD1002D2BD056B328784FF0010808FA00F01AEA000F22D0304672
:20583C00594613F0C5FF65606C4DA660A86980B110A800900DA90EAA0FAB304606F056FFEF
:20585C000E980B214FF6FF72502312F05DF9FF2808D013F077FF82462878022804DB50465A
:20587C0014F0EEFB5C46B3E000286DD103F024FC5B495C4E086840F00200086009A8C9F8A7
:20589C00006013F021FD584E5849707809AA0B9005F1E0000FF074F8554905F58E7009AA64
:2058BC000FF06EF809A813F05FFC192109AB3078504A0A9005F1600010F0C6FC4E4A05F1E8
:2058DC007C001A2109AB10F0BFFC4C495A4605F5AC70134610F05AF949495A4605F5CE7025
:2058FC00134610F053F947480068C0F3814030B1454A05F1340004215B4612F055F9B078A4
:20591C00012802D10E2008F031FE05F1A00013F06DFA05F1980013F069FA594685F82410D6
:20593C0085F83010072085F84002A960E962374B1970E960052685F83110354A2E610420E5
:20595C00AA6212F0D7FA287805EB8001401CC1F8B840C0B22870504614F072FB1FB901A89C
:20597C0013F08AFA01AF38684FF4FA76E6602060B8694146A062388A61766083F8692063B1
:20599C00786800280CBF40F6C410594620616061204E266266622176E661F86800B12062FE
:2059BC00786900B16062B86800B1E061C82204F1380059460CF07DF804F15000594611F059
:2059DC0037FF15495A4604F1B800134610F0DEF8204611B0BDE8F08FCC210840E00F00200C
:2059FC0000200940110000E01CC101003D8A0100DDD70000153F0100CD31010031830100CE
:205A1C0055870100B44F0050AD51010005370020D9CA0000CF67010003970100F8B5144663
:205A3C0000254FF48067A04EC21B84B006F18C0334D0921E39D0521E41D0521E47D0521E41
:205A5C004DD0521E51D0521E00F07780921E00F07980D21E00F0A980521E00F0B480921E3F
:205A7C0000F0BD80521E00F07880521E00F0BE80521E00F0CC80521E00F0CF80521E3BD011
:205A9C00521E53D0521E48D0921E00F0DA80921E00F0DE80521E00F0E980F8E001290FD12C
:205ABC002078022817DC7070FBE0012908D12078022810DA0028B070F6D17074E2E00129CC
:205ADC0040F0E3802078052805DAF070E9E001296CD12078022880F2D8807073E1E010297A
:205AFC0064D110222146714814E001295ED12078022863DA3071D4E0012957D1207802284E
:205B1C005CDA00287071F6D00120B074602206F12C01184613F0E2F9C3E00129FCD120780B
:205B3C00022802DAB07113F087FBBAE001293DD12078022842DAF072B3E0012936D120782F
:205B5C00B073AEE0002931D114F08EFA10B9FBF7AEFC1DE001207075A3E0072926D1062287
:205B7C00611C02A812F08CFF00950023217801AA02A808F057FDB0B9F07A10B914F074FA55
:205B9C0010B1F07A012808D19DF80400FBF7A0FC0546502012F04EFC1EE0716A9DF80420FC
:205BBC00012088547DE034257BE001296DD1317C2078022903D0C11F0A2902D365E01028AB
:205BDC0063D1F0736DE001295FD1317D20783075002908BF012864D1FBF7F2FB61E00129E8
:205BFC0053D12078032850DCF0745AE001294CD12078022849DC002847D03074022803BFDB
:205C1C001020F0730120002014F066F949E001293BD1207812F058FD43E07079002834D1AA
:205C3C00602908D1002C30D060222146184613F055F9012003E0012927D134B32078B07459
:205C5C002FE0012921D104B320781949087028E0D9B914F009FA30B9FBF7CFFC05465020D2
:205C7C0012F0E8FB1DE00120B0751AE001290CD12178022909DA012904BFB07800280FD01C
:205C9C007174084613F0E0FA0BE0182509E00F2806DA022904D121880FF0F8FF054600E0E6
:205CBC000225284605B0F0BDE818002028340020003700202DE9F04F0746F88916468A468F
:205CDC00ADF1440DC01D80B205460CF0EFFE8F4CFF280BD1284605F0E1FA854204DD641C32
:205CFC00207800B905200EE1012000E000206178D9B916B1022E18D1B8B1387AFE88BD88D1
:205D1C008DF82C000023009309AAADF82A60E18E94F83300ADF82850032306F06FFA9DF8B9
:205D3C0034003874BDF83060BE81BD8955B3FE8946B3AD1B4FF000091FFA85F84D463A7C26
:205D5C00761B202ED4BFB6B22026E06808EB050189B2334601EB423101AA13F05FFC0AEBB5
:205D7C00050101A8324612F055F958B9AD19FE89ADB2AE42E3DCB9F1010F1CBF4846B881C8
:205D9C0040F0BA8094F83310E58EE06801AA04238846490313F042FC019800F0FF007E2898
:205DBC0006D140467C2111F055FA019800F0FF007C2840F0A580F88942F20102C11D8EB226
:205DDC00A9198A4240F39A80F9883A7AC1F301238DF83910B98843EA82038DF838308A1077
:205DFC0007468DF83A200423C0F3851201F0030142EA81128DF83B2010FB03F1FA1D01F04F
:205E1C00FC017B1990B28DF83C101FFA83FB0D282BDB50463946002213F022FB024605212B
:205E3C000EA813F01DFB9DF83C103B4600F03F07524641EAA011B8008DF83C1040F00200AE
:205E5C0096278DF83D0029468DF83E7040460FF081FA074659460EAA0723404667700FF0DB
:205E7C0079FA384360704DD135E004F1240051463A4609F0EFFF0EA90A68381900F1240966
:205E9C004846097902607B1D0171002204F1240099B213F0E5FA9DF83C10962300F03F0732
:205EBC008DF83E3041EAA011B8008DF83C10334640F002000EAF49468DF83D003A68B879E2
:205EDC000A60BA88887140468A8004F1240229460FF040FA6070E18EAD194FEA8807AAB285
:205EFC008919E18607EBC8010919A1F84C2048B1404659460FF08EF8607803E0052000E038
:205F1C0001206070C0B211B0BDE8F08F6C1C0020F8B58B488B4D01782A788A4200F00E81B7
:205F3C006A68002400E0641C8C4280F204814FF4D0736343134418790028F4D1E0B212F095
:205F5C0073FF0121017100224271426200F161018471012200F168034A711A710124002252
:205F7C001A609A6000F1900602814281047480F8392082610277C283327000F592749A762D
:205F9C00227580271F739A730027FF22DF741A7600F20D131F70DF70BC46BE4600F58977F2
:205FBC0083F801C083F802E0A7F800C0A7F802C087F805E000F1E70386F804C083F800C0B0
:205FDC0083F801C000F1EC03C3F800C0C3F804C083F80AE083F80CC083F808C083F80DC058
:205FFC0083F80EC083F80FC0A7F808C0A7F80AC0A7F80CC0A7F80EC047F23057A76100F58D
:20601C00C676C4F800C02273A4F80EC084F81CC084F81DC0A2770127B7720227F77286F882
:20603C000EE086F80CC0484FDFF820E13F78777386F806C084F80AC084F804C084F805C0F1
:20605C0084F806C084F807C084F808C084F809C000F5B3743E4F84F800C086F800C04FF0B4
:20607C001B0C3F88E7803B4F3F882781BEF800706780394F3F88A780A4F80AC04FF4A4776F
:20609C00E7812782A4F80CC0E7822783A4F812C0A4F814C06783A783E78327846784A7843B
:2060BC00A6F802C00127377100240719641C042C87F87720F9DB294A14780C7057784F70AD
:2060DC0094788C700446D778CF7012790A710021234A50186718407887F8FD00491C08297F
:2060FC00F7DB2048306100211974A07913F074F80646A0790DF061FD1B480178307C717357
:20611C0000F0FC0030740022B069F28100F0004040F4853040F04000B061307F00F0F800F4
:20613C0030772878401C2870C0B2012804BFA079A8702046F2BD002011F0A6FB0020F2BDD3
:20615C00D40F0020780E0020C50F00208A0F00208C0F0020980F0020960F002048360020E8
:20617C00C00C00204DE501103C2200202DE9F0470D4629048F4EDFF8408240F1F1808F4F93
:20619C0038780CF037FA040018D021780120B02917D0B12908D0C22900F0B580D02904BF22
:2061BC002046FCF7D9F8D1E0207920B92289E1886088FAF786FF204612F0E9F985F4004001
:2061DC00F5E02179787A012910D009294DD01E2900F08D807D2908BF002806D16088FBF75F
:2061FC004FFC01466088FBF708FC86E00028FCD1207AB4F80290082835D14846FBF740FCEE
:20621C0002280FD003282ED1002204214846FBF7F8FA0246F86900281CBF4368002B22D002
:20623C0004211EE0002210214846FBF7EAFA8246484613F055FF60B198F8001039B9811D7A
:20625C004079012200F0010013F042FE01E001203070F86900281CBF4368002B03D05246CB
:20627C00052148469847608805E0002845D1617860881A2902D1FBF79FFB3EE0FBF700FCF5
:20629C00022819D0032838D120896688012804BF6089032806D1E068827804213046FBF75E
:2062BC00B0FA00E01820F96900291CBF4B68002B23D00246042117E0218966880120012982
:2062DC0004BF6189032907D1E268917821B9012210213046FBF795FAF96900291CBF4B6860
:2062FC00002B0AD0024605213046984705E0B87A18B9608800210BF05DFB217904F10800DF
:20631C0013F006FF57E7A07810BB0121B9742022E11C07F18C0012F0E1FD202204F12301EB
:20633C0007F1AC0012F0DAFD202204F1430107F1CC0012F0D3FDF86900281CBF4368002B79
:20635C0006D0627806210020984701E00028D9D11B480078FF2802D0214603F021FA2DE73B
:20637C00690716D5174A106880B1FBF793FB04000CD0E07A50B90121E1726268A17A2089D6
:20639C00FBF786F9606808B112F08EFF85F004000DE028070AD53178012902BF98F80000C8
:2063BC00002808F00FFF85F0080000E00020BDE8F08700BF01370020AA0F0020E8180020EA
:2063DC00412200209836002038B5784D687912F063FF77490028086063D0002202600273BD
:2063FC000868C2610262A87912F056FF71490028086056D000220260C27200200A681074D4
:20641C00052308684374002209684A61E87A12F043FF69490028086043D0684C21782878EB
:20643C00491D10FB01F080B212F036FF64490028886036D0207800286FD0698811FB00F0C6
:20645C0080B212F029FF5F4A0028506029D05E482278017811FB02F080B212F01DFF5B499F
:20647C00002808601DD000250AE0E8B212F0B4FE00214180816001800223037101736D1C4C
:20649C002078E9B28142F0D312F006FF50490028086006D02078400012F0FEFE4D4900288D
:2064BC0008607CD020781C2110FB01F080B212F0F3FE494A0028106071D02078400112F0CF
:2064DC00EBFE46490028086069D0102012F0E4FE43490028086062D02078000112F0DCFE88
:2064FC004049002808605AD0302012F0D5FE3E490028086053D020782C2110FB01F080B2CB
:20651C0012F0CAFE394A0028106048D0207812F0C3FE37490028086041D0364C364D217848
:20653C00287800EB4100C000103080B212F0B4FE32490028086032D000F108014160287845
:20655C00227800EB4200C000103080B212F0A4FE2B49086018B300F1080141601E21207869
:20657C00401C10FB01F080B212F096FE254A1060A8B1082012F090FE234C206078B10620B1
:20659C0012F08AFE216808602168086838B100204860062012F080FE1C49086008B907205F
:2065BC0032BD13F0E9F800B1002032BD10210020500F0020540F0020440F0020D40F002063
:2065DC0024360020780E00203E22002078360020340F002080360020980E00209C0E002068
:2065FC00A00E0020A40E0020A80E00207036002088360020FB360020FA3600206C0F002029
:20661C00700F0020680F002090360020400F00202DE9F843814D04462868002818BF002CAF
:20663C004ED0C17A002904BF2278012A48D07C4E3178092918BF0A2904D00B291CBF0C2955
:20665C000D2901D12120E6E02178002918BF012936D1617800291CBF0129022930D1618829
:20667C004FF4A0674FF00A0861B3A28822B108FB01F37A43934223D2C2699378012B18BF9B
:20669C00042B09D1B2F804E0BEEB011F3CBFB2F80690B9EB011F13D2052B13D19388B3EBCD
:2066BC00011F3CBFD388B3EB011F09D2B2F80930B3EB011F3CBFB2F80B20B2EB011F01D3AD
:2066DC001220A8E0C0698178022904BF002011F0DBF829680C622078012859D1087B01284A
:2066FC0041D0022007F02AFE29684E4A4E4B0860426083614D4A42610020087609212A68E8
:20671C009176296848762868016A8A884988574308FB1177476110F0FDFD01007BD12A6883
:20673C00012111733078F8B94149087850B141494869083813F000FC28680068816941F4A2
:20675C008021816100220021032009F0B5FC3A49002008700522327000210122052009F044
:20677C00DAFDFBF719FA55E02A68344C92F824101069D2692578931D05EB850540F6C41295
:20679C005B5B02FB030000F5166008F0C7FA41E0087B2B4C58B9487E01283BD12078202103
:2067BC0010F090F90021092013F08EFB32E02548254F0168884706462078202110F082F993
:2067DC0029680020087312F02FFD29680A68904210D110F0B7FD40F2014013F021FC1B49E2
:2067FC001B4808600121207807F050F83968304688470FE013F064FB39683046884728680C
:20681C00016A888830B90021092013F05DFB2968002008620020BDE8F28300BF500F0020C0
:20683C00C80F0020E80B002002008080E5ED0000880E00208C0A0020DA0F0020D80F0020E2
:20685C00C70F0020941A0020981A0020480F0020DD9700002DE9F04385490468854D864E72
:20687C000A68607D8846ADF1140D401E0B281BD8DFE800F0B206099B8009540C14381D1423
:20689C002169886804E02069816809E02169C86809680FF0BBF90FF099F9E5E02069C1683D
:2068BC00022200200A70DFE04FF0FF30DCE02169487C01280FD0C86809680FF0A7F9054634
:2068DC0020690168C0688A69406800218018401C0BF0EFF804E0C868096812F005F8054621
:2068FC0028465FE0206901688A69202A0BD105F17C00016821F000410160284612F097F936
:20691C00206901688A694FF08059D9F80002C06D0092CDF804808B684A6829E020694FF00D
