:20000000A03A012039090100553E0100553E0100553E0100553E0100553E0100553E01002A
:1C002000553E0100553E0100553E0100553E0100553E0100553E01008D3F01007F
:04003C0056F046BF75
:200040000000000000000000000000000000000000000000000000000000000000000000A0
:2000600000000000000000000000000000000000000000000500000000000000000000007B
:20008000000000000100000000000000E0000000010000000000000000000000E803000093
:2000A00000000000000000000000000000000000000000000000000000000000010000003F
:2000C00000000000000200000000000000000000010000004E4D493A2025732028433A2F53
:2000E00074692F73696D706C656C696E6B5F6363313378785F6363323678785F73646B5FC6
:20010000355F34305F30305F34302F6B65726E656C2F746972746F73372F7061636B616714
:2001200065732F74692F73797362696F732F66616D696C792F61726D2F6D332F4877692E2C
:20014000633A313238362900486172642D6661756C743A2025732028433A2F74692F736972
:200160006D706C656C696E6B5F6363313378785F6363323678785F73646B5F355F34305FD6
:2001800030305F34302F6B65726E656C2F746972746F73372F7061636B616765732F746907
:2001A0002F73797362696F732F66616D696C792F61726D2F6D332F4877692E633A3133305F
:2001C000312900486172642D6661756C743A2025732028433A2F74692F73696D706C656C15
:2001E000696E6B5F6363313378785F6363323678785F73646B5F355F34305F30305F34304D
:200200002F6B65726E656C2F746972746F73372F7061636B616765732F74692F73797362B9
:20022000696F732F66616D696C792F61726D2F6D332F4877692E633A3133303829004861C4
:2002400072642D6661756C743A2025732028433A2F74692F73696D706C656C696E6B5F6393
:2002600063313378785F6363323678785F73646B5F355F34305F30305F34302F6B65726EF1
:20028000656C2F746972746F73372F7061636B616765732F74692F73797362696F732F6638
:2002A000616D696C792F61726D2F6D332F4877692E633A31333138290072657365727665D0
:2002C000642025732025642028433A2F74692F73696D706C656C696E6B5F636331337878A8
:2002E0005F6363323678785F73646B5F355F34305F30305F34302F6B65726E656C2F74694B
:2003000072746F73372F7061636B616765732F74692F73797362696F732F66616D696C7978
:200320002F61726D2F6D332F4877692E633A3134383729007461736B203078257820737441
:2003400061636B206F766572666C6F772028433A2F74692F73696D706C656C696E6B5F63E0
:2003600063313378785F6363323678785F73646B5F355F34305F30305F34302F6B65726EF0
:20038000656C2F746972746F73372F7061636B616765732F74692F73797362696F732F6B32
:2003A0006E6C2F5461736B2E633A34373629007461736B203078257820737461636B206F2F
:2003C000766572666C6F772028433A2F74692F73696D706C656C696E6B5F63633133787867
:2003E0005F6363323678785F73646B5F355F34305F30305F34302F6B65726E656C2F74694A
:2004000072746F73372F7061636B616765732F74692F73797362696F732F6B6E6C2F5461D0
:20042000736B2E633A343831290055736167652D6661756C743A2025732028433A2F74694C
:200440002F73696D706C656C696E6B5F6363313378785F6363323678785F73646B5F355FAB
:2004600034305F30305F34302F6B65726E656C2F746972746F73372F7061636B616765736D
:200480002F74692F73797362696F732F66616D696C792F61726D2F6D332F4877692E633A04
:2004A00031343232290044656275672D6D6F6E69746F723A2025732028433A2F74692F73C9
:2004C000696D706C656C696E6B5F6363313378785F6363323678785F73646B5F355F343069
:2004E0005F30305F34302F6B65726E656C2F746972746F73372F7061636B616765732F74AE
:20050000692F73797362696F732F66616D696C792F61726D2F6D332F4877692E633A3134C1
:2005200037332900537643616C6C3A2073764E756D203D2025642028433A2F74692F73698E
:200540006D706C656C696E6B5F6363313378785F6363323678785F73646B5F355F34305FF2
:2005600030305F34302F6B65726E656C2F746972746F73372F7061636B616765732F746923
:200580002F73797362696F732F66616D696C792F61726D2F6D332F4877692E633A31343476
:2005A00030290049535220737461636B206F766572666C6F772028433A2F74692F73696DE1
:2005C000706C656C696E6B5F6363313378785F6363323678785F73646B5F355F34305F30AF
:2005E000305F34302F6B65726E656C2F746972746F73372F7061636B616765732F74692FA4
:2006000073797362696F732F66616D696C792F61726D2F6D332F4877692E633A31383133F0
:2006200029007461736B203078257820737461636B206572726F722C205350203D203078E5
:2006400025782028433A2F74692F73696D706C656C696E6B5F6363313378785F63633236BF
:2006600078785F73646B5F355F34305F30305F34302F6B65726E656C2F746972746F733755
:200680002F7061636B616765732F74692F73797362696F732F6B6E6C2F5461736B2E633AA4
:2006A00034383829007461736B203078257820737461636B206572726F722C205350203D89
:2006C00020307825782028433A2F74692F73696D706C656C696E6B5F6363313378785F6342
:2006E00063323678785F73646B5F355F34305F30305F34302F6B65726E656C2F7469727423
:200700006F73372F7061636B616765732F74692F73797362696F732F6B6E6C2F5461736BD5
:200720002E633A3439342900696E746E756D3A202564206973206F7574206F662072616EDC
:2007400067652028433A2F74692F73696D706C656C696E6B5F6363313378785F636332368F
:2007600078785F73646B5F355F34305F30305F34302F6B65726E656C2F746972746F733754
:200780002F7061636B616765732F74692F73797362696F732F66616D696C792F61726D2F55
:2007A0006D332F4877692E633A333835290048776920616C726561647920646566696E65F9
:2007C000643A20696E7472232025642028433A2F74692F73696D706C656C696E6B5F636375
:2007E000313378785F6363323678785F73646B5F355F34305F30305F34302F6B65726E656A
:200800006C2F746972746F73372F7061636B616765732F74692F73797362696F732F6661B6
:200820006D696C792F61726D2F6D332F4877692E633A33393329006E6F204953522C206935
:2008400064203D2025642C207063203D203078253038782028433A2F74692F73696D706CC0
:20086000656C696E6B5F6363313378785F6363323678785F73646B5F355F34305F30305F59
:2008800034302F6B65726E656C2F746972746F73372F7061636B616765732F74692F7379A4
:2008A0007362696F732F66616D696C792F61726D2F6D332F4877692E633A31313033290019
:2008C0006E6F204953522C206964203D2025642C207063203D203078253038782028433A00
:2008E0002F74692F73696D706C656C696E6B5F6363313378785F6363323678785F73646BEE
:200900005F355F34305F30305F34302F6B65726E656C2F746972746F73372F7061636B6114
:200920006765732F74692F73797362696F732F66616D696C792F61726D2F6D332F487769EB
:200940002E633A3135303029006F7574206F66206D656D6F72793A20686561703D307825D5
:20096000782C2073697A653D25752028433A2F74692F73696D706C656C696E6B5F63633193
:200980003378785F6363323678785F73646B5F355F34305F30305F34302F6B65726E656C8D
:2009A0002F746972746F73372F7061636B616765732F74692F73797362696F732F72756EF3
:2009C00074696D652F4D656D6F72792E633A373829004275732D6661756C743A2025732CCC
:2009E00020616464726573733A203078253038782028433A2F74692F73696D706C656C698B
:200A00006E6B5F6363313378785F6363323678785F73646B5F355F34305F30305F34302F5E
:200A20006B65726E656C2F746972746F73372F7061636B616765732F74692F737973626957
:200A40006F732F66616D696C792F61726D2F6D332F4877692E633A3133383229004D656D8D
:200A60002D6661756C743A2025732C2061646472657373733A203078253038782028433ACA
:200A80002F74692F73696D706C656C696E6B5F6363313378785F6363323678785F73646B4C
:200AA0005F355F34305F30305F34302F6B65726E656C2F746972746F73372F7061636B6173
:200AC0006765732F74692F73797362696F732F66616D696C792F61726D2F6D332F4877694A
:200AE0002E633A313334382900686172647761726520657863657074696F6E206964203DAB
:200B00002025642C207063203D203078253038782028433A2F74692F73696D706C656C6984
:200B20006E6B5F6363313378785F6363323678785F73646B5F355F34305F30305F34302F3D
:200B40006B65726E656C2F746972746F73372F7061636B616765732F74692F737973626936
:200B60006F732F66616D696C792F61726D2F6D332F4877692E633A31313030290000000097
:200B8000505200200C4E0020F0510020804E00207842002050500020585200201C510020D9
:200BA00000520020744F00208C1F0000D42100003C220000F0210000E2210000105200204C
:200BC0006C4100207041002074410020784100207C4100208041002084410020884100203D
:200BE0008C41002020520020484E0020C8510020A04F00202E1B0000BC1A0000A01B00009E
:200C0000121C0000841C0000F4200000182200000C2200008D5200203C52002098420020E3
:200C200038510020344200208552002086520020B44E0020DC510020A03E00209041002028
:200C40002C190000AD1600000000000000000000C4210000C44A00207C52002078520020A1
:200C600094410020984100206C520020141F000088510020444C0020CC4D0020D01D0000A6
:200C8000BC420020605200206452002060220000AB22000038410020384800202043002083
:200CA000014A031049480310D549031015470310C1BA00005D49031081470310A146031089
:200CC0009548031045450310254A031021440310ED47031099490310E14803102149031098
:200CE0005553031089520310CD520310655003108D4E031069BD000015E9000075F50000D5
:200D00000555000059510310ED5003108DB10000CD4B03102952031011530310A9550310ED
:200D20007555031069530310DD55031035550310C1BC000021540310855C03100D560310B6
:200D40004D5D0310A9640310B55B03106D570310E5610310095E0310C558031085600310C1
:200D600071610310B16203109963031055630310FD600310B15E031089AB0000D55A031086
:200D8000D559031009630310D963031019640310555F0310C56403104D6203107164031007
:200DA0008D64031055640310E16403102975031079720310A16B0310F57203109D7403109F
:200DC000797403102D74031061730310FD7303105574031015750310D96C0310FD740310A0
:200DE000197C0000E17403103D75031059B70000F9640310CD6803102D710310C174031070
:200E0000F56E0310B973031029670310056E0310C56F031031CE0000A1770310797D03107A
:200E20003D7E031049750310157E0310357D031099760310997C0310257B031071780310AF
:200E4000B57D0310ED7C0310857E03102D790310B97A0310917B0310B1790310ED7B0310E5
:200E6000E97D0310617E0310357A0310D57E0310457C0310A57E0310BD7E03104D9F00009B
:200E8000D9800310E97E031049830310898403108D8103107D820310E58403102B840310FC
:200EA000C5830310918703106188031045880310F1850310B18803107D880310C98803107F
:200EC0001D870310A186031001850310E188031099880310F987031035B50000359C031077
:200EE000819D0310E99A0310359B0310C19B0310419A0310F18803101D8C0310618F0310A0
:200F0000F1940310919E0310C19E03103D9E0310699E0310259E0310619D03100D9E0310D8
:200F2000819B0310ED93031055990310C9970310D9980310BD950310959C0310C19D0310DD
:200F4000A59E03107D9E0310C99103101DD10000699C0310DD9D031095900310FD9B03102A
:200F6000CD990310158E0310019D0310E19C0310219D0310419D0310BD9C0310F59D03102E
:200F8000A19D031055980310E1920310999A0310B99E0310559E0310E12F0100DF4B010088
:200FA00039A203100547010069A1031075A20310C59E0310B9A10310F9A1031015A1031056
:200FC0009DA2031061590100E7F2000011AD00009525010065580100E132000031A90310F4
:200FE000ADA20310AD700000B9A8031099A50310D19B000039A803106DA9031089A30000F8
:201000006DAC031099B1031009AF031059B1031001B103109DA9031071DA000061CF0000C6
:20102000211A010011C50000F9590000E50D0100A5C00000E561000065930000ED9A00002F
:2010400001A10000F1B9031075BA031081BB0310692A010031E00000B50101006DA800002F
:201060007527010085FD000051360100E9FD0000312A010065410100454A010055010100F9
:20108000BD180100E53001006511010009F50000054F01009DE80000F51A0100354F010080
:2010A000BD2200002D5D000055580000496F0000E9C60310394A00000D8B00008D520100A5
:2010C000992C0100C54B010075020100195B0100F94B0100795201000D5C010013FF0000BF
:2010E00025D600005DD300005D40002189400021954000213B410021074C657900F009F868
:2011000061796940490703D50121044A8903116070BD70B5024908478003002108110440CA
:201120002D59000000F00AF800480047577F000000F00AF8004800471B880000806B0C496E
:201140000007000F48717047094A0A4918235079CB56497EC018814201DD084602E00F2897
:2011600000DD0F20D189090909010143D1817047E0020021880000210122274B02212548CF
:20118000184710B5254880472548406A00280DD124490A200856002809DA401C07D0084659
:2011A0002038406A2049884200D1804710BDFFF7E3FF10BD00211E4B1C4A08461847012032
:2011C0001C49400208601C48FB220178114001701248EC38004710B51849884711492039D7
:2011E000012807D0020404D50020088514484862012010BD4A6A094BEC3B9A4201D1114A37
:2012000005E007494A6A104B9A42F2D10F4A4A6210BD0000060800009F060000A192020031
:20122000080100215401002163920200E7400021B5B4020080E100E080030021F7960200F0
:20124000DD4000212341002169950200194100212A201B1424201B1424201B1400000000F1
:20126000E4FEFFFFFFFFFFFF48FFFFFFFFFFFFFF1802000000000000A266FEFFFFFFFFFF36
:201280007DFBFFFFFFFFFFFF62AC0000000000008E21FBFFFFFFFFFF15F2FFFFFFFFFFFF28
:2012A000AEF2FFFFFFFFFFFF5FFE0300000000003E82FFFFFFFFFFFF6D38FEFFFFFFFFFFDC
:2012C0002A201B1424201B1424201B1400000000E4FEFFFFFFFFFFFF48FFFFFFFFFFFFFF92
:2012E0001802000000000000A266FEFFFFFFFFFF7DFBFFFFFFFFFFFF62AC00000000000053
:201300008E21FBFFFFFFFFFF15F2FFFFFFFFFFFFAEF2FFFFFFFFFFFF5FFE0300000000002D
:201320003E82FFFFFFFFFFFF6D38FEFFFFFFFFFF2C2C1B14000000000000000000000000CE
:20134000F71F0000000000000EF6FFFFFFFFFFFF2EFFFFFFFFFFFFFF5E66FEFFFFFFFFFF95
:2013600000000000000000000000000000000000000000000000000000000000000000006D
:2013800000000000000000000000000000000000000000000000000000000000000000004D
:2013A0003C202020202020434F4E4649475552452020202020203E003C2020202020205342
:2013C00045542050414E49442020202020203E003C20202020534554204348414E204D415A
:2013E000534B202020203E003C2020202020534554204E574B204B455920202020203E00D2
:201400003C2020202020204241434B2020202020203E00C03C2020204E4554574F524B201B
:20142000414354494F4E532020203E003C2020202020204153534F434941544520202020E5
:2014400020203E003C202020204449534153534F434941544520202020203E003C2020205C
:201460002020202020204150502020202020202020203E003C20202053454E44204C4544B2
:20148000204944454E54202020203E002054492053656E736F7220003C202020202020483F
:2014A000454C502020202020203E00C0002020202020202020202828282828202020202005
:2014C000202020202020202020202020208810101010101010101010101010101044444428
:2014E00044444444444444101010101010104141414141410101010101010101010101010E
:201500000101010101010101101010101010424242424242020202020202020202020202BF
:2015200002020202020202021010101020000000000000000000000000000000000000003B
:2015400000000000000000000000000000000000000000000000000000000000000000008B
:2015600000000000000000000000000000000000000000000000000000000000000000006B
:2015800000000000000000000000000000000000000000000000000000000000000000004B
:2015A000000000000000000000000000000097B92EE5725CCB5DCAE473B82F0196BA2D0349
:2015C000945FC8E671E7705EC90295BB2CE3745ACD0691BF28BE2907905BCCE27559CEE0FE
:2015E00077BC2B05920493BD2AE17658CF51C6E87FB4230D9A0C9BB522E97E50C7EB7C5249
:20160000C50E99B720B6210F9853C4EA7DB2250B9C57C0EE79EF7856C10A9DB324089FB13B
:2016200026ED7A54C355C2EC7BB027099EA2351B8C47D0FE69FF6846D11A8DA334188FA1CA
:2016400036FD6A44D345D2FC6BA037198E41D6F86FA4331D8A1C8BA532F96E40D7FB6C4239
:20166000D51E89A730A6311F8843D4FA6DF3644ADD1681AF38AE3917804BDCF26549DEF00C
:2016800067AC3B15821483AD3AF16648DF1087A93EF5624CDB4DDAF463A83F1186AA3D1377
:2016A000844FD8F661F7604ED91285AB3C00013636010100010201000103010001040106A8
:2016C00006080400000C0100340D01000F10040101140100FF16080000200200002201000D
:2016E000FF23010001240100FE250100082602000028010001290100012A0200002C01009F
:201700000F2E0200003001000131010008320200FF34010007350102FF3601000037010009
:201720000138010001390100FF3A01000F3C0200FF3E01010F3F0100014001041F41010078
:2017400001420100FF43010080440800004E0100084F01000F50010001510100FF5201008A
:20176000005301000054010001580400005C0400006004000064040000680400006C04005B
:20178000007004000074040000780400007C040000800100FF810100018201000183010254
:2017A00002840100010008FF244300208F5200209052002025430020875200202643002006
:2017C000274300206D590100494800005D4E0100493A01001D3A0100FD040100590501003E
:2017E00015110100D11C0100B53D0100C1350100913501006F5A0100A15201008D43010094
:2018000015300100F94001002D4E0100454E01008D450100F135010081DB0000C5AA000073
:201820007B3B0100E1080100F50001004959010055590100000000006D45010057F30000C2
:20184000ADDF000039270100000000004930010079590100A12A0100BD4E01004DF0000039
:20186000B12701008D6900004D4501009DDD000051150100032C00000000000000000000F6
:2018800000000000000000000208000000000000000000000001010000005328CC42002093
:2018A000030800000000000000000000000165090000000000000000012C00000000000081
:2018C000000000000001001E0000000000000000022C0000000000000000000000000000BB
:2018E00000000000000000000000000000000000012800000000000000000000000100308E
:2019000000000000000000000003FF18640000000000000000000000785634120000000035
:20192000BAAB00000000000100000000360001000600000000000000000F000000000000F5
:20194000000000000000000000000300FFFF00000403FFFF0000FFFF0F00E8030005401F25
:201960000310000101000000FF3F0F000800050B00000000000000000300010F00000000DA
:20198000000000000000000000000000000000000000000000000000000000000000000047
:2019A000000000000000000000000000AD0000020000000000000000000000000000000078
:2019C000000000000000000000000000000000000000000000000000000000000000000007
:2019E0000000000000000000000000000000000000000000000000000000000000000000E7
:201A00000000000000000000000000000000000000000000000000000000000000000000C6
:201A20000000000000000000000000000000000000000000000000000101010100000000A2
:201A400090350020010101C02000000036000000000000000000000000000000E95A010044
:201A6000553E010000000000080000000400000001C046C00A000000000000C00000000035
:201A8000000000000600000000000000A53E01001348010000C046C0F9540100F12B0100CF
:201AA00000C046C00600000000020000010000C001000000AB1E0100172901000101710117
:201AC000010101011101010131010101010180010001100161013B00140063017301720129
:201AE000620143010001130106013D01350004011201000100010001000104010401330156
:201B000033013C014401320136000001000165010001350081010001050182018301000177
:201B2000660100010001080109010A010B01030071003001600011007000310220035004E2
:201B4000800007001000610000001400630073007200620043000000130006000000000073
:201B600004001200000000000000000004000400370037003C024400000000000000000057
:201B8000650000003500810000000500000083000000660000000000080009000A000B0016
:201BA00003027102300160021102700201020202020280020002100261023A0041006302B1
:201BC0007302720262024302000213023800000200020402120200020002000200020402F8
:201BE0000402370037003C02440200023900000200026502000235028102000205028202FE
:201C000083020002660200020002080209020A020B02010371030103010301030103010317
:201C20002203020301030003100300030003000300030003000300034203000324030603D3
:201C4000000300030403120325032303250323030403040300030003000344030003000362
:201C600023030003650321003503810300030503000300030003000325032303080309037A
:201C80000A030B030304710402046004110470040204020401040204000410046104000422
:201CA0001404630473047204620443040004130406040004000404041204000400040004B4
:201CC000000451046400000400040004440400040004000400046504000435048104640054
:201CE0000504000483040004660400040004080409040A040B040104774B01000F5101007B
:201D00000DD500002D1F0100CD43010099CA000039E70000EB420100ED4301000138010067
:201D20002F380100E9230100B93201000D4D010031030100D513010059FC00008D030100E3
:201D400059540100894101000D50010041E30000AD580100A13A0100315401004554010086
:201D6000D14A0100E57C0500798500000000000000000000000000006D4D01002D530100A7
:201D800051EC0000F1520100075B0100015B01004153010000000000915A0100DDEB0000B9
:201DA000FDEE0000654901003DD2000047550100B59C00003D400000D9D80000AD4401006C
:201DC000000000003108010011490100D1C3000000000200000002000200020000000300CF
:201DE0000400010000000200000000000000000005000100000007000600010000000300C5
:201E000007000800000000000F0001000100FF00100008000000000018000800000000006B
:201E2000220002000000000000B0004034000000FF0000001050002020000000305000201B
:201E400020000000000000000200000003000000FF000000FF00000060180020501800203F
:201E600040000000200000001400000014000000130000001500000016000000000200009A
:201E80008F0000008F0001008F0002008F000300900000018F0001019000000290000003B9
:201EA0008F0001048F0000058F0008048F0000048A000006510000007F0001003F00040028
:201EC0003F0002003F0001007F0002008F0002048F00010201520100C55501001B580100F6
:201EE000B5550100795A0100D75A0100D15A010000000000000000000000000000000000A5
:201F00000000000000000000000000009D5701008F570100C003000080070000000F00008C
:201F2000001E0000003C00000078000000F0000000E0010000C003000080070000000F00A5
:201F400000001E0000003C00000078000000F0000000F00000010400003333333333333365
:201F6000333333333333333333030146485465737400000000000000000000000000000064
:201F80000000000000000000000000000000000002000000020000000A0000000200000031
:201FA00002000100000000000000000000000000000000000000000000000000000000001E
:201FC0000E000000895A0100F55A0100E1330100D9480100E90C0100F5480100C1E20000B1
:201FE000C11B010095580100717800004E42434E004E42434E0007000500000000F8FF07E1
:20200000000000000000000000000000000000000303001B5B324A1B5B32301B5B3F3235D4
:202020006C001B5B324A1B5B32301B5B3F32356C00000000000000000000000000000000E2
:20204000000000000000000000000000000000000000000000000000000000000000000080
:202060000000000000000000000000000100000000C2010003000000000000004572726F01
:2020800072207261697365643A2000C0417373657274206661696C65643A2000FFFFFFFFCF
:2020A0000000000000000000000000003A013A0100000000000000000000000000000000AA
:2020C0000000000000000000000000000000000000000000000000000000000001000000FF
:2020E00040420F000100000000000000000000000000000000000500BD00B700B100BC0068
:202100001C0030003800080038010200010001001E030206070D0E000100010001020001A5
:2021200002FF000005000000D0070000C8000000FF0000000000000000000000A5B60000A0
:20214000914B01000101010000000000020000000000000000000000FFFFFFFF00000000A1
:20216000001610160E18151C0212032418580302100258000200000000000000FFFFFFFFB4
:20218000000000000D010000010000000E01000001000000844D002084210000A84D002075
:2021A0008C210000243E00204C4B0020C84B0020FFFFFFFF0C4A0020AF220000684A0020F1
:2021C000B122000088B2240088130000100000000000000100A6AAACA4A9A9A399B19ABCED
:2021E000B6A8313118191A22311C1E2031313431313117191A21241B1D1F31313331000052
:20220000FF00000000000000000100000C0E020B040B0A070800110F000120181A18182CA0
:2022200034041E00C41F00007052002088220000FF000100000000000000000002040201D0
:20224000010101090200000000BE040A00BE02080102000302000103FFFFFFFFFFFFFFFFD8
:2022600000040810000408107051002021210000E80300000000640040450020281E0000C9
:2022800070500020902200000020050000400000000002400A29FF000006028682000810AB
:1C22A000182000010203040020406000010509060107010000000000554D01005F
:2022BC002DE9F04FD04C0646A068D0F80001807AADF1340DC0000BF01BF90028089000F01C
:2022DC00DE8113F0AFFA0B90A068D0F888240AA982209047BDF8280004F10805002840D17C
:2022FC004FF000084FF6FF74ADF828800BE0D2F894248DF82480D42004A99047BDF828008B
:20231C00401CADF828002A6802F580721068BDF828108088884205DCD2F8942382200AA90F
:20233C0090471EE0ADF81440BDF82800ADF81640FF210822ADF8100006A80CF0EFF92A68B8
:20235C00C446604602F580773968897A8142CEDD089BC100401C43F801C0C0B2C9188C8096
:20237C00F2E70020C74CADF828002068D0F800012A6800894FF6FF7AA04602F591620CE082
:20239C00BDF82800D8F800702268401CADF82800D7F8000102F591620089BDF82810884257
:2023BC0040F35D812068D0F80001C07A4FF0000901274D4612E02068D0F800012268C0884D
:2023DC006D1CADB202F591624AE020682268D0F800016D1CADB202F59162C07AA84208DC30
:2023FC00002FCDD1B9F1000F32D1F07F0028C7D02EE08DF80250BDF82800ADF80000126829
:20241C006946D02090470028DFD19DF80C0001280AD19DF80B0038B92068D0F81C150DF19D
:20243C00030088470028ABD1337D9DF80C00002B0CBF052209224F468342C6D10DF103007F
:20245C0006F1150111F0B4FF0028BED04FF001092068D0F800012268C088002502F591626E
:20247C00A84264DDADF80250BDF82800ADF8000012686946D120904700289CD1BDF804005D
:20249C00824598D0ADF810002068D0F8882404A9D4209047002840F0148106A8311D0822B5
:2024BC0011F086FF002886D030887788ADF81400B9F1000FADF8167023D0307B27688DF8F6
:2024DC002400D7F80001877A002001E0401CC0B2874207DC0B9813F026FB0898002800F0F1
:2024FC00F780F3E0089901EBC0018A88924503D0BDF828309342E9D130690860BDF8287082
:20251C008F802068D0F8942404A9D4209047B9F1000F0CD0B07F9DF80610884207D08DF87B
:20253C0006002068D0F894246946D1209047226802F580721068C088A8427FF421AF206812
:20255C00D0F8000180884FF00008A8E02068D0F81C1506AD2846884738B9311D2846082277
:20257C0011F026FF002800F08F80308877882346ADF81400357BADF8167018682268D0F86C
:20259C0000018DF8245090F80AB002F5807C002001E0401CC0B2834506DC0B9813F0C3FA14
:2025BC00089800286BD068E00899C50001EB050EBEF804309A4503D0BDF828709F42E8D1CC
:2025DC00331DB9F1000F0CBF00203069CEF80000BDF82800491906AF8880196858683960B6
:2025FC000025786007E0C0460C01002022686D1C02F5807CADB2DCF80000C188A94229DD35
:20261C00ADF80250BDF82800ADF80000D2F888246946D1209047E82803D0BDF804008245D5
:20263C00E4D10023BDF810008DF80730B77FADF8040021688DF80670D1F89424D42004A9A0
:20265C0090472068D0F894246946D12090472068D0F800018088A84216DD404508D00B98D2
:20267C0013F061FA089808B10FF052FC002030E00B9813F058FA089808B10FF049FC1A203B
:20269C0027E0C046140100202768226808F101001FFA80F8D7F8000102F5807280884045F2
:2026BC00DBDDD2F88823ADF81080D42004A9904700283FF44BAF0B9813F035FA089838B171
:2026DC0004E00B9813F02FFA089808B10FF020FC19200DB0BDE8F08FF0B50446BC4807683B
:2026FC00ADF1440D002F00F0B1812078401E122800F2AC81DFE810F06E0157013D0128013A
:20271C0020010901F600E800C800B700920067005D004C00AA01340026001C0013007B6C58
:20273C00002B00F093810020A21C014698478DE1F86B002800F08A81684621460AF01EFF2A
:20275C00F96B81E1386C002800F080816846002101220BF0E3FF60788DF80000396C73E1B5
:20277C00F86A002800F07281684600210E220BF0D5FFA11C684612F03FFBA67BA1890022EE
:20279C00ADF80A1006B101228DF80C20F96A5CE1B86B002800F05A816846002102220BF02F
:2027BC00BDFFA6788DF8016060788DF80000B96B4AE1786B002800F04981684621460AF0BD
:2027DC00DDFE796B40E1386B08B36846002114220BF0A4FFA6788DF80160A5680195A38929
:2027FC00ADF8083060788DF80000A27B8DF80A20E17B8DF80B10267C8DF80C6094F911503A
:20281C008DF80D5063690493396B684688476068002800F01B8111F0DBFD17E1B86A00289F
:20283C0000F014816846002124220BF077FF6078A11C8DF800000DF1020012F0DDFA04F189
:20285C000C0103A812F0D8FA267EE08A04F119018DF818600B22ADF816000DF119000AF0BD
:20287C000DF9B96AF0E0786A002800F0EF806846002102220BF052FFA6788DF801606078BF
:20289C008DF80000796ADFE0386A002800F0DE806846002112220BF041FF6688607825793B
:2028BC006379ADF80260E11D8DF800000B228DF80450A6798DF805300DF107008DF80660C7
:2028DC000AF0DCF8396ABFE0F869002800F0BE806846002101220BF021FF60788DF80000AB
:2028FC00F969B1E0B86910B120460EF097FAA07820B9A069002800F0A98003E0A0690028A3
:20291C0000F0A4800FF004FBA0E07869002800F09D806846002113220BF000FF6D46A01C86
:20293C000168406829600B22686004F10A0102A80AF0A4F8796987E03869002800F08680A4
:20295C00204609F005F981E0F86800287ED0684600210E220BF0E2FE6078A11C8DF80000D3
:20297C000DF1020012F048FAA089ADF80C00F9686AE0B868002869D06846002114220BF0F1
:20299C00CDFEA01C01686D46296040686860A07A0B2204F10B018DF808000DF109000AF0A9
:2029BC006DF8B96850E0786800284FD06846002110220BF0B3FE60786688211D8DF80000E8
:2029DC000B22ADF8026001A80AF058F879683BE0DC4000203868C8B36846002119220BF05C
:2029FC009DFEA01C01686D46296040686860A67A0622002102A80BF091FE700824BF012036
:202A1C008DF80800B00824BF01208DF80900F00824BF01208DF80A00300924BF01208DF876
:202A3C000B00F00924BF01208DF80C0036F07F001CBF01208DF80D0004F10B010B220DF182
:202A5C000E000AF01BF839686846884711B0F0BD2DE9F04F09AFADF13C0D08900A923878DB
:202A7C0009911E468DF81800101C08BF002000F07A81017800274FF0010B401C4FF0FF39E3
:202A9C00B846DA460A9066E1252940F05B810178401C0A902D2918BF8DF8058004D10178CD
:202ABC008DF805B0401C0A9030291CBFC446424604D10178DC46401C62460A902A29CDF8DE
:202ADC0000804D4618D13068CDF808900A9BCDF810C0C01C20F00300001D306050F8044C7B
:202AFC001978002C009403F101000A9019D58DF805A06442009414E044460AE00A9B60001B
:202B1C0000EBC4004018A0F1300419780094581C0A90302901DB3A29F0DBCDF80890CDF815
:202B3C0010C02E2929D10178401C2A290A9011D13168CDF80880C91C21F00301091D31601D
:202B5C0051F8045C002D48BF454601782B46401C0A9011E0434645460AE0680000EBC5000A
:202B7C004018A0F130050A9801782B46401C0A90302901DB3A29F0DB02930AB122460492E8
:202B9C006C2904D04C2918BF8DF8048004D101788DF804A0401C0A900BA8CDF80C800FAB30
:202BBC0007906429059300F08480692900F081809DF81830752966D0782964D06F2962D076
:202BDC0070294BD063293BD0732920D00A98401E0A900998012818D9B5F1FF3F03D0A8420C
:202BFC0088BF6D1C05D86FF00041814294BF0D1C099D02950AA932466B4612F030F8099948
:202C1C003F18091A0398099168E0454616E03068C01C20F00300001D306050F8040C012B68
:202C3C00014608B951A00146079112F007FC0390B5F1FF3F53D0A84251D9039528464EE0B9
:202C5C003068C01C20F00300001D306010F8040C8DF82C005D460395584640E0082035689D
:202C7C000490E81C20F00300001D306050F8041C082210230FA80CF029FB401E07904021EE
:202C9C000170079827E03068C01C20F00300001D306050F8044C752908BF0A2303D078292F
:202CBC000CBF10230823AA42BCBF2A1C049221460DE03068C01C20F00300001D306050F8BC
:202CDC00041CAA42BCBF2A1C04926FF009030FA80CF0FCFA07900599081A0390009C9DF846
:202CFC000550211A241A00915DB906E008A8202109AA10F009FF7F1C009C641E0094F5D59A
:202D1C000398401EB0F1FF3F03900FD19DF8050001281CD10098401E009018D408A8202139
:202D3C0009AA10F0F1FE00987F1CF4E70798017809AA08A810F0E8FE0798401C0790039839
:202D5C007F1CDEE708A809AA10F0DEFE7F1C0A980178401C0A9000297FF496AE089808B1D3
:202D7C004146017038460FB0BDE8F08F286E756C6C2900002DE9F043071CADF1240D00F0A7
:202D9C005981FE6B002E00F05581B7F84030002B00F05081307817F130054FF0000603D0D8
:202DBC0097F83810052902D0002E00F04381A34CA11CDFF88C920D78401E00F0AD80801EFF
:202DDC0000F09380DFF87C82C01E62D0001F1DD0801F40F02F81012B40F02C8112F02EFD2E
:202DFC00032804D012F02AFD042840F0238105204B4611250B268DF8210003F124078DF828
:202E1C00205003228DF8226008AB69E0002D00F011816846314604220BF080FCB7F840009E
:202E3C002278032840F00681F86B401C12F066FD4B4603F184052988012A01F1010129804F
:202E5C0009D0D988421A022A05DBB3F886108918491EA3F8861026704446A778D88040085B
:202E7C000CD2012F00F0E6800120A070E06B11F00CFAE06B64210FF01CFFDBE0002F00F08B
:202E9C00D980E06BA67011F000FAE06B0FF056FBD0E0012B40F0CE8012F0D0FC032804D09F
:202EBC0012F0CCFC042840F0C58044460725A178E06B8DF81C5041B90121A17011F0E5F974
:202EDC00E06B64210FF0F5FE05E0A67011F0DDF9E06B0FF033FBA07802228DF81D0007AB3A
:202EFC002846394605F0CAFBA4E0012B40F0A28012F0A4FC032804D012F0A0FC042840F072
:202F1C0099804B46B3F86400042501228DF81C50401CA3F86400E2E7684631460C220BF02D
:202F3C00FDFBB7F840000B285DD1FC6B14F8010B89F83000204612F0E1FCA41C0346204649
:202F5C0012F0F8F80546201D12F0F4F88046387A4C4689F82C00022806D0396804F124007C
:202F7C0001607A68426001E03888A08403F00100190928BF40F00800590928BF40F01000CD
:202F9C006086834218BF0226B5F57A7FADF8020016D32D48A84213D3656312F075FE8146EF
:202FBC0012F072FE00EB092912F06EFE00EB0920B0FBF5F16943401A0A300FF0B5FF00E080
:202FDC000226606BB8F57A7F019008D342F21070404504D3C4F8388012F02CF900E002261D
:202FFC00A06B029001E04C46012602258DF8016068468DF800500EF0E7FB03AE0DF10D0052
:20301C009DF80110357012F073FCBDF8021012F06FFC01990FF054FC02990FF051FC394655
:20303C000D222846334605F029FBB4F86A00401CA4F86A0009B0BDE8F083C046583C002042
:20305C00503D00200C3A0020407E05002DE9F04F0668ADF11C0D0F46141C04904068DDF85E
:20307C0040A00590184608BF6FF0090800F02681002814BF99460DF1040912F0D3FB834615
:20309C003079400838BF6FF00E0804D396F8280118B16FF0080858460EE1C6F82C71F079A0
:2030BC00C6F830410123C6F8384100F0EF00F071002586F82831F079C6F8405100F0BF00C7
:2030DC00F0710598756312F00DFC584612F02BFD11F0F9FF88BBF06B400906D3B06B84468D
:2030FC00336C049810212A46E047D6F8402105982146D2190FF056FCD6F84011241A0144A0
:20311C00C6F84011F1D1059812F0CEFA0028FAD0059812F0DBFBF06B800906D3B06B0446D2
:20313C00336C049820212A46A047D6F8400186F82851A846C9F80000C0E0B479A84674B903
:20315C00BAF1FF3F0BD0BAF1000F08D006F5CA745146204612F022FD204612F021FD12F01E
:20317C0061FB04460FE0D6F83801002800F09680204612F0D8FC50464FF0FF3112F0E7F946
:20319C0012F050FB0446D6F83801002800F08680F07941097CD2C00977D206F5A27A4146A6
:2031BC00504612F0D4F9204612F0BDFC06F5887B584602A90FF084FE044612F033FB039098
:2031DC00D6F83801A04238BF041CD6F8401102982246C91909F052FC584621460FF015F977
:2031FC00D6F84001D6F838110019091BC6F840010398C6F8381112F096FC002C03DDD6F841
:20321C0038010028D4D112F00DFB0446D6F8400128B1059812F066FB049808F0EDFBB079AB
:20323C0002282CD001289ED1D6F83801002835D186F82851204612F076FC307A40F00800CC
:20325C003072C10817D2444613E0307A00F0F700307240F0040030720094D6F8D8C1D6F8AF
:20327C004021336C04983946E047307A00F0FB0030720009E9D212F0D5FA04460EE0D6F81E
:20329C00400108B96FF00F0808E06FF00C0805E0F0796FF00D0800F0EF00F071B0790128EB
:2032BC0005D086F8285106F5CA7012F07BFCD6F84001C9F80000204612F035FC404607B0D2
:2032DC00BDE8F08F2DE9F04F0546ADF1140D029112F0A8FA8A4C012D039000F0D280A34656
:2032FC00DBF80000D0F838038047002800F0C5800DF0E8FA002800F0C080DBF80410864CC8
:20331C00896960680F783C30002F40F0B6807D4E0068357880477168F268AB00401AB0FBC5
:20333C00F3F7B0684FF00008C2469146534611464F4573EB0A0301DA884206D841465246B8
:20335C0087428A4143DA024600E041461046EB172A46C01B71EB080111F0F6FD07466F48F1
:20337C0000688846418B00694018643081464FF00001B7EB090778EB0A08784271EB08018D
:20339C0025DA12F005FC02465346414638460BF065FF884607464FF00001784271EB080150
:2033BC0015DA11F0DAFB0546306912F0F5FB10B1306912F0F7FB284611F09BFE30693946E8
:2033DC0012F0ECFB306912F0EBFB002000E001204D490870884698F8000000284DD1DBF8C1
:2033FC000000D0F894000078002739460CF026FC00B101274FF0000A381C3CD1DBF80400BF
:20341C0080690078002836D16068404D436C286902216A4698479DF8000060B302984FF038
:20343C00010901281ED03A4F6268286997F9001011F1020F05D0926B97F9001090476268A5
:20345C002869344E96F9001011F1020F05D0926B96F900109047626828696FF001013170E6
:20347C00397001E062682869DBF80410896981F80090D169884788F800A0039812F053FB55
:20349C003AE02068D0F89400007801210CF0D6FB039812F048FB606880690078012811D197
:2034BC0011F046F860B1606880690178012909D10021029F0170012F04D011F0FDFC01E060
:2034DC0009F068F811F034F8B0B960680C30C1680978022909D101680F7837B12068D0F806
:2034FC004C058047241D20680C3001680F781FB9C16808780228FCD005B0BDE8F08FC0464D
:20351C00140100209C4100208C52002094400020E8420020E9420020CC3F0020A4400020A7
:20353C002DE9F84F884C00906068C0688B46012101708648002101708548017020684030C4
:20355C0001680D681E46174615B9D0F80C058047804ADFF80482DFF80492906E00214FF050
:20357C00E2453940354008BF002940F085801546B5F89E10082200233A4013EA060708BFA7
:20359C00002A0BD118B14246508B401C50834A4692F90010491E11701D20BBE04A4692F9A8
:2035BC000030DFF8BCA142F201468E42A3F10103137002D0321D8A4216D118B14246508B25
:2035DC00401C508350460068826C00985946904750B1424602F116010088B5F89E3009887F
:2035FC0042F60147874234D15E49481C0278B5F86600B0F5105F13D0AF6E42F606018142B3
:20361C0006D0002FC8D04246508B401C5083C3E7002F00F081804246508B401C50837BE0A8
:20363C00AB6F50460C3003604889062A0CD14A7A022802F101024A7206DB401E80B2488167
:20365C00062003F011F867E00EF056FB09F0C8F962E0491C361D88B29E42D08214BFE120A2
:20367C001C2008F0C7FB99F90000002860D099F90000002862DC56E04A4692F90010276866
:20369C00491E117007F1400118B14346588B401C58830868006843681878800939D2324860
:2036BC00304D06786A78832E36D1032A80462DD104206E79D1F8947088F80000701CC0B212
:2036DC00687197F8246086421EDBA87897F83170461CB742C4BF401CC7B2AF701888000956
:2036FC0005D3886F077817B10FF054F86A78032A04D0052A10D006F0CDFD0DE0832088F88B
:20371C00000011F0C9FC07E0E12003E08521024641E7E92008F06EFB99F9000040B199F967
:20373C00000000280ADC2068D0F84C05804705E02068D0F858240020014690476068C06818
:20375C0000210170BDE8F88F14010020EC420020EB420020603B0020F04F0020EE42002055
:20377C00D03F0020EC4100208E520020F0B500217022ADF1740D68460AF0D0FFF2201CA9EC
:20379C0012F0F8F98A4DBDF870001CA9A5F87800F32012F0EFF9BDF870000DF10101A5F885
:2037BC007A00E220FCF73CFC688EADF80A00410806D305F11C01096803A80160BDF80A0030
:2037DC00810805D3291D098804A80180BDF80A00C10807D305F1200109680DF1120001600D
:2037FC00BDF80A00010908D30DF1160005F15C01302209F043F9BDF80A0042094FEA2011A7
:20381C0006D3A86B6F6B1390BDF80A001297011146108310C21040082CBF0F240B247008E1
:20383C0024BFA41CA4B2580824BF241DA4B2500824BF3034A4B2480824BF0834A4B2204679
:20385C0009F056FE071C00F0B08005260DF1010100F8016B0A68026049684160BDF80A1038
:20387C00083012F045F8BDF80A10844648080BD3BDF80C10604612F03BF8BDF80E1012F06D
:20389C0037F8BDF80A108446880807D3BDF81010604612F02DF8BDF80A108446C8080BD3F1
:2038BC00BDF81210604612F023F8BDF8141012F01FF88446BDF80A103E4AD388080961D39F
:2038DC00BDF81610604612F013F8BDF8181012F00FF8BDF81A1012F00BF8BDF81C1012F091
:2038FC0007F8BDF81E1012F003F8BDF8201011F0FFFFBDF8221011F0FBFFBDF8241011F01D
:20391C00F7FFBDF8261011F0F3FFBDF8281011F0EFFFBDF82A1011F0EBFFBDF82C1011F00F
:20393C00E7FFBDF82E1011F0E3FFBDF8301011F0DFFFBDF8321011F0DBFFBDF8341011F00F
:20395C00D7FF194611F0D4FF117811F0D1FFBDF83A1011F0CDFFBDF83C1011F0C9FFBDF89D
:20397C003E1011F0C5FFBDF8401011F0C1FFBDF8421011F0BDFFBDF8441011F0B9FFBDF817
:20399C000A108446480906D3129960460EF098FF13990EF095FF05F12401224630463B465F
:2039BC0004F06CFE38460EF0B3FA1DB0F0BDC046503D00200C3A00202DE9FE4F8A469346C5
:2039DC0080460021022268460AF0A8FE844F38798DF8008028B107F1680011F029FF002067
:2039FC003871B7F952405FEA080007F168054FF0000600F0A2800D3800F0A28072386AD078
:203A1C007B38012840F29C80801E00F09480401E00F08A80401E00F08380401E79D0B8F1C5
:203A3C00300FC0F28D80B8F13A0F07DBB8F1600F40F38680B8F1670F80F282800321601E12
:203A5C0090FBF1F094FBF1F3201A401EC0B24FEA600903FB01F0241A012C10D0022C1ED168
:203A7C0015F8094068463146102224F00F0405F8094004F08FFA044305F809400FE015F80A
:203A9C0009003146102200F00F00044605F80900684604F07FFA44EA001005F809004C4618
:203ABC0050482A5DB96C005D02EA0009786B4A4503D138A204F0C2FC04E037A204F0BEFC17
:203ADC0005F8049097F85200012132220B4610F029FE044621E00321601E002C90FBF1F0E5
:203AFC00A4EB0000A0F10100C0B24FEA600227DD94FBF1F04843201A022805D0012813D137
:203B1C00A85C40F0F00002E0A85C40F00F00A8540AE0284610F08CFE0124A7F852400FE01D
:203B3C000124A7F8524008E00121E0B232220B4610F0E9FDCDE7E0B2C6E7284611F078FE14
:203B5C00112715F8010B01A902220DF0F1FEDAF800001EA1098880190180DAF80000731CA1
:203B7C00D9B2401801A910F0F0F9F31C7F1EDEB2E7D1B8F1000F0BD0DAF8080014A10F226C
:203B9C0008F07CFF641CABF802400120ABF80000BDE8FE8F00C046C0496E76616C6964208E
:203BBC00696E7075742E204F6E6C792075706461746564207769746820737570706F7274A9
:203BDC006564206368616E6E656C73002000C04620202020204348414E204D41534B00C0A8
:203BFC000C3A0020FC1F00002DE9F04F834C4FF0FF0A00254FF0100BADF1240D84F834A01E
:203C1C0004F1300984F832A065E00C2015FB0096E068690306AA042311F0FDFE06F116075A
:203C3C009DF818009DF8193038700698F375C0F38541032903D09621B1EB106F38D1C0F329
:203C5C000140F8703878FF2830D0FE282ED07E282CD007A80EF0AEFCE06869034FF08852DE
:203C7C004FF4005311F0D7FE65484FF4005650F8041D361FB6B2B1F1FF3F06F1885201D1CD
:203C9C00032EF4D810684FF00108414600F0FF03FF2B18BF8846491C000A0529F6DB106025
:203CBC00079811F019F84644FE8001E0A7F806B038787C280BD0782809D0702804D0FE28BF
:203CDC0008BF84F8325004E084F8345001E084F833506D1CEDB2E078A84296DC94F8331094
:203CFC00FF2920D194F83420FF2A15D194F832200025FF2A18D0521C92FBF0F14143521AC0
:203D1C0091B28A0002EBC1024A44978B002F08BF84F832A003D00A4684F833200225214696
:203D3C0091F8331000E00125FF2910D1002684F83360304607F03EF86178084360707E2121
:203D5C0030460FF027FB2146E07891F8331094F83220FF2A14D1491C91FBF0F24243891A3E
:203D7C00C8B284F8320007F025F861780843607094F83200FE210FF00DFB204690F83310E2
:203D9C0084F8311094F8332010462F46810001EBC0014944898BA570781EE18602D0401E8F
:203DBC0023D028E0172926D91046C91F01AA89B208F090FC9DF80F00C00816D30020009000
:203DDC00BDF81220E18E94F833000323891AC91F01AA89B205F0BAF968B9BDF8101051B17B
:203DFC009DF814000DF0C2FA05E0012084F83500002003F09FFF09B0BDE8F08F6C3F002035
:203E1C00002000112DE9F04F7A4D6868416EADF12C0D02A88847DFF8E0A1DFF8E0B19AF917
:203E3C00000038B1594691F90000002818BF002040F0DD8011F0F6FCDFF8C4910A9099F85E
:203E5C000000800806D27D20002107F0EFF90026079001E00026079602968DF80C600596C4
:203E7C0003208DF81800674CC4F8C460A4F8BE6094F8D73094F8C810674A0127B84666F3F2
:203E9C00030167F3000384F8C81094F8C81084F8D73068F3C71184F8C81094F8D71067F316
:203EBC00410184F8D71094F8D71066F3820184F8D71094F8D71066F3C30184F8D71094F810
:203EDC00D71066F3041184F8D71094F8D71060F3461184F8D7101068D0F8282404F1D80134
:203EFC00F420904748480378A3B94946686809788446890910D3C06B8047C4F8C40094F837
:203F1C00C81021F00F0141F0020184F8C8108DF80C700290D5F804C03D4A3C484FF08073A3
:203F3C008DE80C00DCF850703A4B006804F1BC01894602AAB8470028688006D5022041F2F7
:203F5C0088310BF0DFFEB0464DE0594691F90000324F401C087097F90000401C38709AF9EC
:203F7C000000C5F808903146401C8AF8000002200BF0C8FE284F24483968067001F1AC02FE
:203F9C001068077807B18026288F17684FF67F7303401E433043288794F8D420387860F3FA
:203FBC00C71284F8D420D1F8D400C28CA5F84620428D00F14403A5F844201A6805F13B06ED
:203FDC00326058687060D1F8D400C18CA4F8EE10418D00F14407A4F8EC10396804F1E405FE
:203FFC002960786868600A9811F09DFD40460BB0BDE8F08FCC3F0020F0420020EF42002004
:20401C008A520020603B0020ED420020A4400020200043000160050014010020EE4200202C
:20403C002DE9FE4F9B4615468946824611F0FAFB7B49019008680CAF504508BF48687B4CE5
:20405C006FF0010828B1B83011F0A6FD002840F0D6800FF0E9FF061C00F0DB8004F5CE703E
:20407C0011F0A0FD0023B4F9B400C6F80C90401C86F832306FF31F30A4F8B400C6F808B0F5
:20409C00B4F8B40030866748C6F810A097E80C0020210027B8461940104006F1180383E8BA
:2040BC000300424686F8332006F1200383E88001E8683064287C86F8440028687063287934
:2040DC0086F83800A868F0636869B064A869F064287F86F85000687F86F851002F7C27B9AB
:2040FC00EF6817B1012086F844002F795FB999F80C0000F00F00022805D1012086F838006F
:20411C00D9F808007063484608274568002D18BF002F70D100886FF30900B0F5305F18BFFB
:20413C00022506D196F83300082540F0100086F8330006F1180090E80C00414606F1180756
:20415C0045EA0200194387E80300D4F8D800824507D194F8DC00410824BF00F0FE0084F803
:20417C00DC0031480768002F39D004F1A0000090D4F8A810D4F8AC2004F198052B4630466D
:20419C00B84710F1030F10D0B6F93010B4F9B420914207D0B4F9B41001F6FF716FF31F316D
:2041BC00A4F8B41010F1020F1BD010F1030F18D096F83300B6F9308040F0800086F833000A
:2041DC0000278AF8FC702868864205D0F068007B00F00F0002281CD10BF01CF919E06FF030
:2041FC000200B4F9B410804601F6FF716FF31F31A4F8B41005E07F1E2846FFB285E76FF085
:20421C00020894F8DC0040F0040084F8DC00C4F8D8A0019811F087FC4046BDE8FE8FC04675
:20423C0030300020FFEFFF9F04430020782F00202DE9F0470646F08917468946ADF1280D17
:20425C00C01D80B205460BF0AFF87A4CFF280BD1284603F06FFD854204DD641C207800B937
:20427C000520E3E0012000E000206178D9B917B1022F18D1B8B1307A8DF80C00F788ADF804
:20429C000A70B588ADF8085000230093E18E94F8330001AA032304F059FF9DF81400307400
:2042BC00BDF81070B78194F83310E58EE06806AA04238846490311F0AEFB069800F0FF01C2
:2042DC0000F0FF007E2806D140467C210FF062F8069901F0FF017C2940F0A580F08942F2A3
:2042FC000102C11D8FB2E9198A4240F39A80F188327AC1F301238DF81D10B18843EA8203CB
:20431C008DF81C308A1006468DF81E200423C0F3851201F0030142EA81128DF81F2010FB13
:20433C0003F1F21D01F0FC01731990B28DF820101FFA83FA0D282BDB48463146002211F0F4
:20435C0095FA0246052107A811F090FA9DF82010334600F03F064A4641EAA011B0008DF8F6
:20437C00201040F0020096268DF8210029468DF8226040460DF074F90646514607AA072339
:20439C00404666700DF06CF9304360704DD135E004F124004946324608F070FB07A90A6828
:2043BC00301900F12409484609790260731D0171002204F1240099B211F058FA9DF8201068
:2043DC00962300F03F068DF8223041EAA011B0008DF820103B4640F0020007AE49468DF83F
:2043FC0021003268B0790A60B288887140468A8004F1240229460DF033F96070E18EED1998
:20441C004FEA8806AAB2C919E18606EBC8010919A1F84C2048B1404651460CF0A7FF6078A3
:20443C0003E0052000E001206070C0B20AB0BDE8F087C0466C3F00202DE9F04F14460E466B
:20445C00ADF1140D0568DDF838A00490181C14BF1F1C01AF4FF00008C7F8008011F0E2F97F
:20447C002979490838BF6FF00E0904D395F85C301BB16FF008098246D7E02E666C66EC665D
:20449C00C5F874800122C5F83080E97985F85C2001F0F701E97101F0DF01E97111F043FBB7
:2044BC0004980EF09BFA6C79C14674B9BAF1FF3F0BD0BAF1000F08D005F1C8045146204683
:2044DC0011F06CFB204611F06BFB11F0ABF9824650E06C6F002C3BD0049805F011FA68795F
:2044FC0001282FD1E879400803D2E86E002840F09180C5F86C80287A85F85C8040F0020064
:20451C002872504611F00FFB287A410826D2800824D311F087F9297A01F0FD01297241F003
:20453C000101297211F0FFFACDF80090D5F80C41296E6A6F2B6C0498A047287A00F0FE003F
:20455C002872E4E7E879400864D2EC6E002C61D0504611F0E8FA6879012803D111F062F991
:20457C00824657E058464FF0FF3110F0F0FF11F059F98246EC6E002C4CD0E879010943D2E7
:20459C0080093ED204980CF067FD05F178044146204610F0DCFF504611F0C5FAA34605F1FB
:2045BC00440A504602A90FF004FB044611F03AF90390E86EA04238BF041C686F0299224618
:2045DC00801908F05BFA504621460EF05FFC686FE96E0019091B68670398E96611F0A3FAC1
:2045FC00002C02DDE86E0028DBD111F01BF98246687902287FF46DAF686F08B96FF00F09E4
:20461C0008E06FF00C0905E0E8796FF00D0900F0F700E8716879012805D085F85C8005F1F9
:20463C00C80011F0BFFA686F3860504611F07BFA484605B0BDE8F08F2DE9FF478246DAF804
:20465C0004603068DAF80050076C17F4F06F47644DD0A86B00284AD0E879002400F07F0032
:20467C00E871F80A2C6028D3E86CAC6CDAF80090DAF80480241A06E00068C1B209F14400DB
:20469C000DF07AF9641ED8F800008169490901D2002CF1D1306804E001688DF808109DF828
:2046BC00081081694909F7D32868401C2860E979C81104BF41F08001E9713068EB6B4468A8
:2046DC0004F00F0404EA0301B1FA81F24FF0004323FA02F0014006D0A86B20B12A682B6CF2
:2046FC0084465046E047204610F0D6FF2863D5F8E00140680068F16BD0F804250A4201D128
:20471C00F90915D350460BF0CBFA504605F0F8F86879012804D1E86E10B150460AF0A0F9A3
:20473C0005F1780011F04EFAD5F8E00140680068D0F80415B06B014255D0D5F83C01002852
:20475C0051D050460AF09CFE504607F055F9A87901283CD1D5F83801002838D005F5887890
:20477C0001A940460EF0ACFB0446D5F83801A04238BF041CD5F84021D5F82C11019889188D
:20479C00224608F07BF9404621460DF03EFED5F83801D5F84011001BC5F838010919C5F8EF
:2047BC004011504607F028F9D5F8380178B995F8280160B1002085F828010090D5F8D841A4
:2047DC00D5F82C11D5F840212B6C5046A047D5F83C0120B93168886B40F40060886305F589
:2047FC00A27011F0EFF9380B1DD33168086B20F480700863E879820811D300F0FD00E96BE4
:20481C00E871880907D3A86B28B12B6C0746202100225046B84702200EF0ECFD3168886B5B
:20483C0020F4006088630090BDE8FF872DE9F84F0746714D714C28684030D0F89410267813
:20485C0091F883B026B1D0F80C0580472868403001680E6816B9D0F80C058047A046694923
:20487C00674C0120012F88F80000D1F8009067702AD9DFF894A1654EBF1E59D07F1E52D0E1
:20489C007F1E3DD07F1E73D07F1E34D12968096C096891F86D20628191F86E70002F06BF05
:2048BC00E070071CE770686840683178007811FB00F0784381005046C16690F8701021F06B
:2048DC000F0141F0030151E000202E686071306C0068D6F8D410C08AC00934BF91F8250055
:2048FC0091F84E00A070B7B9CF78A7B10228C4BF0220A0700FE02868D0F84C05804737E051
:20491C002868006C006890F86910617190F86A00A0700027A77105F0BDFC2868006C0068F1
:20493C0030BBBDE8F88F002060710DF051FF1FE030788700D9F83C00804771683C22401A73
:20495C00B0FBF7F0B0FBF2F15143401AC0F1780086B2D9F83C00804707FB06015046C16632
:20497C0090F8701021F00F0141F0020180F870102748007898B92868403001680F682FB9C6
:20499C00D0F80C0580472868006C07687A686178107800F0200020719078E07100E06178FA
:2049BC00032903D0022918BF062923D110F03AFF05466078022815D01648077817B9164940
:2049DC000F787FB10221BBF1010F88F8001004D10078832801D10BF0DFFD284611F0A3F8EA
:2049FC00BDE8F88F832088F80000284611F09BF80FF028FCBDE8F88F140100208E520020C6
:204A1C00EC410020D03F0020603B00209C41002080520020895200208B5200202DE9F04F07
:204A3C00754C0646A068D0F80001807AADF15C0DC00008F05DFD00280C9008BF1A2400F0B0
:204A5C00D6804FF0010AF07D8DF848A006F118018DF849000A680DF14A073A604A687A60FB
:204A7C00097A397210F0DEFE1590A068D0F888240DF1460181209047B07D00283DD00420AC
:204A9C008DF803A04FF000088DF80400B78A8DF80280A568ADF80070D5F894246946D22072
:204ABC0090474FF6FF79C34645461DE0C00043F800B0B18AC0188180DCF80020D42008A95D
:204ADC00904702E04846ADF804008DF80780B08A8DF806803B68ADF80000D3F894246946FF
:204AFC00D12090476D1CADB204F108073A6802F580721068C088A84236DCB08A00279DF8A9
:204B1C004920ADF838000DF14A018DF83A700DF13B0007F0B3FFA068D0F894248DF844A0E8
:204B3C000EA9D0209047071C18D1B08A31461022ADF808000DF10A0007F0A0FF3069A768F9
:204B5C000790D7F8942402A9D3209047071C02D10C9838B104E00C9820B101E00C9808B18C
:204B7C000DF0D6F9FCB23FE0ADF80250B08AADF80000D2F888236946D12090470028A1D124
:204B9C00BDF8040081459DD0ADF82000A068D0F8882408A9D420904704F1080718B10C98DF
:204BBC0008B303461CE0386804F108073B6800F2944CD3F8000190F80AE00C9B404601E074
:204BDC00401CC0B2864507DD03EBC0018988894502D0B28A8A42F3D186457FF467AF13B1F8
:204BFC0018460DF095F91924159810F09CFF204617B0BDE8F08FC0460C0100202DE9F04F52
:204C1C00724C002704F19800ADF1140DB946B846056802978246CDF80C903DB3D4F8AC00B3
:204C3C00B84203D1D4F8A800B8421DD0D4F8A8600EB3D4F8A8102869096988421BD195F8D0
:204C5C003300400917D3D4F8AC60A6B90127D4F8A800C06840880028F9D0D4F8A800C06882
:204C7C0040880128F3D006E0012704E004F1E000022110F0AFFF002D43D087F0010B03A85E
:204C9C0002AA594607F046FB5FEA000809D0012F07D0039929B104F5AC7010F035FA4D46F7
:204CBC002FE0002D2DD04A48066856B3B8F1000F27D0039828BBCDF800B002980190D4F8FD
:204CDC00A800D4F8AC100AF108035246B047401E02D0401E08D014E0029800B928460121B6
:204CFC004B460091014605E001230093D4F8A800D4F8A8100069B1F930104A4602F046FE82
:204D1C0060E0002F5ED0002D5CD060682969884252D1B8F1000F0BD0039848B1D4F8A8009F
:204D3C0030B9D4F8AC0018B908200EF07BF849E008200FF017FE95F8330004F1E006C0F3D9
:204D5C00001028B950460FF0B1FAC4F8A80004E050460FF0ABFAC4F8AC00A8691D49C043A2
:204D7C000860A8694A6810434860E869C04341F8080CE86951F8042C104341F8040CEC6896
:204D9C00082029460FF062F920460FF03BF92088A0F6020040B141F21E01401A04D041F685
:204DBC00E671401A012803D8012021460FF04EF94FF08041304603E004F1E0004FF4806102
:204DDC0010F008FF05B0BDE8F08FC046782F002008430020101004406E4A2DE9F0411278B2
:204DFC000F46ADF1180D824215DD6B4C3B7804EBC00466682568012B01D1786858B178787A
:204E1C00012801D1B86830B110F00CFD2979490803D310F088FE0020B8E0297941F0010195
:204E3C00297110F080FEE87900F0FB0000F0FD01E87101F0F702E971104600F0EF01E871D8
:204E5C000846E87100F07F00E871287A00F0FE00287200F0FB002872387868717878A87186
:204E7C00397DE87901F0010100F0FE000143E9717868C5F80C01B868C5F8D801F868A863B5
:204E9C003869E863B869A862787F85F82D00387F85F82C00B87F4FF0000885F82E003A6A11
:204EBC00C5F82C8143462B661846C5F83801E866C5F830016866C5F83401A866286368639E
:204EDC002867C5F83C0185F85C0085F82801A96BC5F8E0312A6411B9E8633048A86396F818
:204EFC00400006F0BDFAF168326905F1440010F025FB7169B26905F5887010F01FFB2848EA
:204F1C000068C06801463068884720460CF0B0FE0CF0C4FAC5F8E001204603F0D3F8214A40
:204F3C0005F5F270234604210EF0FAFE684610F06BFB327A05F10C00716801921A4A00944F
:204F5C006B460DF0F7FC05F1780041460FF0B0FA05F5A27041460FF0ABFA03A810F04CFDCB
:204F7C0005F1C80011490594424603AB0DF0F2FE0F4905F5CA70424603AB0DF0EBFE306801
:204F9C00716B0860326B31682046516006B0BDE8F081C0461A210000782200000BD50000DD
:204FBC00D00100109556010055460000A55601007D5501002DE9FE4F8946934680460021AC
:204FDC000222684609F0AAFB694F78798DF8008028B107F1580010F01FFB00207871B7F99B
:204FFC005640404607F158050026FB280CDCFA2880F2868000286FD00D3800F081800E3876
:20501C007ED064384AD007E0FC3870D0401E67D0401E61D0401E32D0B8F1300F70DBB8F1B5
:20503C003A0F05DBB8F1600F6ADDB8F1670F67DA0321601E90FBF1F0241A641EE0B24410B8
:20505C0040080CD2285D3146102200F00F0082462855684602F09EFF4AEA00100BE0285DAB
:20507C003146102220F00F0082462855684602F091FF4AEA0000285597F8560038E03D48A4
:20509C0090F87A1041B999302946102207F0F6FC3046294608F032FE01242FE00321601EB2
:2050BC00002C90FBF1F0A4EB0000A0F10100C0B24FEA600224DD94FBF1F04843201A0228AE
:2050DC0005D001280CD1A85C40F0F00002E0A85C40F00F00A85403E0284610F09DFA0FE0BD
:2050FC000121E0B22F220B460FF00DFB05E0E0B201212F220B460FF015FB0446A7F856406E
:20511C00102715F8010B01A902220CF011FCD9F8000010A1098880190180D9F80000731CBF
:20513C00D9B2401801A90EF010FFF31C7F1EDEB2E7D1B8F1000F0BD0D9F8080006A115227B
:20515C0007F09CFC641CABF802400120ABF80000BDE8FE8F2000C0462020202020444546B4
:20517C0041554C54204E574B204B455900C046C00C3A0020583C002069482DE9F0471CC802
:20519C00ADF1280D69461CC11CC81CC10DC881E80D00644B0093654F7B6003F11006BE608F
:2051BC00614C019604F11402029204F12C00039004F14401049104F17C08CDF8148004F1A6
:2051DC005C0506955A4E0794B2E8005606F17C03A3E8005692E8045283E804520346B3E8B8
:2051FC00005206F13402A2E8005293E8085082E80850B0E8085006F14C02A2E8085090E814
:20521C00091006F1640982E809101822484607F035FC96F870003C22414640F0800086F871
:20523C00700006F1BC0007F029FC96F8CB10012060F3000186F8CB1096F8CB1060F382019D
:20525C0086F8CB1096F8CB1021F0200186F8CB1096F8CB1060F3C71186F8CB10B5E80C50FF
:20527C0006F19C01A1E80C5095E82C1081E82C10C6F8A09096F8A81060F3C71186F8A810A6
:20529C0096F8A91021F00F0141F0020186F8A910042286F8AD20052186F8AC1096F8AE1002
:2052BC0060F3040186F8AE10032186F8B01096F8B31060F3030186F8B310B4E8281006F128
:2052DC002001A1E8281018CC81E8180096F82C1060F3C71186F82C1096F82F1062F3030196
:2052FC0086F82F1096F82F1060F3C71186F82F1096F82D1060F3030186F82D104FF4586048
:20531C0030630898F8600B4800684069007808B108F036FD06F00AFF0AB0BDE8F087C0464B
:20533C00342000000C3F00207418000094400020603B002018010020FEB56A4C606925893E
:20535C00A689E169806D2A468919083107F096FB6269916D49199165E2697619B0B2121871
:20537C000832127801A90A705B4EE169401C80B20918097A721C401C117081B2E269A181F9
:20539C0052180832126868460260091DA18104210FF06EF963690090054610F027F8D863EF
:2053BC0028460FF017FBA3F84000EA200DF024FE02204A494A4D087068684069007830B1B8
:2053DC00307810B97078FF2801D00420E0706769E078397C084338749DF9040010F00AFC78
:2053FC0087F8460007F17406BE6539899DF904007B6887F84800B7F85C000026401AC018CE
:20541C0001467860B88987F84760820A18D2020926D310F0070F07D000F00700032812BF90
:20543C00081C7868401C17E07968C87800F00702401000F0380000EB42004018001D0BE0DA
:20545C002868D0F80813384688476769786E10B1B7F8680090B178687861B889000917D2B5
:20547C0097F8600018B32868D0F80C13384688476769F86CD8B1B7F85000C0B92868D0F805
:20549C00541204F11400884766610AF00BFAFEBD2868D0F8B4143846884778706769B869EB
:2054BC007B7878651BB1F2200DF0A6FD67692968B8310A68107838B1936C2BB1194638469D
:2054DC00884767692968B831D1F8A0113846884766610FF0E1FAFEBD1C43002089520020FA
:2054FC0014010020CC4F0020F8B5694C2168054614310868407F002800F0C880D1F8C0008D
:20551C00B5F84220C08C904240F0C080D1F8581305F128008847002800F0B8802068406930
:20553C000026467721687031486E90F8290028B16068816A0220884721687031086890F83C
:20555C002B0018B16068816A01208847287C400908D36068816A102088472068D0F8281393
:20557C00802088476068C16B202088472168C868D1F8FC141030884768682268417852692E
:20559C00007800EB0120C0F30321517622685269C0F3003797762268526900F00F03C0F397
:2055BC00031793772068D0F8D40080F82C7022680C32D2F8C81091F84F000F2806D0936829
:2055DC009B7F984202DD6B68DF780FB19068807F4873106880F83060D2F8C800417B0F293A
:2055FC000BD19068C07E022850D1D2F8580180472068D0F86C018047F8BDD2F800252846B2
:20561C00904723680C339868C07E022815D1D3F8F014186888472268D2F8D4001169467BFE
:20563C00D06831F81630D2F8F0244FF4707707FA06F1C91A904723680C33D3F8C8002A89DD
:20565C00D3F8A83190F82C1002209847206800F11401D1F8C020D0F8D400527B90F82C0071
:20567C0082420FD00868D1F8E81488472268D2F87C015169886050694169D2F8F0249047DC
:20569C0021681431D1F8141310208847F8BDC046140100202DE9F0476348644C00260C2245
:2056BC00ADF1480D314690F80080099604F1300009F034F8608E40F01900608640F6B83038
:2056DC0060634FF4FA60A06304A810F025F8584D4FF00109314604AA05F118078DF8109035
:2056FC0038460FF0C9FE281D0760074610F078F9696805F108020AF005F8287010200EF052
:20571C00E6FD011C0CD0D02008704E7028788870CE700E7133468B604046CB600BF04CFEBC
:20573C00484610F0ADFA05F11001E22010F024FA3868206105F056F904F18C00E86020693A
:20575C0051F01EFEE820314610F00CF8E720314610F008F8DFF8DC8008F12C00006840B31C
:20577C00476937B34FF0070A8DF808A00425ADF80A5009A8ADF80C6002AB009093E8030051
:20579C0032462B46B847002804BF0998193011D030468DF808A047460A90F86AADF80A5024
:2057BC0002ABC769ADF80C6093E803002A460AABB84730460990314608F0A0FAE0203146AE
:2057DC000FF0D0FF4F2003210FF0CCFF572005210FF0C8FF4E2005210FF0C4FF592005212A
:2057FC000FF0C0FF0FF0CCF80DF13A000BA90AF013FC012815D104A83146112208F08EFF2D
:20581C009DF838104D4601F0070005FA00F00DEBE101087404A80FF00BF8A01C49460FF0C7
:20583C0094FC12B0BDE8F08770180020503D0020D04000200C3A00202DE9F04FDFF898919E
:20585C000646A9F1080000F108078068D0F80001807AADF12C0DC00007F04AFE00280890FD
:20587C0008BF1A2500F0B4800FF0DCFF00244FF0FF0B25460A9027E0ADF800608DF80240C3
:20589C00D2F88823D02069469047D8B99DF80C00012802D19DF80B1019B998B99DF8071054
:2058BC0081B1002814BF082304230DF103005B1E00F801BBFBD105703868D0F8942469460F
:2058DC00D0209047641CE4B23A6802F580721068C07AA042D0DC4C462068D0F80001C088D9
:2058FC004FF6FF78AA461DE0089901EBC0018A8896421CBF401CC0B261D1C1F800A0A1F8DE
:20591C0004803A68D42004A9904702E07F1CBFB225E020682268D0F800016D1CEDB202F5E0
:20593C008072C088A842D8BF55464BDDADF80060ADF80250D2F88823D120694690470028BD
:20595C00E7D1BDF804008045E3D0ADF810002068D0F8882404A9D420904790BB57462268A7
:20597C0002F580721068C088B84210DDADF80060ADF80270D2F88823D1206946904700284B
:20599C00C4D1BDF81000BDF804108842BED12068D0F80001C088B842BBD1ADF81480ADF872
:2059BC00168006A85946082208F0B8FE2068D9F8003000F29447D3F80001837A5046834296
:2059DC0092DC19250A9810F0AEF808980CF0A0FA28460BB0BDE8F08F140100202DE9F047B2
:2059FC00644E04469246306894F83080D0F888240F469946ADF1300D0DF10E018B209047D1
:205A1C003068D0F8882401A98A20904794F82500002840D1B8F1000F1AD1BDF80E104FF68E
:205A3C00FE70884206DCBDF80E10884240F09C8001A916E0B4F844009DF80E508DF810002F
:205A5C0000128DF81100BDF80E008DF812501CE0B8F1020F0AD0B8F1030F40F0858004F163
:205A7C00280104A80FF0E0FC092512E0207CC00934BFB4F84200B4F844008DF8100000125D
:205A9C008DF81100208D8DF81200001205258DF81300002015E002280CBF052509250128B1
:205ABC0018BF04F11C0106D13068D0F8882407A98920904707A904A86A1E06F0DFFF94F88A
:205ADC0026000DEB0501C8733068D0F898343A46294604A89847002846D1B8F1000F19D1C4
:205AFC00BDF80E104FF6FE70884205DCBDF80E10884239D101A915E0B4F844009DF80E5030
:205B1C008DF8240000128DF82500BDF80E008DF826501BE0B8F1020F09D0B8F1030F23D109
:205B3C0004F1280109A80FF07FFC082212E0207CC00934BFB4F84200B4F844008DF8240005
:205B5C0000128DF82500208D8DF82600001204228DF827003068D0F8A444CDF800903868F4
:205B7C0009A95346A04708B1F32000E000200CB0BDE8F0871401002001282DE9F84F40F048
:205B9C00B080DFF88491D9F83401012840F0A6800220C9F834010FF0B7F801200CF08EFFD8
:205BBC005FEA000805D00120C9F834010FF0B8F899E011200FF078FE00280CBF0025012580
:205BDC0010200FF071FE08B145F002050F200FF06BFE08B145F00405444CA06A006801463F
:205BFC0001208847012805D099F83801012818BF002703D1002002F0D1FD01270FF04EFE83
:205C1C00DFF8ECA040080AD20026206A80680146504688478346BBF1040FF6D000E0012648
:205C3C00304600214FF0FF3201F0E0FA012E0ED0BBF1010F05D1206A4068012102465046A5
:205C5C00904732496C39086840F003000860206840690146284688470B200FF025FE254EB1
:205C7C0030B12068C06A3146091D0246088890470A200FF019FE28B12068C06A314602469F
:205C9C00088890471C4903200124C9F834011B4E0C600023336028460BF042FB0128FAD1B9
:205CBC00174D286804200CF009FF0646154804602868012F02D1204602F070FD0FF0D0FD7B
:205CDC0008200CF0FBFE0746C9F834410FF028F857EA060018BF4FF0FF3804E06FF0040806
:205CFC0001E06FF001084046BDE8F88FB801001000400340AA1E0000282008600C20084055
:205D1C002C2009400C4009409C380020902208402DE9F04F634C8346A4F10805A868D0F808
:205D3C000001807AADF12C0DC00007F0E1FB08900FF078FD0A90A86800F59162D0F800017B
:205D5C0000894FF6FF790026C846CA4636E006AF5946082238460EF02BFB78B92068D0F8E6
:205D7C001C153846884700283AD02068ADF80490D0F894246946D120904731E0ADF8148055
:205D9C00ADF8168006A8FF21082208F0C7FC2068D0F8942404A9D42090472068ADF804A0A8
:205DBC00D0F894246946D120904720682268D0F80001761CB6B202F591620089B04208DCB2
:205DDC000A980FF0B0FE089808B10CF0A1F8002064E02068D0F80001C07A0127002531E01D
:205DFC002068D0F800012268C0886D1CEDB202F5916230E0ADF800608DF802501268D020FC
:205E1C0069469047A8B99DF80C00012810D19DF80B0068B90DF102020820002112F8013F7E
:205E3C00FF2B03D1401E01F10101F7D10829BCD0002720682268D0F800016D1CEDB202F550
:205E5C009162C07AA842D5DC002FAED12068D0F80001C0880025A842A7DDADF80060ADF8DA
:205E7C0002501268D120694690470028B8D1BDF804008045B4D0ADF810002068D0F888245F
:205E9C0004A9D420904700283FF461AF0A980FF04AFE089808B10CF03BF819200BB0BDE8F9
:205EBC00F08FC046140100202DE9F04106460F465E485F4990F80080ADF1400D0DF13200B3
:205EDC000A6809790260002E017144D0594CE56A002F40D0D5B1E869C0B1072001238DF851
:205EFC00100031460C22ADF8123006A80023ADF8143006F0C3FD09A839460E2206F0BEFD69
:205F1C00ED6904A803C81A2206ABA847787B012538B9606BA16CB8F1000F14BF0FA21CA2E0
:205F3C0006E0606BA16CB8F1000F14BF25A232A273880093338801933B7B02930DF1320306
:205F5C0002F07CFAE06B65700EF09FF9E06B64210CF0AFFEA57010B0BDE8F08152656A6F13
:205F7C00696E65642D2D4D6F64653D25732C20416464723D3078253034782C2050616E4950
:205F9C00643D3078253034782C2043683D2564004A6F696E65642D2D4D6F64653D25732CA5
:205FBC0020416464723D3078253034782C2050616E49643D3078253034782C2043683D25ED
:205FDC006400C04652656A6F696E65642D2D4D6F64653D25732C20416464723D3078253056
:205FFC0034782C2050616E49643D3078253034782C2043683D4648004A6F696E65642D2D66
:20601C004D6F64653D25732C20416464723D3078253034782C2050616E49643D307825300B
:20603C0034782C2043683D464800C046503D0020F11F00000C3A0020F8B5074661485F4C5F
:20605C00001DC26A0168B7F5C067C2F30722C4F81071C1F38441C4F81421C069C4F818110C
:20607C00C0F38120C4F8280100F0A38094F830616EB9C4F82C71D4F81801C4F82001D4F88D
:20609C001461C4F81C61D4F82851C4F82451D4F82C01D4F81451002854BF02236FF00103D3
:2060BC0004F59072116800EB4000C018431000EB937001EBA0011160D4F82011C4F81C51E8
:2060DC0000291CDD1E293DDDD4F8240130B93429B4BF15391E21C4F8201125E02A29BABF2C
:2060FC00D4F820010B381E20C4F82001D4F81C013E28D4BF401C3F20C4F81C011FE0D4F8F8
:20611C002401032812D011F10A0FA6BFD4F820010B300120C4F82001D4F81C010028CCBFEF
:20613C00401E0020C4F81C01032009E011F1140FA6BFD4F8200115300120C4F82001002006
:20615C00C4F824014FF08057D7F8A401B4F81C111B4D40684FF47F42082306460091284655
:20617C003021B047D7F8A40101214FF40032112340680091064604212846B047D7F8A401F9
:20619C00B4F8201140684FF4F80212230646009104212846B047D7F8A401B4F82411406888
:2061BC004FF440620A230446009120212846A047F8BD002084F83001F8BDC0469C3800200F
:2061DC0000A00C4000A00C402DE9F04704460020ADF1200D5E4D04908046059004A905AA53
:2061FC0006AB286894F82470D0F8A864CDF818802046B04700284FD1049A6669606823896B
:20621C00AA46311AAAF10805581A1FFA80F91AB9A868D0F84C058047A868B4F85C30D0F8A8
:20623C00B0C400930196CDF808900598001D03900498A169A36D3A461530E04760BB05F147
:20625C000806336803F5867318682289395C501A94F86020208132B1D3F8001220468847BC
:20627C00336803F58673A68906F00706032E02D160680078E073D3F89033E27B38463146CD
:20629C009847DD2810D00746A868D0F8AC34E27B04983146984708B1C1B231E00598007C74
:2062BC00464620B9DC2F02D1DD20014628E0A069B0F1FF3F04BFDB2080461FD0A868D0F800
:2062DC008C2407A97120904755462868D0F8000103892C27304601E0401C80B2834211DC70
:2062FC000598A169C368F200491CD150C0681058B0F1FF3F02D106980121C17040464146F8
:20631C00607020E00799049A07FB00119142E3D12968D1F800118A7A464601E0761CF6B2A3
:20633C00B24206DD0599C96801EBC60189888142F4D1B24206D00599C968A26951F836101C
:20635C009142C9D9DB2108B00846BDE8F087C046140100202DE9F8435F4CDFF868815B4DEF
:20637C00D4F83C0100286ED0574E401E0AD0401E60D0401E1CD0401E53D0401E1AD0401EB6
:20639C0033D02FE04E4801250221006884F83A517022042340680091002107464046B8479C
:2063BC00356004F150000FF0FBFB2846BDE8F883022100E003214FF08059D9F8A40184F833
:2063DC003A1140680025702204232946074600954046B847D9F8A401C06870222946134602
:2063FC000125DAE70320BDE8F88300262E606E6028688008FCD268688008FCD237483449CD
:20641C000127001D06600E200F6004F033FD02200CF0F0FFC4F83C6184F83B610220BDE8AF
:20643C00F8830520C4F83C010027376030688008FCD242E00320C4F83C0100273760306867
:20645C008008FCD239E0234F01260F202E6042F62A21C7F80B004FF08059C7F80F10D9F847
:20647C00A40140684FF4C072072302218446404600910021E047D9F8A401C06800214FF4C6
:20649C00C072072384464046E0472E6028688008FCD394F83901C7F81B6018B90321002083
:2064BC000E4602E0002028630321C4F83C6147F8011C686068688008FCD20020BDE8F883D8
:2064DC00A401001000A00C4058600C4054600C4004800C4001400C409C38002038500C40D6
:2064FC002DE9F04F5F4C0C3C94F8318094F832A04FEA880000EBC8000019B0F84C00ADF17E
:20651C00240D0025ADF81C0004F1300008904FEA8A0000EBCA000019B0F84C60657006A823
:20653C000CF048F8AB46BDF81C106078162951DD002840F09080BDF81C0001AAC01F81B2F6
:20655C00ADF81C10404606F0C5F8BDF81210BDF81C200D46E81D05F1100387B2934273D893
:20657C009DF80E0096286FD19DF80F00420827D2800825D3BDF81C00CDF800B0401B1FFA3D
:20659C0080F99DF80D20BDF81C004346401A80B20CF02EFC70B9E068C6F1885209EB483921
:2065BC003B46D21B494602F500520FF034FAF619B6B205E0BDF81C00401EADF81C0043E0DD
:2065DC00BDF81C00401BADF81C00BDF81C1060781629ADDC00283ED14FF6F0704FF40051C1
:2065FC00C6EA0040C6EA0141E1FA40F01FFAA0F283B2102102F1885250460BF031F8617821
:20661C000843607006980EF067FB08994FEA8A0000EBCA0040188683BDF81C70A4F844703A
:20663C00A4F84060B4F9422094F83D10012350460DF062FB94F83E10B4F944205046022360
:20665C000DF05AFB58460AE0404607A909F092FA01283FF468AF06980EF03EFB102009B058
:20667C00BDE8F08F783F00202DE9F0475B4F8146381D0068416EADF1280D02A88847534DED
:20669C002A6840321068006820B9D2F80C0580472A6840324E484FF001086E6880F80080CF
:2066BC00F068007830B9D2F818244046002190472A684032106801684C68088921788246F6
:2066DC00C1F3401104F0B2FD079009F01FF9414E746786F873A00024A6F866400FF0A2F852
:2066FC00059482463146B9F1010FA6F8664004BF3948C1F8B80039F001093E4643D18C6636
:20671C00A1F89E4001F16400C1F8A00091F8713091F8A92091F8B370022068F3030360F339
:20673C00030281F8A92091F8A82081F8713064F3030281F8A82027F00F0242F0040281F815
:20675C00B3202A6840321268126853681B7801F164079B090CD301F120038B66526892785A
:20677C0091F8715081F82E2060F3030581F8715001F1100001F19C0242604A7F64F30302FE
:20679C004A77014601E064310F467068144A056D08238DE81800134B106802AAA8471249DE
:2067BC000028088006D4114991F90000B760401C087004E0404641F2883109F0A3FA5046E2
:2067DC000FF0B1F90AB0BDE8F087C04614010020EB420020603B0020801A0600CC3F002010
:2067FC00A44000203D350000F4420020EE4200202DE9FE430F469146804600210222684625
:20681C0007F08CFF584EF0788DF8008028B106F10A000BF075FE0020F0707589B6F94E40C4
:20683C005FEA080050D00D385FD0723839D07B3801285AD9801E4FD0401E3ED0401E43D0FB
:20685C00401E26D0B8F1300F4FDBB8F13A0F05DBB8F1600F49DDB8F1670F46DA6846002198
:20687C00102201F097FB2421A1EB840174894FF6FF750F22C0B2CBB29A40984085EA0201F7
:20689C0004EA01027281024395B296F84E00758123E0364991F87A0008B9A1F860500624E1
:2068BC0021E0062C21DB24200F23A0EB8400C1B203FA01F00543ADB27581E0B20621092226
:2068DC0000230DF020FF0DE006F10A000BF018FEB6F94E40758908E0E0B206210922002334
:2068FC000DF020FF0446A6F84E404FF6FF70A84211D0284601A904220BF01AF810A13868CF
:20691C000B6803608E7986718B888380386801A90DF01BFB04E038680BA1112206F0AEF815
