:20000000003C0120ED45010039FB021039FB021039FB021039FB021039FB021039FB0210AC
:1C00200039FB021039FB021039FB021039FB021039FB021039FB021011FB021002
:20003C002DE9F04FD44D0220A86000272F60ADF1240DEF604FF0FF306860102019F0ABFC1A
:20005C00286140B1076005F1140141602C69876005F15006E660A3A068610826EE614FF021
:20007C00FF34AC6140202D6219F095FC05F114043946C24B686218B1CA0087508218536080
:20009C00491C0829F7DB9AA028654FF0030BC5F858B04FF0FF366E651820ED6519F07BFCB2
:2000BC00002828660AD096A10160B549416096A28260C16002D096A202614161AF624FF0C3
:2000DC000108C5F830803046E86208206C6319F062FCA86318B1076005F13C0141608EA033
:2000FC000626E8634FF0FF346E6405F128032C643020AB6419F04FFC0646002EEE6418D011
:20011C008BA030609F4870608BA1B160F06010D08BA131618DA2706106F118042260F06140
:20013C0007D08CA1316290A2706206F128042260F0621AF013F915F01DF8061C00F08085CA
:20015C0018F0AAFC90498446384631F80C4F002C40F072854FF6F8720A804E608B4C20708F
:20017C008F607068E060604618F085FE884910204FF4FA7208F0E8FE86480678B6B9864913
:20019C000646404606F118094FF47A7230703B460097484615F090F9804A361D04213B4693
:2001BC00304617F0FFFD484619F04DFC04F14006394630461AF0CEF87948266141F2883295
:2001DC003B467849009004F14C0015F075F9764E76493A46152306F12A000090102008F069
:2001FC00B3FE734910203A46022308F0ADFE4FF480604146324605F0D9FE40F20240414615
:20021C00721C05F0D3FE40F203404146B21C05F0CDFE40F206404146F21C05F0C7FE321DCE
:20023C0040F21140414605F0C1FE721D40F21B40414605F0BBFEB21D40F20D40414605F0C9
:20025C00B5FEF21D40F21240414605F0AFFE06F1080240F20C40414605F0A8FE06F1090270
:20027C004FF48360414605F0A1FE06F10A0240F20740414605F09AFE06F10B0240F2144007
:20029C00414605F093FE06F10C0240F21640414605F08CFE06F10D0240F21540414605F099
:2002BC0085FEDE491020424608F04EFEDC4910204FF0FF3208F048FE1020DFF868A30090D7
:2002DC00DA4AD948132351460190102008F03CFE202019F060FB0146D54881468160002924
:2002FC0077D067E0576F726B207769746800C046536574204175746F436F6E6E6563740020
:20031C0044697361626C650047726F757020410047726F757020420053657420436F6E6E56
:20033C002050485920507265666572656E63650031204D62707300C032204D62707300C02A
:20035C003120262032204D62707300C0436F64656400C0463120262032204D6270732C209A
:20037C002620436F646564004175746F20504859206368616E676500D03300204D5C01003F
:20039C00E18D000031C20000F01D0020BC160020053B0210302200201D920100D5860100F1
:2003BC0047260020F5710100441E002041360100255F01004FF6F870C01D16F0BBFDCD4950
:2003DC00102009F11402009011230191514608F0BBFD5B4640468DF8193004228DF817006D
:2003FC004FF002088DF81A20C3498DF818800DF10E0338460A6809791A600DF11702197114
:20041C0001210EF059F8012006AA01460EF054F801210DF1190240460EF04EF85846012128
:20043C000DF11A020EF048F8042005210DF10E020EF042F804F1140004F13802AF49C9F8C7
:20045C000400102008F080FD207817F093FAAC490246102008F078FD207817F08BFAA949BB
:20047C000246102008F070FDA7491020FB2240F6480308F069FDA54910209DA208F064FDB1
:20049C00DFF88CA20AF118000AF10C010EF034FFA049CAF8080019F057F9DFF87C92DAF82C
:2004BC0008004FF4E0214A46521E16F0F5FBDAF808004FF4E0214A4616F0EEFBDFF83493A3
:2004DC00DAF808004FF0C0514A46521E16F0E4FBDAF808004FF0C0514A4616F0DDFBB9465A
:2004FC000AF12400C8223B46C549CDF8009014F0E3FFC4484FF6F877CAF80400781D12F0F0
:20051C0081FC207817F036FA1036034604224046BD4900901020019608F016FD04F1E407F0
:20053C00C0223846494611F008FC04F1E40B4FF6F8730820DE1D401E27F8186BFBD14FF0E9
:20055C00FF30494613F00AFCA06049464FF0FF32C8A02860284617F0D9FCA068DFF82883F5
:20057C0058B1AF684FB1414607270861CC4E0F702846CE6016F038FCA068454629784A46EE
:20059C00CBA317F056FBE06800214FF040424FF0FF3319F0DBFE00280890F4D000200290C6
:2005BC000DF1160102AA03A816F0E6FE002840F0A281BDF80C00102840F0998120789DF8DE
:2005DC001610884240F09381029908884FF6FF72824200F08C810E46307891382AD01F3813
:2005FC0003D0203800F0808181E13379A0682A787E2B04D07F2B0AD10989B3A301E0317A95
:20061C00B5A30091521CD1B2002217F012FB317906F1080019F096FE69E1C046A1800100F6
:20063C004D660100417A01008CC301008C150020D019002070780E3841D0401E26D0401E23
:20065C0000F030812E3840F05281B0780C2840F04E81F778A068297887B9F279012A08D053
:20067C00022A08BFC4A205D0032A0CBFC3A2C5A200E0CAA20092891CC9A301E0491CCDA3C7
:20069C00C9B2002217F0D5FA0C2014E0B08842F23201814240F02B81B278A06829781A2A56
:2006BC001ABF0092C8A3D0A3491C0022C9B217F0C0FA42F23200314610F0C2FF17E1B16863
:2006DC00B788087841F20542BF1A27D0A7F62B47002F40F00C81002840F00981C878009048
:2006FC0008790190A1682878D3A38C46C01DD0E000C046C098C3010051C40100798101001B
:20071C00D96C02102D6D02100D520210397F011020210020BD6A01000E000580B168491CE6
:20073C0091F902A0002840F0E2804A78087800EB022018F05DF9D4F808C095F800E00746BC
:20075C00082F80F2A380BAF17F0F00F08680F90001EB07110BEB0106727C531C88187374A4
:20077C00584480F80CA0727C052092FBF0F343430BEB0100D21A0C3000210523727410F93D
:20079C00012B5B1E0A4411B2F9D1052091FBF0F040B2B074F37C002B5FD110F11F0F4FF0DE
:2007BC00000904DD337D022B18BF002B2ED196F9120010F11E0F07DA10F1290F04DD337DDB
:2007DC00012B18BF002B17D110F1330F04DD10F1280F42DA337D33B910F1320F3DDA042254
:2007FC004FF0020913E004224FF001094FF006080FE0C0460E0000104FF00108424608E019
:20081C0015900100B183010009AB000002224FF00208737D984502D1B07D022801DB984510
:20083C001BD0308811464B4616F06EFA0120F074707D80451CBF0020B075B9F1000F06D0BD
:20085C00B9F1010F14BF4FF002084FF0060886F81580D4F808C095F800E0F800CDF800A0E8
:20087C0000EB0710584490F91200C9A301900EF105000EE053696D706C65205065726970AA
:20089C00686572616C00C046642400200EF10100C7A3C1B20022604617F0CBF927E0C04605
:2008BC00A9D600000820002107F0F0FC1FE0C0463D3D3D3D3D3D3D3D3D3D3D3D3D3D3D3D9C
:2008DC003D3D3D3D00C046C04D54552053697A653A20256400C046C046432056696F6C6144
:2008FC007465643A20256400084601F08DFE029808B119F010F80898C00FFFF444AE2069B1
:20091C0019F01CFD00287FF43EAE2069064619F011FD864208BF002602D0866816F024FB8C
:20093C00002EECD03078401E082800F27D81DFE810F05601ED00C700A3008D00730079019C
:20095C007301090070684788384618F051F8A1682A7808280DDAC10001EB00115944C87D26
:20097C00012840F06181B9493A46102008F0ECFA5AE1571C8EA39BE0324D00C0434F4445DC
:20099C004400C046556E6578706563746564205048592056616C756500C046C0314D00C0AA
:2009BC00504859205570646174656420746F20257300C046504859204368616E67652066A5
:2009DC0061696C75726500C05048592055706461746520537461747573204576656E743A45
:2009FC00203078257800C046504859204368616E6765206661696C7572652C207065657219
:200A1C0020646F6573206E6F7420737570706F7274207468697300C002200DF11B0115F068
:200A3C0029F9002840F00081032001210DF11B020DF042FDF8E0C046525850683A202564E0
:200A5C002C20545850683A20256400C07768787A48B17F4800902978A06800227DA3C91C36
:200A7C00C9B217F0E6F87A480090BA49FA880023102008F069FAD7E072681079A1682F78AB
:200A9C001278DAB1521E10D0521E08D0521E40F0CB8000280EBF73A3009077A307E00028DE
:200ABC0008BF7BA303D07FA305E018B983A3FF1C8846ABE085A3FF1C8846A6E088A3F6E751
:200ADC007768A26828783968491E0CD0491E08D00E3912D179680B780093498884A30191A3
:200AFC0005E08CA300E090A3796809780091001DC1B21046002217F09CF83868B0F1004F8D
:200B1C0000F09280786816F02FFA8DE070680078010923D24009C0F087800E2018F0A8FA14
:200B3C00002840F081806A68A8689168814213D0B0F1FF3F78D0116951F830702FB901EB61
:200B5C00C001486816F050F96EE0116901EBC0014968C0B2884767E0D068F3E70D2018F0C4
:200B7C0087FA002860D16968A8688968814208D0B0F1FF3F09D0401C16F0B0FBB0F1FF3F6E
:200B9C0002D1002016F0AAFBA8600BF0AFFF4BE0525353493A25642064426D2C204156475E
:200BBC0020525353493A25642064426D00C046C0436F6E6E656374696F6E2068616E646CC5
:200BDC0065206973206E6F7420696E2074686520636F6E6E4C6973742021212100C070684A
:200BFC002F78D4F8088000787F1C38B1801E1BD1022007A915F03EF850A304E0002007A9A4
:200C1C0015F038F850A39DF81C000090F9B24046002217F00EF807E07068B0F801000CF08B
:200C3C0075FE05E013F00AFA706808B116F09CF9304616F099F962E6401C0628FFF485AA0B
:200C5C0018F005FF09B0BDE8F08FC0460D2B021040E2010050617373636F64653A20256407
:200C7C0000C046C0426F6E642073617665207375636365737300C046426F6E642073617634
:200C9C0065206661696C65643A20256400C046C0456E6372797074696F6E20737563636547
:200CBC00737300C0456E6372797074696F6E206661696C65643A20256400C046506169724D
:200CDC00696E6720737563636573730050616972696E67206661696C3A20256400C046C072
:200CFC0050616972696E6720737461727465640041647620536574202564206469736162C4
:200D1C006C656420616674657220636F6E6E20256400C0464164762053657420256420445F
:200D3C00697361626C6564004164762053657420256420456E61626C656400C043686172AA
:200D5C0020333A20256400C04368617220313A20256400C05D72010038B586B004468DF84D
:200D7C0005104FF6FF720120ADF80220090ADFF85C5AADF8000002238DF806108DF80430E6
:200D9C0069462A78204619F0D1FA162803D12978204619F0C7FA07B030BD3EB504000D46DB
:200DBC001ED0DFF82C0A0068224619F0B7FAFF2815D000200090002301AA294620460DF036
:200DDC0025FF60B99DF8040000F075F9C00606D59DF8040000F06FF910F0040000D001203C
:200DFC003EBDFEB5164615244FF6FF7290420D4615D100208DF80400DFF8D0799DF8040071
:200E1C00F97988421AD23246294600F03AF800B100249DF80400401C8DF80400EEE719F054
:200E3C0079FA50B100F0A6FB40B99DF804003246294600F026F8002400E014242046FEBDAD
:200E5C007CB50D46044606214C43164600F080F8A8B900F078F890B99DF80700002E14BF87
:200E7C00054320EA0505E9B2814206D08DF807506A460821A0B217F00DF8012076BD00203F
:200E9C0076BD2DE9FC410646344606235C438846154600F05DF8002852D100F054F8002805
:200EBC004ED1DFF82879387A800018F019FB040002D100F02FFA43E0397AE036890622465E
:200EDC00090EB0B216F0BEFF002835D1204600F058F85FEA08000ED13A7A9206120E002129
:200EFC00204617F077FC38BB3A7A92000021204618F018F916E0214600F030F858B928006F
:200F1C0004D02146002000F029F810B900F0E1FB16E0A0F800808178A9420DD085700DB92A
:200F3C0000210180204600F02CF8397A89062246090EB0B216F0AEFF00F0CBFB012000E0EC
:200F5C000020BDE8F6810622FF21684617F042BC20346A460821A0B216F074BF70B5DFF88A
:200F7C006C381D7A002200E0521CD4B2AC4206D231F824608642F7D101EB840070BD002064
:200F9C0070BD10B50021DFF844280AE030F82130DB4320F8213000EB8103491C9C78E443E6
:200FBC009C70137A9942F1DB10BD2DE9FE4FDFF81C480646207A0F4691469B46800018F0EF
:200FDC008FFA5FEA000803D100F0A4F90A206CE00C9D0297B246062717FB0AF7029A07F136
:200FFC002000082100F064F88DF80400304600F09FF8227A9200FF21404618F093F89DF8BE
:20101C0004000090E036217A89064246090EB0B216F040FF009E02990643206A082200EB79
:20103C00CA0018F075F8BDB10299887900232A4600F0010019F06AF900281CBF9DF93C0086
:20105C00002803D0DFF88C170120087007F123002A4600F02CF806435FEA090205D007F15D
:20107C0021001C2100F024F806435FEA0B0205D007F122001C2100F01BF806430D9A62B119
:20109C0007F1240000F013F8054625370EAA0421B8B216F0FFFE05432E43207D08B100F02D
:2010BC009EFA404618F024FAF0B2BDE8FE8F102180B216F0EFBEE0B50623584320306A468D
:2010DC00082180B216F0BEFE10B99DF807000EBD00200EBDDFF8F406007808210CF04ABD47
:2010FC0038B50025DFF8E44619E0206A062313FB05F300EBC5022033082198B216F0A2FEF1
:20111C0058B1206A0622FF2100EBC50018F00AF8206A00EBC5010022CA716D1CEDB2E17904
:20113C008D42E2DB207D10B1BDE8314057E231BDF8B5DFF89816DFF8A036C9791E680C4673
:20115C000A4600E02A46D5B23DB1551ED2B2324412F8017C8742F5D12C46E4B220464D1E02
:20117C0007E01718165C7F7817541A680244401C5670A8421A68F4DBAC4204DABDE8F8409B
:20119C00052016F087BEF1BD70B50024DFF83C5600E0641CE879E3B283420BD22B6AE6B23E
:2011BC000622FF2103EBC60017F014FB0028F0D0E0B270BDDFF82426117839B1DFF81806D1
:2011DC0001680C78204600F013F8204670BD38B500200024DFF8F45503E0E0B200F008F85C
:2011FC00641CEA79E1B2914201D20100F5D032BD2DE9F84F83465D46062313FB05F58EB0CA
:20121C0005F1200701AA0821B8B216F01BFE002873D10622FF2101A817F0DCFA00286CD199
:20123C00DFF8A865307A800018F05AF95FEA000903D100F06FF80A2061E01C22FF2103A838
:20125C0017F070FF327A9200FF21484617F06AFF05F123040AAA1021A0B216F0F3FD60B93D
:20127C001022FF210AA817F0B5FA30B99DF80A0001A900F0010019F045F8082200F042F8DB
:20129C0001AA0821B8B216F005FE8DF8000003AA05F1210000F03AF8074605F1220003AA6E
:2012BC0000F034F8804603AA1021A0B216F0F2FD044605F1240003AA102100F028F88246F1
:2012DC00253503AA0421A8B248EA070716F0E2FD2743317A9DF800504AEA07070743890632
:2012FC000BF1E0034A46090E98B216F0D3FD0743484618F0FDF83D4300E0002528460FB0A5
:20131C00BDE8F08FFF2101A817F00CBF1C2180B216F0C0BD042016F0F3BB2DE9F84187B0A2
:20133C00FF208DF80000DFF8A454E87918F0D8F8040003D1FFF7EEFF0A2030E01022FF219E
:20135C0003A817F0EFFEEA79FF21204617F0EAFE0622FFF7D7FF03AA1021022016F09AFD69
:20137C00064603AA1021032016F094FD06436A460121042016F08EFD0746E9792246052061
:20139C0016F088FD054601AA0621062016F082FD804600F09EF93E432E4348EA060008B0AF
:2013BC00BDE8F081DFF824144088097816F0D2BCF0B5A9B006460D46144618F0ABFF08B9A5
:2013DC001420ACE0A4220021684617F0ABFEADF800600DF12607DFF8F463F078B17B8DF875
:2013FC000400F07B8DF8A000279861F30000B17B27908A074CBF0222002220F00200104300
:20141C002790CA064CBF4FF48072002220F48070104327908A064CBF4FF40072002220F433
:20143C000070104327904A064CBF4FF48062002220F480601043279049074CBF04210021D5
:20145C0020F0040008432790307C02280CBF01200020787418F052FF412807DB307C00B18B
:20147C0008209DF8991008438DF89900B07CB8B10121B974202206F18C010DF1390017F099
:20149C0047FE202206F1AC010DF1590017F040FE202206F1CC010DF1790017F039FE00E0CE
:2014BC00B874707B8DF8050090B1DFF83473102207F110010DF1060017F02AFE9DF8990014
:2014DC00082805D1102239460DF1160017F020FE307B8DF8260030B11022DFF808130DF1A7
:2014FC00270017F015FE307948B1022D18BF032D03D1279840F002002790012100E0002118
:20151C009DF899000143B0788DF8991000B1042001438DF899106846214618F0EBFE29B0C1
:20153C00F0BD2DE9FC41154615244FF6FF72904288460DD10027A54EF179F8B2884216D2E7
:20155C002A464146FFF77CFC00B100247F1CF3E718F0E0FE50B100F00DF840B99DF8040052
:20157C002A464146FFF76CFC002400E014242046BDE8F681002100910023417901AA01F011
:20159C000101801D0DF042BB70B504460D4606204543082B88B0164603D1300758BF2235E6
:2015BC0000D521351C220021FFF7ADFE01AA1C21A8B216F047FC80B99DF81E00C01F0A285C
:2015DC000BD29DF830000090F20801AB02F0010206F00101204618F089FE08B070BD38B563
:2015FC0018F080FE0024794D0FE0286A0622FF2100EBC40017F0EEF828B9286A00EBC401D7
:20161C00002018F06BFE641CE4B2E8798442ECDB31BD3EB50C46002501460095002301AA17
:20163C0020460DF0F3FA38B99DF80400FFF743FDC00601D401203EBD00203EBD2DE9F04165
:20165C00694F3C6806468846154603E02089B04224D02468002CF9D10C2017F041FF040032
:20167C0019D0268184F80A8000202060E07245B10821284617F0E6F9606018B900F029F8B1
:20169C000AE06060396811B93C6004E0014608680028FBD10C600CB9152018E018F01AFE70
:2016BC0008B1002013E00120E0722A4641463046FFF77EFE04464548C06900281CBF436842
:2016DC00002B03D000220021304698472046BDE8F081204617F00CBF38B505464248046876
:2016FC0003E02089A84204D02468002CF9D1012032BDE07A012807D100F05CF820B1334807
:20171C00007804210CF036FAE17A491CE1722846C9B200F002F8002032BD38B5022904468D
:20173C002A4D02D003290DD01EE042F6C921FFF713FB02001CBFE869002818D04368B3B1CA
:20175C0005210CE042F6A621FFF706FB01001CBFE96900290BD04B684BB1024604212046B1
:20177C0001B0BDE830401847BDE8324000E031BD10B51D4A1468002101E0214624686CB189
:20179C0023898342F9D1206800290CBF10600860606808B117F0ACFEFFF79BFF002010BDEF
:2017BC00024604201049096819B10B899342FAD1C87A70470C48006828B1006818B1C17ADF
:2017DC000029FAD17047002070470000001C0020680F00202C3A0020C03900202B3A002074
:2017FC004437002074370020C43900202DE9F04385B0064600208946009090461C46B1799F
:20181C00002304AA30460DF001FA20B1FFF7BCFC8DF810001BE0D4B19DF810300620434358
:20183C0023336A46102198B216F00CFB78B91022FF21684616F0CEFF48B9B079314600F069
:20185C00010018F05FFD10B1194901200870194F9DF81000F979884227D2012003900094C1
:20187C0043460C980D990E9D019002914A469DF810003146FFF799FB044655B1397A9DF8DC
:20189C0010008906E0302A46090E80B216F002FB0443200005D09DF81000FFF7A9FCFFF74F
:2018BC001FFC204605B0BDE8F0831520FAE700BF2C3A0020001C00202DE9F84F012015F0A4
:2018DC0023FC012816D1DFF898663078002118F0FDFC040004BF002016F012F90020207274
:2018FC00201D0EF03DF905F049F8050003D1812018F0E8FC30E301206871DFF86826DFF876
:20191C0068064178491C4170A879A0724020317811700CF0ABFF2860616D4A78206DD1068F
:20193C0020D5816C0A681179032908D0816C0868007903280CBF0120002016F0E1F8206D30
:20195C00816C0A6890F86C0002F1080701281CBF002016F0D5F8216D486F296800F5B06044
:20197C00C8604AE0C16E0A681179032908D0C16E0868007903280CBF0120002016F0C0F8BD
:20199C00206DC16E0A6890F8980002F1080701281CBF002016F0B4F8226DB5F87401D2F88A
:2019BC00A0102A68DFF8C435DFF8C465D16097F82690B9F1030F1BD8DFE809F002050E11EE
:2019DC0001F5B06101E001F53471D16005F59A711888088718880EE001F5355101E001F621
:2019FC00B871D16005F59A7130880887308802E001F5B061D160A5F8740106222868DFF8B2
:201A1C007465C168DFF8708501F59071C160B91C3878C0F3801085F82E0105F5947017F04B
:201A3C0077FB042207F10E0105F1240017F070FB306895F8069000F10C03042207F10E0177
:201A5C0003EB491017F064FB3068AB7900EB4313032207F1120103F1100017F059FB05F13B
:201A7C002C09787D89F80200022207F1160105F1300017F04DFB022207F1180105F1320098
:201A9C0017F046FB022207F11A0105F1340017F03FFBB9F808006884022207F11C0105F16C
:201ABC00360017F035FB99F80200B9F80A10400089F802000901B9F80400A9F80A104000C2
:201ADC00A9F8040089B2B9F806004000A9F8060003046A8C521CDB0B5A438A4201D280B2AD
:201AFC0030B998F8000080210CF044F83B2133E105F12E01284618F0E1FB0520A8814FF004
:201B1C001C0A284618F0D6FB052207F11E0105F1610017F0FDFA97F82300400989F800002D
:201B3C0018F0C4FB688205F59A72618D401AD08005F1610197F82300DFF8407400F01F0096
:201B5C0089F80F00284618F0ADFB616D4A78206DD1064CBF816CC16E41F6210208680021B5
:201B7C000171A97938681AFB01F142520021AB791AFB03F303445980AA791AFB02F210448A
:201B9C004160616DDFF8F8034A78D1060DD5DFF8F4138A7851060AD5DFF8EC23138841F2A3
:201BBC000A418B4208BFDFF8E403C5F89C01D5F89C11284688473A68A97902F10E031AFB7E
:201BDC0001F15854AA7938681AFB02F202440020D0733968A87901F10E021AFB00F0115CA0
:201BFC0089F80D10606D4178CA061DD595F8960108B915F085FFA97938681AFB01F1014467
:201C1C0095F89601421E0A74A87939681AFB00F00844002141743A68A97902F112001AFBDF
:201C3C0001F1002242522BE0A97938681AFB01F10144206D90F840200A74A87939681AFBFD
:201C5C0000F00844216D91F841204274206D3968AB79403001F112021AFB03F34188D1523F
:201C7C0005F5CB710078012200F0030082400A70226D92F84000800814BF012002200871D8
:201C9C003968A879DFF808B301F1140231681AFB00F301EB4010D050A87939681AFB00F008
:201CBC000844BC498161DBF814000078C107DBF8141009784CBF1F200F208A07DBF8141035
:201CDC00097848BF40F020004A07DBF81410097848BF40F040000A073168AA7901EB4213C2
:201CFC0048BF40F080001872A979306800EB41120B2050723168AA7901EB42100421A64A93
:201D1C0081721078012806D13168A87901EB40120121D17207E0DBF824003168AA7940787D
:201D3C0001EB4213D8723168A87901EB40121F2111763068AA7900EB421100204876A87945
:201D5C000CF0D8FCAA79316852018850AA7931685201885820B90721284616F00FF8FBE06A
:201D7C008E48AA79016801EB021018F097FAA87931688A4B01EB4012196801EB0010506054
:201D9C00A979306800EB41125168C9F83C10AA7952018158C9F84410042198F800000BF055
:201DBC00E9FE616D4A783868D10648BF02210AD4A9791AFB01F101440A7C02F00302022AFA
:201DDC0014BF04210621B9F8042095F806C04FF4C8738A18698AAA615143B1FBF3F35B1CE5
:201DFC006B611AFB0CFCD5F800E06044DEF80CC040F6C41101FB02C2D21AA2F5A8628260B1
:201E1C00AA7938681AFB02F283189A682B689A6000F10C03AA791AFB02F20C309B5C03F05E
:201E3C00EF038354A8793A681AFB00F002F10C030C321B5C03F07F031354A8793A681AFB8A
:201E5C0000F002F10C030C321B5C03F0F00343F002031354AB7938681AFB03F31844427B52
:201E7C0002F0F00242F001024273AA7938681AFB02F2024490682B6818613068AB7999F815
:201E9C0002C000F11402686940005B0111FB0C0000F5F660D05095F8960104280DD13068A7
:201EBC00AA7900F114034FEA421C143053F80C20AB795B0102F56162C2503068AA7900F191
:201EDC0014034FEA421C53F80C20C5F83421AA7900EB4210C37C03F0F00343F00403C374B9
:201EFC00DBF830003268AB79006802EB431CB9F8062042436423B2FBF3F35943A1F59661B2
:201F1C00CCF81C103068A97900EB4110C27E02F0F00242F00402C276A97938682A681AFBC2
:201F3C0001FA00EB0A01516028460E2118F0B2F91B4907200870204614F0F2FB19488178DF
:201F5C00880704D5AA790021204618F09FF928681549164A41618261BDE8F14F03F0AEB8A2
:201F7C00D50F0020D70F0020780E00208E0F0020900F00209C0E0020C70F0020980E002093
:201F9C0081010210C00C00209A0F00204DE50110F0C40100980C0020CC0F0020A40E002053
:201FBC00C80F0020200E002035C50000020480802DE9F84F054688B0A978DFF84466002717
:201FDC0010294FF0060A3CD8DFE811F0110015031503150315033C00CF001503150378025B
:201FFC0015010001CA0215034E0290020D036878002826D118F046F9044618F03FF90546BD
:20201C0018F038F98DF8000022461021022015F041FF2A461021032015F03CFF6A46012110
:20203C00042015F037FF9DF80000012818BF032807D1012018F01AF902460621062015F0B7
:20205C0029FFD8E268780028FBD195F80CB06C8900900023E97801AA01F00101281D0CF07D
:20207C00D5FD00284FF0010875D19DF80400FFF722F88146BBF1080F307A08BFB84680009A
:20209C0017F02EFA050003D1042015F039FDB2E270789DF8041002280CBF012000200090D2
:2020BC005B464A462046FFF76FFA1422002102A817F038F89DF804001AFB00F0243002AA38
:2020DC00102180B215F0BEFEB0B91022FF2102A816F080FB80B99DF804001AFB00FA0AF1FE
:2020FC00250306AA042198B215F0ACFE02AA09F00101204618F0B6F8317A9DF80400890638
:20211C00E0302A46090E80B215F09CFE98B92846FEF737FFBA4609E005EB8000018819B1A5
:20213C008278204616F098F90AF1010A317A5FFA8AF08842F0D3B07A30B95FEA897003D54E
:20215C003178204615F006FE9DF80400FEF7F0FF284617F0CDF97078022805D1B8F1000FF3
:20217C0002D0204611F03CFD45E2A888FFF700FB18F074F80028F7D1707D012808D1FFF740
:20219C0026F8F279706A7775002116F0CBFF17E0B07D012803D1FFF7C0F8B77510E00024D4
:2021BC000AE0706AE5B2415D012904D1E0B2FFF71FF8716A4F55641CE0B2F1798842F0D3E4
:2021DC00502016F049FAFEF78BFF14E218F082F800280CD0F06900281CBF0468002C07D064
:2021FC00286900906B7B2A7B6989E81CA04701E268890121F4E168780024002840F01D8175
:20221C00A879C10740F119810822002105A816F089FFA88818F07EF8040076D06F694FB396
:20223C000622002107F1110016F0D4FA68B306220021384616F0CEFAD0B9387C00F0010876
:20225C004FF0000909F1010987F811900020009000230022414607F111000CF0D7FC00287A
:20227C005FFA89F002D10028ECD101E000280CD1002068610622607900F001008DF81A0058
:20229C00A11D05A816F044FF1FE06F69EFB1387C00F001008DF81A00062207F1110105A8D4
:2022BC0016F036FF6079012805D10622A11D04F10C0016F02DFF062207F11101A01D16F0E1
:2022DC0027FF387C40F002006071A879410720794CBF40F0020000F0FD002071A9790A0715
:2022FC0054BF00F0DF0040F020002071A9799DF81B00890801F0010108438DF81B00A9799C
:20231C000A074CBF0821002108E0FFF753FA0028ECD0307804210BF02DFCE7E708438DF89D
:20233C001B000020009000239DF81A1004AA05A80CF06CFC20B1FEF727FF8DF810001AE09A
:20235C006869C0B19DF810001AFB00FA0AF123036A46102198B215F075FD60B91022FF213D
:20237C00684616F037FA30B99DF81A0005A900F0010017F0C7FF9DF81000F179884258D255
:20239C00E968686900290CBF00220A69002303930292019100902B69AA689DF8100005A90E
:2023BC00FEF703FE0446AF88B06A4FF6FF7848B906F1180100910223924A4146012017F062
:2023DC0049FFB062B16A19B3FF200390022200230292019307A800900DF11203328B3846F2
:2023FC0005F084FA68B99DF812009DF8131000EB012290B228B1B06A418992B23846FEF70A
:20241C00F0FC328BB06A0023414617F01FFFB062200005D09DF81000FEF7EAFEFEF760FE32
:20243C00200007D1707A0028A88804D1FFF754F903E01524A888FFF79BF9F06900281CBFFC
:20245C004368002B0FD06A78A888012198476878002808D1A879C10705D5F369A888224600
:20247C005C680321A047BEE0687806281BD1A88817F050FFB8B1F17C012904D013D303296D
:20249C0007D00CD30FE04179A8880022FFF7D6F809E00022002140F2094003F087FDA8885D
:2024BC00052117F0CFFEF06900281CBF4368002B03D06A78A888022198479BE000970023B8
:2024DC00E97801AA01F00101281D0CF09FFB0028F3D19DF804001AFB00FA0AF1250305F159
:2024FC000C02042198B215F0D5FC83E0F06900281CBF4368002B03D0A888002200219847B3
:20251C00707810B9A88805216AE0A88817F002FF040070D0A87AC10712D50097002361796D
:20253C00002201F00101A01D0CF070FB00281EBF60790028012803D0E868C0F3402028B108
:20255C00307C022807D1A87A010704D4A888032117F074FE4FE06179A88805F1080227E0A2
:20257C002F7BAD88284617F0D5FE040042D017F0B1FE00283ED100900023617901AA01F0EC
:20259C000101A01D0CF042FB28BB9DF80400FEF792FD07F00C07042F11D0082F0BD00C2FBC
:2025BC000FD100F0090109290BD0617900222846FFF744F81EE010F0090F02D1F5E7C107EF
:2025DC00F3D501220092A37C9DF8041002462846FEF7DAFF0EE070780028E6D105212846CD
:2025FC0017F02CFE06E0FFF7E5F818B1307804210BF0C0FA0127384609B0BDE8F08F00BF48
:20261C00001C00201CBF01002DE9F04FCC4AC84C064690461078A168B278ADF1240D401CFF
:20263C00002A00F08F81C54D521FB6A30FF2F02900F0C080521E4ED0521E1ED00A3A40F0CE
:20265C004182B088B77BADF8080070898DF8127060B9ADF80E00B089ADF81000F188ADF8AC
:20267C000A103789ADF80C70012000E00020B1498DF8130002AA0D4620E1AF49B28810202E
:20269C0002AB06F061FC98F80070A568F078BF1C30B90DF10A0012F0BFFA8BA3009007E07D
:2026BC000DF10A0012F0B8FAB17800918CA30190F9B22846002215F0BCFA04F1300015F0A8
:2026DC0036FE041C00F0068220890BF01FF9204614F04AFCFEE1294610201A4606F034FCA2
:2026FC005FFA80FA98F80010A068002286A3491CC9B215F09EFACDF800A098F80010A0686E
:20271C0000224B46891CC9B215F093FAB088814616F06EF908282CD0C50005EB00152D1990
:20273C00E435A868071C0ED016F002FF10B1384617F08BF9384617F07DFD384614F014FCF1
:20275C00686814F011FC04F1300007684D4657B106463889854203D13046394615F036FC79
:20277C003F68002FF5D1284614F052F8284610F049FBBAF1000F08D104F14C0017F065F9FA
:20279C00CE480221012215F0C1FB00250095CC4EA27810202B46314606F0D6FB0095E27844
:2027BC0010202B46314606F0CFFB98F80000A168C01C89E1294610201A4606F0C5FB5FFA38
:2027DC0080FBCDF800B098F80010A06800224B46891CC9B215F02DFA7078002851D1B6F866
:2027FC000AA004F1E409082000254FF6FF72A9F1180737F8181F8A4204D0401E05F1010515
:20281C00F7D127E0A7F800A0032017F0C4F87860D0B1082101707868A0F801A0242017F051
:20283C00BAF8B86018B9786814F09EFB0CE0E80000EB0510484441680091B349806841F2B3
:20285C007072012312F038FEE800012100EB05104844017598F80050A768301D12F0DCF9FF
:20287C006D1C009000229DA3E9B2384615F0E1F992480121022215F049FB04F14C0017F018
:20289C00E2F8BBF1080F12DA607880B9002600968B4DA27810203346294606F055FB3346FD
:2028BC000093E2781020294606F04EFB12E1974DE2781020294606F047FBA2782946102070
:2028DC0006F042FB06E1C0464C696E6B20506172616D20557064617465643A20257300C084
:2028FC004C696E6B20506172616D20557064617465204661696C656420307825783A202551
:20291C007300C04600C046C044657669636520446973636F6E6E65637465642100C046C032
:20293C004E756D20436F6E6E733A20256400C046BC160020D9570110F9DC0110A55F010023
:20295C00642400207778002F40F0C480F7798DF80970337A8DF80A30B2798DF8082000254A
:20297C008DF80C508DF80B50F77A8DF80F70B37A8DF80E3002AA777A654B8DF80D70176847
:20299C0052681F60C7B2084639465A6057A32A4615F04FF9A01CDFF880A1614F5D49009091
:2029BC005246102007F1580306F0CEFAC0B208B116F0C4FA4FF00B0907F11400CDF800907F
:2029DC0056490190A2782B46102006F0BDFAC0B208B116F0B3FA182007F13F0300904F49CB
:2029FC000193A2781020012306F0AEFAC0B208B116F0A4FAA2784B491020922306F0A4FA25
:202A1C000095DFF8BCB0A27810202B46594606F09BFAC0B208B116F091FAE01C3D4900900F
:202A3C00524607F17403102006F08EFAC0B208B116F084FACDF800901F3701973749E278F9
:202A5C0010202B4606F080FAC0B208B116F076FAE27834491020922306F076FAA946CDF8D2
:202A7C000090E278102059462B4606F06DFAC0B208B116F063FA98F80070A568B01D12F049
:202A9C00CBF8BF1D1FA100914A461BA30190F9B2284615F0CEF811F0D1FA234840F6B83210
:202ABC0001231949009004F1700012F005FD1F4802214A4615F02AFA0CE0C046D033002023
:202ADC00ED740110421CD5B2C2B2084611462A4616F0CEFD09B0BDE8F08FC046436F6E6EB8
:202AFC00656374656420746F20257300496E697469616C697A656400257320416464723A17
:202B1C0020257300494400C0F571010065020210F7140020990101100F800100DDCD0000A4
:202B3C00441E00201DEF011048260020D03300202DE9FE4F04460020009000250CB914F0DE
:202B5C00DFFF04F1500841F62300D8F8007038807D8002223A737A73694620460BF002FA15
:202B7C0008B9072051E2009901B1B860B8682061DFF89C04017884F8B810D8F80400407A58
:202B9C0012F0ACFF25302076207EB873FD73D8F80400017D022904BF002014F0B1FFD8F864
:202BBC000400007D012802D10020002104E083280CBF0620022020213874797404F12406A0
:202BDC00DFF850A4DAF83C0041690868717901EB41010844B0F801207A82D8F80400417830
:202BFC0048060AD5607DC10604D5E07F40F04000E07702E040F04000607507F15C0904F170
:202C1C00300089F80050B17E890001F0040189F80010B866607DC10656D5D8F804205178AE
:202C3C008A060CD500F0FE006075D8F80400417811F0030F03D1E07F00F0FE00E077607D4F
:202C5C0017F0F4FAA075421C387CC0F38001002392B200F0030017F0E5FAA0831E20A28B3A
:202C7C0002F59B7393FBF0F01E2101FB1030C0B208B1C0F11E00821802F59B7262831E208F
:202C9C00A28B02F5967293B293FBF0F001FB1030A283C0B208B1C0F11E008018A08380B2F1
:202CBC00E27D618B521E50434018608307F13005608BB43080003866062089F80300E17F4B
:202CDC0041F00801E17720E040F001006075D8F804104A78510744BF40F002006075607D5B
:202CFC0017F0A4FAA0750023401C82B2387CC0F3800100F0030017F095FAA083A08B00F597
:202D1C009670A0833D6689F80350A17D207D61F3050007F18801207508700322607D48709B
:202D3C008A70B07E800000F0040040F003008870F27ED20002F00802104388700020C870CF
:202D5C00C7F89000B08BC0F30B00B083D8F80410CA7D40EA0230B0830022617D01F0FE0132
:202D7C0020460AF0B9FB019700271EE01C2010FB07F004EB000B01991C220BF1640016F0F0
:202D9C00C7F90BF16C00052101717F1CA28B92000260FFB2DAF83C104A691168737903EBC6
:202DBC0043031944B1F801204281E07D401E8742DCDB019F20460EF07DFBE07D012809D0B1
:202DDC0013D3032808D03EBF04F164007860C8F818500AE07D6008E004F16400786004F1C3
:202DFC008001C8F81810C8F8345041F6240038860021798607F13C05B868618B00EB810020
:202E1C00B8630221822028706970002194F82100E97000F03F00A870D8F80400807D0128DD
:202E3C0018BF022803D100F07F00401E04E083280CBF062002202021287169714FF0000B34
:202E5C00DAF83C0041690868727902EB42021044B0F80110E980C7F86CB0D8F80400417834
:202E7C0011F0030F20D017F0D9F9F866DAF818000078C107DAF8181009784CBF1F200F20DE
:202E9C008A07DAF81810097848BF40F020004A07DAF81810097848BF40F040000A0748BF58
:202EBC0040F0800089F8140089F815B0D8F80410594A897C01F0030189F81510B07E800096
:202EDC0000F00400014389F81510F07EC00000F00800014341F0100189F81510107838B135
:202EFC0099F8140000F0FE0041F0400189F8140089F81510E07F17F099F984F8200020467C
:202F1C0017F088F9E07FC10636D5D8F8040094F820204178521C88074EBFD21EF07F1218F0
:202F3C002879C0F380010023D2B200F0030017F079F930801E22308800F59670C0F11E011A
:202F5C0090FBF2F21E2000FB02113171D8F804104878810731884CBF00204FF49B70401842
:202F7C0030807080B86B318832795218A63200EB82007867022002E0C7F874B0002089F8F8
:202F9C00170004F13000C7F8800007F18400D8F804104A78510707D504F13802026099F822
:202FBC00150040F0200007E01C490A685168016099F8150000F0DF0089F81500A17F94F801
:202FDC00200060F30501A17740F60B002882A5F812B0DAF83800008880007865DAF8380001
:202FFC00008800B1072028770220687794F84510E983D8F804004178880744BF0121E983BB
:20301C00009808B10AF038F80020BDE8FE8F00BF223A0020F0C40100880E00206C0F002086
:20303C002DE9FC47D44C0F460646F80B80F00C826078B90F80F0AC81B90880F09F81DFF8F4
:20305C004C83F90A80F00281390B80F0CC80380907D2F80FC0F02E8227F080470FF09CFE97
:20307C0028E216F090FC814615F0B6FA002800F0B480082016F07AFB002840F0AE80802007
:20309C0016F074FB002840F0A88068460DF0B0F9012803D10098002800F09F8094F8410230
:2030BC00002840F09A8000250126E8B216F026F848B1837A3BB1867290F9090006FA00F01C
:2030DC00C0B214F055F86D1C032DEED3032084F8240004F5CE7016F050FC484617F096F828
:2030FC00C34800252A460168056050F8081CD44940F8085C04F1600015F07EF94046006862
:20311C00006B8047A168401A010BE06AC1F1FF3282422CBF08444FF0FF30E06294F830005E
:20313C0020B12069E16AB1EBC02F25D915F064FA294600B13146081C1BD0C24840F60901F2
:20315C0001804580417B06F00F0221F00F010A434273017B05F00F0321F00F0143EA010253
:20317C0002732946416016F0A3F9418811F4406FFBD084F83060E56212F0EAF9D148294604
:20319C000560022014F0C6FF022014F031FA11200BF032F9207818B96068503016F03DFC2B
:2031BC00C948007810B90E200BF026F994F8310020B184F83150052014F01AFAC348A06284
:2031DC0084F82450B4F9B400B4F9B610884214BF022007200EF0B0F902E0484617F016F8FD
:2031FC0027F008073AE720B1042014F001FA00206070656813F06CFD38B128462D6A6FF4FE
:20321C00807100224FF00073A847E06858B140460068006B8047E2686168801AC860000B8D
:20323C00C8600026E660AA4904F16000002215F0E3F80221D4F8A00084F8241018B104F197
:20325C00E00016F0FCFB27F4006707E716F09BFB064615F0C1F9D4F898100028894600F003
:20327C008480002900F081809A49042504F16000002284F8245015F0BFF8304616F0C6FFA4
:20329C0004F5CE7016F079FB40460068006B8047E0604FF0010884F80180284614F0C0F991
:2032BC00D9F810006060D9F81000816AC90803D3436A294600229847404610F061FC606816
:2032DC0080F8198060680BF02FFB6568D5F808A040F60A02D01F564600F1010C00E01E4683
:2032FC00736833B119888A4203D0884218BF8C45F5D100217160727B08F00F0322F00F026F
:20331C0013437373D9F80C201288904224D06046904221D02B8F03B3E96305F138025180D2
:20333C0095F8440001F00F0320F00F00034385F8443095F8450008F00F0320F00F00034306
:20335C0085F845307260707B01F00F0520F00F0045EA0001717300E0E160504616F0A8F80D
:20337C005146404614F0D6FE02E0304616F04EFF27F480679EE0C046E00F002006F026FFE1
:20339C00D4F8A00008B927F0020793E08C010010514A116841F08001116020B1042014F084
:2033BC0027F90020607016F0EEFA80464B480068016804208847216A81421BD1357ECDB16B
:2033DC00A568BDB1D4F8A8506DB1E968098840F60300884204D0E9680988401C884202D1E0
:2033FC0006F1140001E006F1100012F06DFE06E01410044040F6C41131617161206240468C
:20341C0016F004FF13F064FC80B1356A30466FF4807100224FF00073A847D4F8980000283B
:20343C0008BF47F0020701D00FF0B6FCF569002130464FF080630A46A84727F0005739E00A
:20345C00FD3F0100F038002016F09DFAD4F8B06066B306F1280106C90A234FF0E0450B406E
:20347C00154008BF002B21D106F1280191E8000306F1280595E8060006F1280322EA09027B
:20349C0021EA080183E8060016F0C0FEB16879B1B9F1000F08BFB8F1000F09D03069B6F92B
:2034BC003010B5684B464246A84701E016F0AEFE27F4804727B104F1E000394616F0BFFA2B
:2034DC00BDE8FC870000046076C30100EDCC00002DC10000D5850100CC210840E0010010E2
:2034FC002DE9F84FDFF85854A9780024FF2904BF002014F005FBA87815F0B0FD054605F169
:20351C00680605F5C9773168086805F1900808B1EC8311E0B07B002804BFB07E00280BD1EF
:20353C0098F80010002904BF3878002804D1287F012804BF688CE8832989E88B4118491C61
:20355C006981284616F05EFE01281EBFDFF8F4030178012903D12989EC83491C69814FF695
:20357C00FF79B07E01280DD1B28B6989288916F045FE38B1298968894A1C93B298422FD049
:20359C00B08B23E098F8000001280FD1B8F802206989288916F032FE40B1298968894A1C93
:2035BC0093B298421CD0B8F802000FE03878012816D17A886989288916F020FE80B12989D7
:2035DC0068894A1C93B298420AD0788892B2904206D04844688180B216F00CFE4844E883E5
:2035FC00387801280FD128897988401C80B2884209DB7C793C71022038702346A9792246A9
:20361C0000200AF0EBF905F59A71087920B128890021401CE9836881B07E012813D12989C9
:20363C00B08B4B1C9BB298420DD1688116F0E2FD804605F12E008188308C01FB08082846D0
:20365C000EF080FA03E005F12E01B1F80480EA8BDFF8F492501C00FB08F040F6C41808FB5B
:20367C0000F100912B68D3F80CE07144D960B74B196809788909032940F0168199F80F301B
:20369C00B349DB0740F10081B5F812C000230CFB00FC4FF4C87EBCFBFEFC0CF1010C0B800A
:2036BC00A861C5F814C085F820204FF01C0BDFF8A4A2AB79DAF8000000F108021BFB03F317
:2036DC00D1582A68116100F10801AB79D26868691BFB03F3121ACA50DAF80000AB7900F13F
:2036FC0008021BFB03F3D1582A68916000F10C02A9791BFB01F10C30535C03F0F00343F0BF
:20371C0002034354DAF80010AB798A1C1BFB03F30021D152387908B914F0F2F9DAF80000C2
:20373C00AA7900F1100138791BFB02F240088854A879DAF800101BFB00F00844002141743E
:20375C003879042814D1A879DAF800101BFB00F001F110021031135C3A7A43EA82030B5409
:20377C00AA79DAF800001BFB02F2024420205074DAF80010A87901F112021BFB00F00021B4
:20379C0011527549A8790A6802F114034FEA401C143253F80C00AB79D5F814C05B0100EB11
:2037BC004C00D050B07E02280DD10A68AE7902F11403760114329859AB7995F82E605B015F
:2037DC0018FB0600D05005F12E0299F80F00C30773D5DAF80000AE7900F108041BFB06F6B4
:2037FC000830A359AC791BFB04F4A3F5A8630351DAF80000AE7900F108041BFB06F6A3594B
:20381C002C68A36000981B1A23610868AE7900F1140476011430A359AC79640103F5F66372
:20383C000351387904280BD10868AE7900F1140476011430A359AC79640103F5616303516E
:20385C000868AC7900F1140364011859C5F83401424B186B0C68AE799288006804EB46176E
:20387C0042436424B2FBF4F408FB04F0A0F59660F8613B480278012A48D10868A97900EBF1
:20389C0041120120D07248E00B885B1C1FFA83FCBCF1010F11BFB5F812C005F59A7EBEF8B8
:2038BC0006C00CF2DC5CF2E6698A41434FF4C873B1FBF3FC0CF1010CF2E6042C0BD108682A
:2038DC00AE7900F1140476011430A359AC79640103F56163035138790B68AE7904280CBF09
:2038FC004FF4AA504FF4E66003F114047601A359181A938808FB03F3A3F516739842A7D3AC
:20391C000821284614F03AFA012016E0586A0968AA79407801EB4213D872A879DAF8001009
:20393C002A681BFB00FB01EB0B00506007210D48017028460EF088FE0020BDE8F28F00BF3C
:20395C00780E0020D10F0020980C00203C0F0020143A0020980E00209C0E0020F0C40100C3
:20397C00CC0F0020C80F00202DE9FE4F0546DFF82404DFF824640278002A4CD0052A73D0FB
:20399C00062A00F08080072A18BF082A00F0F7800A2A00F0D381112A02D0132A70D0F1E176
:2039BC00DFF8F8331878002116F090FC04001EBF606D407810F00C0F2DD0216DC0064CBFC9
:2039DC00886CC86E0622016801F10805A91C684615F09EFB287800F00F0105291BD14509F8
:2039FC006946C0F3801016F001FC002813D03168684616F0F7FB0746316804F1380016F053
:203A1C00F1FB87420DD0606D4178C80604D440F2014016F0E3FBBBE1607B40F002006073F9
:203A3C00B6E133681E2010FB07F6981906226946C01D15F06DFB606D4178C806F0D5A17BEB
:203A5C000129EDD1DFF858038178480605D5E90703D4206D41F20A4102E0206D41F2044156
:203A7C0041804183418693E115F0C1FF0028FAD10EF0B2FD012802D0012016F0ABFB87E1D5
:203A9C000DF0E3FF84E1DFF81C53286816F09EFB0400F7D020790328F4D1207A00F00F0163
:203ABC00072937D1C04800684169497A4A1E11425ED0617A04F10A035A5C02F03F02252AD7
:203ADC0056DBA17A8A09012A52D111F03F0F4FD0007C15F0C3FAE17ACA074CBF04F11102B2
:203AFC0004F10B028B0748BF921D0B0748BF921CC90648BFD21C1621127852094A43AB4938
:203B1C008B180A31EB608A5A428699898186DA89C2862DE000F00F00082829D1A17A8809FE
:203B3C0026D129B3A0480168087C15F097FAE17A074688071CD5062201F0010151436018DC
:203B5C0000F10C01684615F0E3FA207AC009FF280ED0694616F04AFB50B1306800F10D01C1
:203B7C00684616F02FFB18B90521384614F006F92079032802D0002013F0C2FFFEE0DFF8A4
:203B9C0030B29BF802000024FF281BD015F066FA804608F16C09D9F8040016F017FB2A4666
:203BBC000179032901D011000CD08368197801F003008D06009003D50124009818B9BAE0F2
:203BDC001000FAD0E4E05D7803F1020A34B31AF8010B784B01902C2098F806C01F6810FBC9
:203BFC000CFC67444FF0010E87F805E0002A1F6898F806E007F11A0C019F10FB0EFE07F051
:203C1C001F070CF80E7098F806701B6810FB07F01844019BC3F38113C3761AD1009803282C
:203C3C0008F217171AD0ADB199F8000068B108F1F4000278012A0DD1564B1A78072A04D0A6
:203C5C00082A04BFC078012804D13D217970012038709DE0584A1378012BFAD098F8940049
:203C7C0070B32D1FEDB253462A4640460DF02EFE00281EBF51490878002807D13D217970FC
:203C9C0001203870306816F099FA81E04C4801688847064698F80610DBF804204FF4D07075
:203CBC0041435018002280F8412108F59E700168807949080EF02EF942490A6830469047D3
:203CDC000098032819D04048416909788A0708D541690878C1074CBFE81C28461AF800007A
:203CFC0000E0812089F808002A460098C3B29BF80200514605F04AFE1DE09AF800001CB15C
:203D1C001B2804BF022D01251C2803D22F490B5C9D4205D0B8700721404616F0BBFA0AE005
:203D3C001C48017808295146404602D115F027FE01E000F075FAD9F8040020E0244C207822
:203D5C0030B3244D286816F041FA08B3017903291ED1017A8A0611D5807AE178C0F3811248
:203D7C00914202BF217900F01F00814206D1A078002801BF607800280121A170286816F087
:203D9C0019FA05E0002013F0BBFE862016F09AFABDE8F78FC80F0020680F0020D50F002036
:203DBC00C00C0020BC0A0020540F0020E0070020780E00209C390020D20F0020273A00206E
:203DDC00AC1D0020B01D0020F0C4010088C5010038390020AC0C00202DE9F04F0F4638059E
:203DFC0089B018D5DFF8E4532888FF280ED0C0B215F034F9040009D0A079162116F0D6F918
:203E1C00204615F021F9204616F0CCF9FF20288087F40060D6E1F80504D50EF078FE87F4B2
:203E3C008070CFE1B80604D511F0ADFD87F02000C8E1F8070CD515F023FB30B1002181605E
:203E5C00DFF88C03006800B1804787F00100B9E1380704D512F007FE87F00800B2E1F806BF
:203E7C000FD50021002200230691059204910393029101920091022016F090F987F0100094
:203E9C00A0E1B8070FD500210023069105910491039302910191009101223C2016F07EF994
:203EBC0087F002008EE179074FF01E08C94EDFF828A340F1CD80C94800220021089207915C
:203EDC00007816F003FA0446C5488178FF2904BF002013F015FEA07A15F0C0F805469AF826
:203EFC00000095F82E91002805F5947B69D0606D807A022818BF032807D130680D3016F04A
:203F1C0049F910B93068C11D07915946484616F06DF9A0B3606D807C3368002818BF0128F4
:203F3C0004D11946584616F05DF904E05A464946184616F0F3F9FF2843D018FB00F83068F7
:203F5C00404406225946C01D15F0E2F8306810F80810404400F1010BC01D41F00209089054
:203F7C000622616DC87A00F0010085F82E01606D00F10C0105F5947015F0CAF821E0594620
:203F9C00484616F003F9E0B130685A46494616F0C5F9FF2815D018FB00F8306840440D30E9
:203FBC0016F0F8F858B9306840440D3016F0F2F8002801BF30684044417F012901D149F09C
:203FDC00020905F12C004B46017806914289120905920122698C0491C08808990291400809
:203FFC000390CDF800B0079801900020A97916F0D5F8D5F89C017B498842A8790CBF002153
:20401C00012116F0BFF87848AB7902682C214B43134401221A73AB7904684B4323445A7323
:20403C00AB7904684B4323449A73AB7904684B432344DA73AB79006811FB03F1014400200F
:20405C0008740720A9790CF0B6FA87F00400B9E038060FD500210023069105910491039301
:20407C0002910191009101223B2016F097F887F08000A7E0F8045DD55C4930680C680D30C1
:20409C0016F088F8002844D13068C11D0D3016F075F83EE0606D4178480704F13E0526D5F5
:2040BC00287802281EBF03286878012830D16978306804F1380216F031F98146B9F1FF0FB1
:2040DC0015D0306818FB09F948440D3016F062F868B930684844C11D0D3016F04FF83068C4
:2040FC004844C11D062204F1380015F011F82878022818BF03280BD130680D3016F04AF812
:20411C0030B93068C11D062204F1300015F000F82468002CBED13648DAF8042000784FF464
:20413C00805111F0EBFD10B18E2016F023F887F4805047E0B80505D515F0B2FA2D490120C8
:20415C000860FEE7780504D514F071FB87F4806038E0780405D5812016F00CF887F4804081
:20417C0030E0B9042DD5244C206810B1002013F0C7FC4FF0FF3020600020204C0DF08EFEB2
:20419C00216851F8202F684690471D494A6B086BC96A24681B4B019200900293ADF810102D
:2041BC006B46194A19491A4803921A4A07922568194AA8471949086003F096FD87F400507F
:2041DC0000E0002009B0BDE8F08F00BFF6240020480F0020680F0020880E0020D70F002023
:2041FC00780E00204DE501109C3900204C0F0020C70F00207C052043380F0020200F0020BA
:20421C00501F00207D9401008D94010018390020082F00201EFB0080EC0A00201C0F0020FD
:20423C002DE9F043044685B0084611F801CBDFF8A883DFF8A8332C22BCF1030F4FF000096E
:20425C0004F5A47704F1660504F1F40600F0C380BCF1070F00F08381BCF10F0F0CD0BCF1A1
:20427C00110F00F02781BCF11A0F00F03981BCF11B0F00F0648191E1707A820703D40F2152
:20429C0084F8191159E008784A7800EB02233B808878CA7800EB02237B8008794A7900EB9A
:2042BC000223BB808879CA7900EB0223FB80087A38724A7A887A02EB00237B81C87A0A7BEE
:2042DC0000EB0223BB81487B8A7B00EB0223FB81C87B0A7C00EB02233B82487C8A7C00EBD7
:2042FC0002237B82C87C0A7D00EB0223BB82487D897D00EB0122BA48FA8201788A0658BFF1
:20431C004FF01A0913D504F5AA70049079890391387A029021890191F8880090BB887A8825
:20433C003988204615F022FFC8B14FF01E09707A410706D40F2084F81901204615F012FFE8
:20435C00F3E04A460F21204615F008FFF8880090BB887A88A179484610F0E4FAECE004F1A0
:20437C00860079888180BA88C2800222F98801810270A0F80290A18EC91DE983628E8188D8
:20439C00B1EB520F02BFC188A28E914202BF0089E18EB0EB111F1CD0287C012804BF687C13
:2043BC000F2809D0687D00281CBF687C1A2803D00F21A976FE2179E0FC21204615F06AFF38
:2043DC00F8880090BB887A883988A07915F0C2FEB2E010216AE0707AC20709D431781A204D
:2043FC000129707002D1FF220D213BE00D215DE085F8009085F8069001233371082204F1E8
:20441C00B00015F0A3FE0146022204F1B80015F09DFE04F1A80801460822404615F096FE3D
:20443C0007460821404615F08DFE04F19C0804223946404615F08AFE0421404615F082FE53
:20445C0004F1A00015F07AFE04F1980015F072FE6448018841F0800101803078012805D11D
:20447C00FF220421204615F061FE65E06E7C0F2E18BF142E07D00E2E18BF0C2E03D01A2E4C
:20449C0018BF162E11D12F7C204615F04BFE0421204615F0FFFE012F05D11A2EAE7614BFD2
:2044BC00FD21FB2102E0314600E00421204615F0F1FE41E00E783E761A2E497879766DD15D
:2044DC001868A679411C564301F806901968A37912FB03F20A4482F80490A179787E56E05B
:2044FC00A77918680E785743074406F01F0117F8210FB60938B17878F040C00703D594F84D
:20451C009601042805D120221A21204615F026FE12E0F970A179186812FB01F281182046E6
:20453C0081F82360002115F064FA28B998F800004FF4804109F01EFB4FF0010932E0A179E3
:20455C00186851430144C88808B981F80190A179186812FB01F2811881F80490ECE7097837
:20457C000F2917D01A2919D1A1791868514301441A2081F80190A1791B6812FB01F29918CE
:20459C0081F80490F17A01F0FB01F172A17907F0BEFDD1E7717A01F0FD0171720146204649
:2045BC0015F0BCFD687C1A2812D1A87C17281CBF1028FC280CD12E7C204615F0B3FD012EAD
:2045DC0003BF1A20A876FB211A21204615F062FE484605B0BDE8F083C70F00209C3900203D
:2045FC00200E00209C0F00202DE9F041FF2805462AD115F08BF810F01F0F22D0042012F004
:20461C0013FB08B1042016E0012012F00DFB08B1012010E0022012F007FB08B102200AE0BD
:20463C00102012F001FB08B1102004E0082012F0FBFA20B10820BDE8F04112F07FBD13F034
:20465C005FFA0020BDE8F08112F078FD5FEA000814BFD8F804400024012D46F2A81740F681
:20467C00C4160BD0022D63D0042D00F0A280082D00F0EF80102D00F05181E2E7012012F045
:20469C00D3FA00281EBFDFF81403006800281CBF8788BF00102012F0C7FAE0B1102012F04F
:2046BC004DFD05466E6846B9022012F0BDFA20B1022012F043FD05466E68012012F0B4FA72
:2046DC0038B1B068C11BA06813F016FF08B94046B8E72846B6E7022012F0A6FA88B10220B1
:2046FC0012F02CFD06460120756812F09DFA30B1A868C11BA06813F0FFFE0028E7D0304666
:20471C00A0E7042012F090FA08B10420E8E7082012F08AFA30B1082012F010FD4168002902
:20473C0090D1D4E7012012F07FFA00288AD0CEE7022012F079FA58B1994801689948CA6970
:20475C00017801EB81015318DF88774307F51667042012F069FA28B1042012F0EFFC064692
:20477C000220C1E7082012F05FFA80B1082012F0E5FC05466E6846B9012012F055FA20B131
:20479C00012012F0DBFC05466E68022096E7012012F04AFA28B1012012F0D0FC06460220A6
:2047BC00A2E7102012F040FA08B11020B4E70220B9E7042012F038FA50B17B4801687B485A
:2047DC004A69017802EB01139F89774307F51667082012F029FA80B1082012F0AFFC054697
:2047FC006E6846B9012012F01FFA20B1012012F0A5FC05466E68042060E7012012F014FA3A
:20481C0028B1012012F09AFC064604206CE7102012F00AFA88B1102012F090FC05466E68D9
:20483C00002EE8D1022012F0FFF90028E3D0022012F084FC05466E68DDE7022012F0F4F9E4
:20485C0028B1022012F07AFC064604204CE7042069E715F0C4F808B1D0F89070042012F04A
:20487C00E3F9A0B1042012F069FC06460820756812F0DAF9002818BF002C16D0A868C11B41
:20489C00A06813F039FE00287FF439AF1FE7012012F0CAF960B1012012F050FC0646082057
:2048BC0012F0C2F9002818BF002C3FF428AF0EE7102012F0B9F9F8B1102012F03FFC0546B0
:2048DC006E6846B9022012F0AFF920B1022012F035FC05466E68082012F0A6F9002818BF0C
:2048FC00002C3FF4F6AEB068C11BA06813F004FE00287FF4EEAEEAE6022012F095F958B1D6
:20491C00022012F01BFC06460820756812F08CF9002818BF002CB0E7082004E7032015F06B
:20493C0060F808B1D0F89870022012F07DF950B1022012F003FC0646102012F075F90028A8
:20495C0018BF002CB1E7042012F06EF928B1042012F0F4FB06461020C6E6082012F064F976
:20497C0080B1082012F0EAFB05466E6846B9012012F05AF920B1012012F0E0FB05466E6855
:20499C0010209BE6012012F04FF928B1012012F0D5FB06461020A7E61020C4E6B039002027
:2049BC00500F0020D80F0020540F0020D90F00202DE9F84F0422FF21684614F0B3FBDFF8F0
:2049DC008C63B0780024FF2800F0BE8114F046FB0546B07814F02CFD064605F21710017862
:2049FC00012908BF417800F0008105F1740005F5927A817B022904BF05F174018C7395F82F
:204A1C009201022805F1740008BF85F89241017F022904BF05F174010C77BAF80E1019B146
:204A3C009AF80C0009F0A6F86889C94F288105F58D7BBA7AF879397B80184118F87A081895
:204A5C00797B00EB0109BBF80400BBF80010401CABF804004944BBF80200ABF800101018B7
:204A7C00ABF80200DAF80000F0B1BA4995F806E00B681C2103F10E0C11FB0EFE0E331CF861
:204A9C000E1030F811C0CC4420F811C01C2195F806C011FB0CFC13F80C3000EB4300B0F829
:204ABC004A105218A0F84A2012F08AFDF879002804BFF87A002805D1387B002804BF787B2E
:204ADC00002840D0F481A046F07EC00910D0307F00F00701022907DA00F0F802401C00F027
:204AFC0007001043307703E0A879002110F02CFE2989E8892C744118287FA981012804BF71
:204B1C00688CE883A979012207200BF054FD787805F1740658B101212977B078002804BF24
:204B3C00B07B002803D1307F08B9688CE8839AF81400002862D0022804BFF87A002858D1B3
:204B5C008AF814405AE0A979002207200BF033FDEC83317F11F0070F02D1F07EC00903D080
:204B7C00A879002110F0F0FDB87A38B1287F01284FF0010827D1688CE88324E0BBF80600A3
:204B9C00401CABF806004FF00208287CD8B172490868AB7995F82E6000F1140268694FEA03
:204BBC00400C40F6C4105B0110FB06CC0CF5F660D0500968A87901EB4010C17C01F0F001E6
:204BDC0041F00401C174A8892989814206D088429DD2081A41F2AB02904298DA287C08B1F6
:204BFC00052901D0082100E03E21284613F0C6F8AAE0787A10B102218AF81410F87BC107C2
:204C1C000DD538692968C86000F59070C86052480168A87901F114024001145014E04E48C4
:204C3C00AB79026802F114015B01C858CAF810004848AB7901681C2001F108024343D05871
:204C5C002968C860EC832C77444A50690078810702D5B87B802800D181203070404991F850
:204C7C00200018B12946012014F0B7FE284609F015FF02281BD1F079022805DB6A463949B0
:204C9C0028460EF0EDFE0446284615F043FA01285AD020000DD02246694628460FF038FBA0
:204CBC0038B9284609F0FAFE012802D14CE001284AD00121284615F029FAFEF711FC01283A
:204CDC0042D028460EF03BFE00F0F8F9264F3868002839D0B888AA7990421CBF4FF6FD7117
:204CFC00884231D12148007B14F00AFC04002BD084F80080A8791E4960800A68A879115C7B
:204D1C00217105F5C9721079607196F90010A171A4F80890BBF80200608114F0B1FB050026
:204D3C0005D1FF204FF0FF312073216109E02878207315F0E7F90146A86815F0DFF9800821
:204D5C002061204639688847BDE8F18F780E0020980C0020980E00209C0E0020F0C401000C
:204D7C000037002018260020800E002008250020B43900202DE9F84F054605F14C0AE87D01
:204D9C009AF80010DAF8047081424FF00008C0F0938105F1280407F1900907F17306C34614
:204DBC0040F08C80A87F7075E97FB175DAF808205278930710D5EA7FD30604D5C01E7075E0
:204DDC0001F0EF01B175C7F874B086F800800022B17D01F0FE016AE1910608D4E08B00B1B5
:204DFC00E07E3076E08B00B1206AC9F80000DAF808004178CA070DD5E08B00281CBF206AEE
:204E1C00002807D0C9F80000A17EE08B814238BF08463076E87FC1060CD5B86B217800EBC8
:204E3C008100B863B86BA98CA63100EB81007867022002E0C7F874B000203070DAF80800BF
:204E5C00417811F0030F22D1007814F0CCFD5FEA00081CD098F8B000032809D1E87F8106C2
:204E7C0015D440F02000E877B07D40F020000DE068B9E87F81060AD500F0DF00E877707D0B
:204E9C00A0F112017175B07D00F0DF00B075E97F002201F0FC01284608F01EFBB8F1000F9C
:204EBC0036D0E87F810633D598F8B00002282FD141462846BDE8F44F14F09FBDE87F810645
:204EDC000AD500F0DF00E877707DA0F112017175B07D00F0DF00B075DAF808004178C807AF
:204EFC0017D5B07D717D00F0F700891E01F03F0182075CBF891D40F00200420644BF491EA2
:204F1C0000F0BF00B0757175C9F800B086F81880D2E09AF80020E87D121AD2B28907009299
:204F3C0040F18280012A07F140083FD1B86BA98C00EB8100B863A87F00F03F00A87770756E
:204F5C00E97FB175DAF8082053785A0703D5801F707501F0FD01B1750023707DE17E00F0B1
:204F7C003F00421898F80000521CC0F3800192B200F0030015F056F900F59B70A8841E2154
:204F9C00A88C90FBF1F18AB2B17D01F0FE01284608F0A2FA86F800B0E08B00B1E07E3076AA
:204FBC00E08B00B1206AC9F8000085E0B86BA98C022A00EB8100B86326D1E87FC10706D5FD
:204FDC00707D811F7175B07D00F0FE00B0750023707DE17E00F03F00421898F80000521C0C
:204FFC00C0F3800192B200F0030015F01BF900F59B70A8840022B17D01F0FE01284608F03F
:20501C006BFA607FA8F81A00617F0098491C081AC0B201281CDDB96BAA8CA63201EB820142
:20503C0079670221317014E0B86BA98C00EB8100B863617F0098081AE97FCA06C0B207D5BD
:20505C00B96BAA8CA63201EB820179670221317090B395F81F80A97FD9F80020E37E1A44A8
:20507C00C9F8002028F00108DAF808205278530748BF28F00208920748BF28F008080128DA
:20509C0007D1207F3076C7F874B028F0100886F800B001F0C004404615F0C8F800F03F0067
:2050BC002043707586F81680002208F0FC012846BDE8F84F08F010BABDE8F18F2DE9FE4FBD
:2050DC00DFF81883D8F804601EB9BDE8F74F15F011B83078DFF80893C24FDFF80CA30128A4
:2050FC0018BF02280AD004281CBF0828102805D0402818BF802800F0A08068E114F00CFB2A
:20511C000028FAD0012011F08FFD20B1012012F015F811F035FD082011F086FD20B10820FA
:20513C0012F00CF811F02CFD3078FFF75DFA05009AF8010014BF6C68002400284ED004F091
:20515C0099FF13F08BFF064630680090D0F804B0B0798AF80300BCB10099284614F07BFC81
:20517C00022811D02978012902D0082963D02EE128B914F0C7FF00F5E8504C30A060012083
:20519C0088F8020011211CE10098017880290CD10820964938700A78DBF81400012A1ABF8F
:2051BC00D9F824100978012113E007203870B07914F03EF90446207BC10748BFB0795DD4F7
:2051DC008A480178DBF8140001291CBFD9F824104978C172B0798AF80200BCE0002D11D02C
:2051FC002878AE420AD1012818BF082802D1002C03D1F1E0002012F083FCE3E0012802D0F5
:20521C00082816D0E3E0002CF3D014F07BFF0146A06801F5C241A83113F06EF928B914F0BC
:20523C0071FF00F5E8504C30A060112038700121C0E0002CDDD00820C0E09AF80100002842
:20525C0000F08B8004F016FF13F008FF054628680090D0F804B09AF8020013F0FFFE019018
:20527C00A8798AF803003178402911D1A87914F0DFF80446207BC1070AD5A87913F0EEFEE0
:20529C00052112F07BFD207B00F0FE002073A3E014F03CFA10F01F0F3AD0012011F0C4FC5F
:2052BC0020B1012011F04AFF11F06AFC082011F0BBFC20B1082011F041FF11F061FC98F827
:2052DC000200FFF791F9064674680CB3009914F0C2FB02281CD03178012902D008290DD026
:2052FC0013E028B914F00EFF00F5E8504C30A06011203870012188F8021004E0082088F8EB
:20531C0002001221397030465DE0002012F0F8FB0198A8421FD0009934480A78802A0BD13C
:20533C000821397000780128DBF814001ABFD9F82410097801210AE007223A700078012818
:20535C00DBF814000EBF0121D9F824104978C172A8798AF80200009835E014F0D7F910F03C
:20537C001F0F39D0012011F05FFC20B1012011F0E5FE11F005FC082011F056FC20B1082011
:20539C0011F0DCFE11F0FCFB98F80200FFF72CF9054628786C68012802D008280DD01BE0AF
:2053BC00D4B114F0AFFE00F5E8504C30A06001211120387088F8021004E06CB188F80200E2
:2053DC00122139702846BDE8FE4F07F015BBBDE8FE4F002012F094BBBDE8F78F5039002077
:2053FC00F0C40100C80F0020780E0020CC0F00202DE9F84F05004ED0DFF8E48298F80000F7
:20541C00092818BF0A2804D00B281CBF0C280D2801D1212062E1A878002114F057FF0400F6
:20543C0008BF4220F6D0AF4FA978DFF8BCA2397098F8000010B9A8788AF8000004F1480626
:20545C00F068417801F01201022902BF706900280C2012D0607AF0B1A07B012804D1B5F8DF
:20547C00030008B1812816DA6878402813DA204614F03CFEB06808B907202FE1B56128781C
:20549C0001281FD1A07B00281CBF0128042819D19648007808B9122020E195494A788242CC
:2054BC0008BF0920F8D0F068417848070AD504F1220180204A7F04F1380106F03DF908B145
:2054DC000B200BE1687808B9112007E12878DFF82492DFF824B2012840F0AF8000212173C8
:2054FC00F166217A012903D1B16968794871F4E0012000212072E1726173254609F0B6F90A
:20551C006060DBF8000080477C4A0146106802E06A68426000680028FAD10846D9F80010B0
:20553C0088476968764848610021387814F04DFA3978012211200BF03EF8F0684178C80617
:20555C0005D5284600F07EFE010024D0C6E0688C0FF03CFA85F82100F068007814F043FA08
:20557C0004001CBF94F8B000002807D0E87F40F02000E877687D40F018006875284614F063
:20559C006CFA0100E2D134B194F8B000012804BF284614F030FAF0684178C8071CD505F165
:2055BC004204A18800291CBF3068002814D022788A4211D20F2014F095FD68B1F0680178C0
:2055DC008DF800100F20A288ADF8012021788DF80310694614F082FD98F80000A0B949491D
:2055FC00087800281EBFF068417811F0030F03D04548006814F06EFD112088F800000121DC
:20561C002972FFF75BFD68E0284611F063FD00281CBFB168002960D0AA7B012A04D02A6942
:20563C00808802EB800202E0486E2A69821895F8B810104609F00AFE4FE0207A00284CD059
:20565C00DBF80010884705463878012114F0BDF900202E4920720A683E7811460B68187AF8
:20567C00002802BF586D0378B3421FD0C9689142F4D138789AF80010884224D113F000FF25
:20569C00616888421FD111F09BFF40F2014014F0A5FD1F491F4A204808600121107808F074
:2056BC0069FAD9F800102846884716E01B4E30780128DEDD084611F047FA13F019FF30780F
:2056DC00411E3170D5E7204614F000FDD9F8001028468847204611F023F80020BDE8F28FA5
:2056FC00C80F0020D60F0020D50F0020D40F0020780E0020B01D0020AC1D00204C0F002094
:20571C0065840000880E00206C0F0020B0390020480F0020C70F0020E9900000243A0020C6
:20573C002DE9F043A24CA349A34E20700A22002008600D23A1484FF40971027043808180E9
:20575C0085B09F4A9F48106037789F480770FF2F7178417008BFFF29B2788270F378C3703A
:20577C00357905717679467114D1FF2A08BFFF2B10D1FF2D08BFFF2E0CD194490A78027095
:20579C004B7843708A788270CB78C3700A790271497941718E4902788E4D8F4E8F4F0A7042
:2057BC0043784B7082788A70C378CB7002790A7140798B4A4871FF2028706870A870E870B1
:2057DC0028716871002087490880F06B8649407808708649F06B007808701388844885491A
:2057FC000380F06BC06C08608349F06B90F83C0008708249F06B90F83D0008708049F06B31
:20581C0090F860000870F06B406901797D484A1E0270F06B7C49C0783870F06B8069086043
:20583C0008B912F06DF9F06B7849C069086008B912F066F9F06B416D75480C2213F068FCF9
:20585C0014F040FCF06B7349006A086008B912F057F9F06BDFF8C081406AC8F8000008B952
:20587C0012F04EF9F06B6D49806A086008B912F047F9F06B6A49C06D002840D001220A7548
:20589C00F06BC06D02681378C3F3400048B1F06BC06D02681378C3F3C00000280CBF012079
:2058BC000220487500208860C8600861F06BC06D426890780870F06BC06D4268D078487070
:2058DC00F06BC06D426813788B70F06BC06D42685078C870F06BC06D426810790871F06B33
:2058FC00C06D426850794871F06BC06D426890798871F06BC06D4268D079C87101E0002248
:20591C000A7501F097FA07280AD105F0A5FF20784FF4804108F02EF9002012F0F1F843E0DE
:20593C0040480168884781460CF036FFD8F8000001688847684613F013FCD8F800200420B7
:20595C008DF80000694652F8043F00209847364908600FF0CFFAF068344A01883878344B2E
:20597C00014311804846196888470C21314814F04AF8284614F0A2FB14F09CFB2E4800212B
:20599C004FF6FF7201608280F06B90F858102B48006813F045FD0121FF2014F016F820787C
:2059BC004FF4005108F0E6F805B0BDE8F08300BFC70F0020380F0020D04F0050700E00206B
:2059DC003C0F0020B63F0050400E0020E8120050500E0020480E0020F0C40100C40F0020A7
:2059FC004E2500209E0F0020C60F0020D40F0020123A0020A4390020253A0020263A0020CB
:205A1C00233A0020CB0F0020200F0020240F002044390020280F00202C0F0020300F0020A3
:205A3C00C0380020AC1D0020A8390020A00F0020B01D0020FC0D0020800E0020BC390020A0
:205A5C002DE9FE4F01200190A74EA848A84F0278112A02D0122A0DD040E1A64C20780021CD
:205A7C0014F034FCA4490546087810B100220A70FCE0002D00F02581A048DFF88482DFF886
:205A9C00849238600122217811200AF094FD286D696D009141F60802009B9B495C78E3064B
:205ABC0040F1E680044641F20443B4F802C09C451FBFB4F81AE09E45B4F832C09C454FF4F7
:205ADC00A05A1CD095F80EC0BCF1010F04BFB5F89EE09E4513D0B4F802E041F20A439E4507
:205AFC001FBFB4F81AB09B45B4F832E09E4506D0BCF1010F04BFB5F89EC09C4503D13380EC
:205B1C00C7F800803DE0002340F2FE3B4FF0180C0CFB03FCA444BCF802E0A6F800E0BEF16B
:205B3C00010FF3D0BEF1000F5FD0AEF1020EBEF1010F5AD9BEEB0B0E1AD04FF48063BEEB6D
:205B5C00030363D04FF4406BB3EB0B034DD09B1E012B4AD91B1F48D040F2FA3BB3EB0B03CC
:205B7C0079D05B1E6BD0D81E50D0001F4ED077E0B4F800C040F6010EF44536D15B1C022BCD
:205B9C00C4DD386840452FD1A06C0168A06C01F1080501680879032804BF94F86C000128AA
:205BBC001AD1D5F80E0000281CBF288B002813D095F8220010F0E00F0ED105F11E0014F0AD
:205BDC0075FA012808D1688B298BAA8B401C89004843B0EB021F70DBA6F800A0C7F8009058
:205BFC00A06C01680020087167E0A87B01281CBF0428A6F800A0C7F80090087D0028C0D017
:205C1C008868401C002288600A82BAE7A87B012806BF41F20243ACF80230ACF802A0308888
:205C3C00904215D1CA68088A4D8A521CCA60401C82B2AA4238BF2A464A82088208E00099A3
:205C5C004A78D1064CBF816CC16E086800210171C7F8009095E7002011F052FF832003E0A2
:205C7C00002011F04DFF842014F02CFB012038E0438E41F204455C1B1CD0A41F1AD0338083
:205C9C00408890420CD1CA68088A4C8A521CCA60401C82B2A24238BF22464A82088206E030
:205CBC00087D20B18868401C002288600A8241F20643C846C7F8008033800121134800781F
:205CDC0009E013F08CFE58B1C08811490F4A308039600121107807F04DFF01E00020019066
:205CFC000198BDE8FE8F00BF9A0F0020C80F0020480F0020D50F0020283A0020756B02104F
:205D1C00D5180000E9900000C0380020C70F0020171101002DE9F04FDFF84C9204460D4623
:205D3C000020ADF1440D01461F460D9016460E9183460F91D9F808A0CDF840B00BF046FD1F
:205D5C00262803D00BF042FD252825D1308843F6070181420ED040F60201814206D0B0F578
:205D7C00C15F19D1F07B022816DD43E0F07B022812DD3FE096F8240002280DDD307C0F2806
:205D9C0038D13169C1F31421B1F5803F04D00F2830D1B1F5A02F2DD1002D2BD056B32878A6
:205DBC004FF0010808FA00F01AEA000F22D03046594613F026FE65606C4DA660A86980B186
:205DDC0010A800900DA90EAA0FAB304606F098FD0E980B214FF6FF72502311F093FFFF2881
:205DFC0008D013F0D0FD82462878022804DB504614F00CFA5C46B3E000286DD103F05AFCEA
:205E1C005B495C4E086840F00200086009A8C9F8006013F07DFB584E5849707809AA0B9044
:205E3C0005F1E0000EF0CEFE554905F58E7009AA0EF0C8FE09A813F0C3FA192109AB307892
:205E5C00504A0A9005F1600010F01CFB4E4A05F17C001A2109AB10F015FB4C495A4605F54D
:205E7C00AC7013460FF0D0FF49495A4605F5CE7013460FF0C9FF47480068C0F3814030B1ED
:205E9C00454A05F1340004215B4611F08BFFB078012802D10E2008F05DFE05F1A00013F09E
:205EBC00BFF805F1980013F0BBF8594685F8241085F83010072085F84002A960E962374B02
:205EDC001970E960052685F83110354A2E610420AA6212F01FF9287805EB8001401CC1F86D
:205EFC00B840C0B22870504614F090F91FB901A813F0DCF801AF38684FF4FA76E660206040
:205F1C00B8694146A062388A61766083F8692063786800280CBF40F6C4105946206160619D
:205F3C00204E266266622176E661F86800B12062786900B16062B86800B1E061C82204F1D1
:205F5C00380059460BF0F9FE04F15000594611F0ABFD15495A4604F1B80013460FF054FF79
:205F7C00204611B0BDE8F08FCC210840E00F002000200940110000E074C30100898C0100CE
:205F9C00C5DA0000FD3F010075330100B58501009D890100B44F0050F1530100303A0020DC
:205FBC00EDCC00001B6F010045990100F8B5144600254FF48067A04EC21B84B006F18C03C7
:205FDC0034D0921E39D0521E41D0521E47D0521E4DD0521E51D0521E00F07780921E00F0CB
:205FFC007980D21E00F0A980521E00F0B480921E00F0BD80521E00F07880521E00F0BE801C
:20601C00521E00F0CC80521E00F0CF80521E3BD0521E53D0521E48D0921E00F0DA80921EC9
:20603C0000F0DE80521E00F0E980F8E001290FD12078022817DC7070FBE0012908D1207840
:20605C00022810DA0028B070F6D17074E2E0012940F0E3802078052805DAF070E9E00129A7
:20607C006CD12078022880F2D8807073E1E0102964D110222146714814E001295ED12078F2
:20609C00022863DA3071D4E0012957D1207802285CDA00287071F6D00120B074602206F151
:2060BC002C01184613F034F8C3E00129FCD12078022802DAB07113F0EBF9BAE001293DD1F8
:2060DC002078022842DAF072B3E0012936D12078B073AEE0002931D114F0C0F810B9FBF7B5
:2060FC0076F81DE001207075A3E0072926D10622611C02A812F0D2FD00950023217801AA4D
:20611C0002A808F083FDB0B9F07A10B914F0A6F810B1F07A012808D19DF80400FBF768F8EB
:20613C000546502012F098FA1EE0716A9DF80420012088547DE034257BE001296DD1317C3F
:20615C002078022903D0C11F0A2902D365E0102863D1F0736DE001295FD1317D20783075FF
:20617C00002908BF012864D1FAF7BAFF61E0012953D12078032850DCF0745AE001294CD1A8
:20619C002078022849DC002847D03074022803BF1020F0730120002013F084FF49E0012980
:2061BC003BD1207812F0B4FB43E07079002834D1602908D1002C30D060222146184612F05E
:2061DC00A7FF012003E0012927D134B32078B0742FE0012921D104B320781949087028E0D8
:2061FC00D9B914F03BF830B9FBF797F80546502012F032FA1DE00120B0751AE001290CD123
:20621C002178022909DA012904BFB07800280FD07174084613F044F90BE0182509E00F28E4
:20623C0006DA022904D121880FF06EFE054600E00225284605B0F0BD001C00205437002045
:20625C002B3A00202DE9F84F0446002000900CB911F056FC04F1500569462E68204607F042
:20627C0081FE08B9072015E1A04641F28839DFF828B2DFF828A2002469684A7A18206043E5
:20629C0001233718A3401A420AD098F80E103AF81100388000211BF80420BA73F97302E0DA
:2062BC0040F6010038800021798007F118007860387B00F0EF00387340F08000387398F8A9
:2062DC000E10012916D1397B002C0CBF0220052001F0F0010843387324B913F013FF00F5C2
:2062FC007A6000E04846B860787B00F0F00040F0020017E0002C0CBF0221002100F0F0000B
:20631C000843387324B913F0FDFE00F57A6000E00020B860022C797B0CBF0120022001F088
:20633C00F00108437873641C06F14800386106F16801032C79619FDB98F80E0000240128F4
:20635C0008F1A80718D108F19C0070631822314612F0DEFE06F118002865C5F854903978AB
:20637C0001F0F00141F005013970787800F0F00040F00200787000E07463B068C8F81000B6
:20639C0047480178397413F049FFB064454881690978CA07826912784CBF1F210F2193077A
:2063BC008269127848BF41F0200153078269107848BF41F04001020706F14C0248BF41F027
:2063DC008001117054706968887C00F0030008F13E0150700B7863F382005070497894703B
:2063FC0061F3C3005070D47040F0100050703465746508F13800F06598F80E00012818BFD0
:20641C00042815D0A86830B1B0F803009070A968D1F805003065E86830B1B0F80300D07023
:20643C00E968D1F8050070651F4801684868F06508F13000B065D07D00F0EF00D07540F098
:20645C008000D07500F0F00040F00600D0752869B0F8030000280EBF144849F64041484328
:20647C0070661349087838B15078117840F0400001F0FE01507011700E498B7850785906F2
:20649C004CBF40F0200000F0DF005070009806F0F3FD0020BDE8F28F506E0210F46B0210F1
:2064BC00223A0020F0C401006C0F002000204E00880E0020C00C00202DE9FE4F8D48027832
:2064DC000024521E032A4FF0010A0AD9103A40F00C81894C2078002113F0F8FE040000F030
:2064FC00058114B9002011F00BFB606DDFF80C824178DFF80C92834DC806216D4CBF886C7B
:20651C00C86E0622016801F10806B11C01A812F0FFFD3078C0F380108DF800004FF01E0B4C
:20653C003778794E07F00F0103292FD101A913F05DFE002829D0606D807C012818BF032879
:20655C0023D1296801A813F04DFEFF281DD01BFB00FB286810F80B205844411CD9F80000F1
:20657C0013F09CFD98F8001088420ED028685844C11DD9F8000001AA13F08CFD28685844DD
:20659C00062201A9C01D12F0C3FD9FE007F00F000528FAD19DF8000001A913F027FE7F0902
:2065BC0090B3296801A813F01DFE616DFF2823D0897C022918BF03291BFB00FB0CD128688B
:2065DC0010F80B205844411CD9F8000013F066FD98F80010884279D028685844C11DD9F8AE
:2065FC00000001AA13F056FD28685844062201A9C01D12F08DFD24E04878C2066FD5887C43
:20661C00F8B1012862D11CE03A48017802295DD19DF80010286801AA13F080FEFF2855D05C
:20663C0029681BFB00FB01EB0B00427F012A04D00D3013F0AFFD002848D040F2014013F043
:20665C00CDFD606D4178C80649D530498878410605D5F80703D4206D41F20A4102E0206DF8
:20667C0041F2044141804183418629480180206D816C0A68816C08680079032802F1080759
:20669C0024D1D7F80E0000281CBF388B00281DD097F8220010F0E00F18D107F11E0013F08F
:2066BC0005FD012812D1788B398BBA8B401C89004843B0EB021F09DA164A1749174886F8F8
:2066DC0000A011600121007807F054FA606D4178CA0604D5307848B9216D886C01E0216DE5
:2066FC00C86E01680020087100E0A2465046BDE8FE8F00BFC80F0020D50F0020253A00207D
:20671C006C0F0020680F0020283A0020C00C00209A0F0020480F0020D5180000C70F00209A
:20673C002DE9F04F0746F88916468A46ADF1440DC01D80B205460CF0C3FA8F4CFF280BD10E
:20675C00284604F061FF854204DD641C207800B905200EE1012000E000206178D9B916B17B
:20677C00022E18D1B8B1387AFE88BD888DF82C000023009309AAADF82A60E18E94F8330087
:20679C00ADF82850032305F0C7FD9DF834003874BDF83060BE81BD8955B3FE8946B3AD1B52
:2067BC004FF000091FFA85F84D463A7C761B202ED4BFB6B22026E06808EB050189B2334681
:2067DC0001EB423101AA13F04FF80AEB050101A8324611F02FFD58B9AD19FE89ADB2AE4253
:2067FC00E3DCB9F1010F1CBF4846B88140F0BA8094F83310E58EE06801AA04238846490382
:20681C0013F032F8019800F0FF007E2806D140467C2110F08DFE019800F0FF007C2840F020
:20683C00A580F88942F20102C11D8EB2A9198A4240F39A80F9883A7AC1F301238DF839108B
:20685C00B98843EA82038DF838308A1007468DF83A200423C0F3851201F0030142EA811251
:20687C008DF83B2010FB03F1FA1D01F0FC017B1990B28DF83C101FFA83FB0D282BDB504609
:20689C003946002212F018FF024605210EA812F013FF9DF83C103B4600F03F07524641EA8F
:2068BC00A011B8008DF83C1040F0020096278DF83D0029468DF83E7040460EF06DFE0746F3
:2068DC0059460EAA0723404667700EF065FE384360704DD135E004F1240051463A4609F0B6
:2068FC0055FC0EA90A68381900F124094846097902607B1D0171002204F1240099B212F08F
:20691C00DBFE9DF83C10962300F03F078DF83E3041EAA011B8008DF83C10334640F00200AF
